{
  "contractName": "MilkSupplyChain",
  "abi": [
    {
      "inputs": [],
      "stateMutability": "nonpayable",
      "type": "constructor"
    },
    {
      "anonymous": false,
      "inputs": [
        {
          "indexed": true,
          "internalType": "uint256",
          "name": "violationId",
          "type": "uint256"
        },
        {
          "indexed": true,
          "internalType": "address",
          "name": "holder",
          "type": "address"
        },
        {
          "indexed": true,
          "internalType": "uint256",
          "name": "batchId",
          "type": "uint256"
        },
        {
          "indexed": false,
          "internalType": "uint256",
          "name": "detectionTime",
          "type": "uint256"
        }
      ],
      "name": "AbusiveStorageDetected",
      "type": "event"
    },
    {
      "anonymous": false,
      "inputs": [
        {
          "indexed": true,
          "internalType": "address",
          "name": "admin",
          "type": "address"
        }
      ],
      "name": "AdminAdded",
      "type": "event"
    },
    {
      "anonymous": false,
      "inputs": [
        {
          "indexed": true,
          "internalType": "address",
          "name": "admin",
          "type": "address"
        }
      ],
      "name": "AdminRemoved",
      "type": "event"
    },
    {
      "anonymous": false,
      "inputs": [
        {
          "indexed": true,
          "internalType": "uint256",
          "name": "batchId",
          "type": "uint256"
        },
        {
          "indexed": true,
          "internalType": "address",
          "name": "owner",
          "type": "address"
        },
        {
          "indexed": false,
          "internalType": "uint256",
          "name": "expiryTime",
          "type": "uint256"
        }
      ],
      "name": "BatchExpired",
      "type": "event"
    },
    {
      "anonymous": false,
      "inputs": [
        {
          "indexed": true,
          "internalType": "address",
          "name": "holder",
          "type": "address"
        },
        {
          "indexed": false,
          "internalType": "uint256",
          "name": "violationCount",
          "type": "uint256"
        }
      ],
      "name": "HolderBlacklisted",
      "type": "event"
    },
    {
      "anonymous": false,
      "inputs": [
        {
          "indexed": true,
          "internalType": "address",
          "name": "holder",
          "type": "address"
        }
      ],
      "name": "HolderRemovedFromBlacklist",
      "type": "event"
    },
    {
      "anonymous": false,
      "inputs": [
        {
          "indexed": false,
          "internalType": "uint256",
          "name": "oldDuration",
          "type": "uint256"
        },
        {
          "indexed": false,
          "internalType": "uint256",
          "name": "newDuration",
          "type": "uint256"
        }
      ],
      "name": "MaxStorageDurationChanged",
      "type": "event"
    },
    {
      "anonymous": false,
      "inputs": [
        {
          "indexed": true,
          "internalType": "address",
          "name": "previousOwner",
          "type": "address"
        },
        {
          "indexed": true,
          "internalType": "address",
          "name": "newOwner",
          "type": "address"
        }
      ],
      "name": "OwnershipTransferred",
      "type": "event"
    },
    {
      "anonymous": false,
      "inputs": [
        {
          "indexed": false,
          "internalType": "uint256",
          "name": "batchId",
          "type": "uint256"
        },
        {
          "indexed": true,
          "internalType": "address",
          "name": "producer",
          "type": "address"
        },
        {
          "indexed": false,
          "internalType": "uint256",
          "name": "quantity",
          "type": "uint256"
        },
        {
          "indexed": false,
          "internalType": "uint256",
          "name": "timestamp",
          "type": "uint256"
        }
      ],
      "name": "Produced",
      "type": "event"
    },
    {
      "anonymous": false,
      "inputs": [
        {
          "indexed": true,
          "internalType": "address",
          "name": "producer",
          "type": "address"
        }
      ],
      "name": "ProducerAdded",
      "type": "event"
    },
    {
      "anonymous": false,
      "inputs": [
        {
          "indexed": true,
          "internalType": "address",
          "name": "producer",
          "type": "address"
        }
      ],
      "name": "ProducerRemoved",
      "type": "event"
    },
    {
      "anonymous": false,
      "inputs": [
        {
          "indexed": true,
          "internalType": "address",
          "name": "reseller",
          "type": "address"
        }
      ],
      "name": "ResellerAdded",
      "type": "event"
    },
    {
      "anonymous": false,
      "inputs": [
        {
          "indexed": true,
          "internalType": "address",
          "name": "reseller",
          "type": "address"
        },
        {
          "indexed": true,
          "internalType": "address",
          "name": "admin",
          "type": "address"
        },
        {
          "indexed": false,
          "internalType": "uint256",
          "name": "maxQuantity",
          "type": "uint256"
        },
        {
          "indexed": false,
          "internalType": "uint256",
          "name": "timestamp",
          "type": "uint256"
        }
      ],
      "name": "ResellerChanged",
      "type": "event"
    },
    {
      "anonymous": false,
      "inputs": [
        {
          "indexed": true,
          "internalType": "address",
          "name": "reseller",
          "type": "address"
        }
      ],
      "name": "ResellerRemoved",
      "type": "event"
    },
    {
      "anonymous": false,
      "inputs": [
        {
          "indexed": true,
          "internalType": "address",
          "name": "from",
          "type": "address"
        },
        {
          "indexed": true,
          "internalType": "address",
          "name": "to",
          "type": "address"
        },
        {
          "indexed": false,
          "internalType": "uint256",
          "name": "quantity",
          "type": "uint256"
        },
        {
          "indexed": false,
          "internalType": "uint256",
          "name": "batchId",
          "type": "uint256"
        }
      ],
      "name": "Transferred",
      "type": "event"
    },
    {
      "anonymous": false,
      "inputs": [
        {
          "indexed": true,
          "internalType": "uint256",
          "name": "violationId",
          "type": "uint256"
        },
        {
          "indexed": true,
          "internalType": "address",
          "name": "resolver",
          "type": "address"
        }
      ],
      "name": "ViolationResolved",
      "type": "event"
    },
    {
      "anonymous": false,
      "inputs": [
        {
          "indexed": false,
          "internalType": "uint256",
          "name": "oldThreshold",
          "type": "uint256"
        },
        {
          "indexed": false,
          "internalType": "uint256",
          "name": "newThreshold",
          "type": "uint256"
        }
      ],
      "name": "ViolationThresholdChanged",
      "type": "event"
    },
    {
      "inputs": [
        {
          "internalType": "address",
          "name": "",
          "type": "address"
        }
      ],
      "name": "addressName",
      "outputs": [
        {
          "internalType": "string",
          "name": "",
          "type": "string"
        }
      ],
      "stateMutability": "view",
      "type": "function",
      "constant": true
    },
    {
      "inputs": [
        {
          "internalType": "address",
          "name": "",
          "type": "address"
        }
      ],
      "name": "addressPosition",
      "outputs": [
        {
          "internalType": "uint256",
          "name": "latitude",
          "type": "uint256"
        },
        {
          "internalType": "uint256",
          "name": "longitude",
          "type": "uint256"
        }
      ],
      "stateMutability": "view",
      "type": "function",
      "constant": true
    },
    {
      "inputs": [
        {
          "internalType": "uint256",
          "name": "",
          "type": "uint256"
        }
      ],
      "name": "batches",
      "outputs": [
        {
          "internalType": "uint256",
          "name": "id",
          "type": "uint256"
        },
        {
          "internalType": "address",
          "name": "producer",
          "type": "address"
        },
        {
          "internalType": "uint256",
          "name": "quantity",
          "type": "uint256"
        },
        {
          "internalType": "uint256",
          "name": "timestamp",
          "type": "uint256"
        },
        {
          "internalType": "address",
          "name": "currentOwner",
          "type": "address"
        },
        {
          "internalType": "bool",
          "name": "expired",
          "type": "bool"
        }
      ],
      "stateMutability": "view",
      "type": "function",
      "constant": true
    },
    {
      "inputs": [
        {
          "internalType": "address",
          "name": "",
          "type": "address"
        },
        {
          "internalType": "uint256",
          "name": "",
          "type": "uint256"
        }
      ],
      "name": "batchesByOwner",
      "outputs": [
        {
          "internalType": "uint256",
          "name": "",
          "type": "uint256"
        }
      ],
      "stateMutability": "view",
      "type": "function",
      "constant": true
    },
    {
      "inputs": [
        {
          "internalType": "address",
          "name": "",
          "type": "address"
        }
      ],
      "name": "blacklistedHolders",
      "outputs": [
        {
          "internalType": "bool",
          "name": "",
          "type": "bool"
        }
      ],
      "stateMutability": "view",
      "type": "function",
      "constant": true
    },
    {
      "inputs": [
        {
          "internalType": "address",
          "name": "",
          "type": "address"
        }
      ],
      "name": "isAdmin",
      "outputs": [
        {
          "internalType": "bool",
          "name": "",
          "type": "bool"
        }
      ],
      "stateMutability": "view",
      "type": "function",
      "constant": true
    },
    {
      "inputs": [
        {
          "internalType": "address",
          "name": "",
          "type": "address"
        }
      ],
      "name": "isProducer",
      "outputs": [
        {
          "internalType": "bool",
          "name": "",
          "type": "bool"
        }
      ],
      "stateMutability": "view",
      "type": "function",
      "constant": true
    },
    {
      "inputs": [
        {
          "internalType": "address",
          "name": "",
          "type": "address"
        }
      ],
      "name": "isReseller",
      "outputs": [
        {
          "internalType": "bool",
          "name": "",
          "type": "bool"
        }
      ],
      "stateMutability": "view",
      "type": "function",
      "constant": true
    },
    {
      "inputs": [
        {
          "internalType": "address",
          "name": "",
          "type": "address"
        }
      ],
      "name": "maxQuantityPerReseller",
      "outputs": [
        {
          "internalType": "uint256",
          "name": "",
          "type": "uint256"
        }
      ],
      "stateMutability": "view",
      "type": "function",
      "constant": true
    },
    {
      "inputs": [],
      "name": "maxStorageDuration",
      "outputs": [
        {
          "internalType": "uint256",
          "name": "",
          "type": "uint256"
        }
      ],
      "stateMutability": "view",
      "type": "function",
      "constant": true
    },
    {
      "inputs": [],
      "name": "nextBatchId",
      "outputs": [
        {
          "internalType": "uint256",
          "name": "",
          "type": "uint256"
        }
      ],
      "stateMutability": "view",
      "type": "function",
      "constant": true
    },
    {
      "inputs": [],
      "name": "nextViolationId",
      "outputs": [
        {
          "internalType": "uint256",
          "name": "",
          "type": "uint256"
        }
      ],
      "stateMutability": "view",
      "type": "function",
      "constant": true
    },
    {
      "inputs": [],
      "name": "owner",
      "outputs": [
        {
          "internalType": "address",
          "name": "",
          "type": "address"
        }
      ],
      "stateMutability": "view",
      "type": "function",
      "constant": true
    },
    {
      "inputs": [],
      "name": "renounceOwnership",
      "outputs": [],
      "stateMutability": "nonpayable",
      "type": "function"
    },
    {
      "inputs": [
        {
          "internalType": "address",
          "name": "",
          "type": "address"
        }
      ],
      "name": "stockBalance",
      "outputs": [
        {
          "internalType": "uint256",
          "name": "",
          "type": "uint256"
        }
      ],
      "stateMutability": "view",
      "type": "function",
      "constant": true
    },
    {
      "inputs": [],
      "name": "totalProducers",
      "outputs": [
        {
          "internalType": "uint256",
          "name": "",
          "type": "uint256"
        }
      ],
      "stateMutability": "view",
      "type": "function",
      "constant": true
    },
    {
      "inputs": [],
      "name": "totalResellers",
      "outputs": [
        {
          "internalType": "uint256",
          "name": "",
          "type": "uint256"
        }
      ],
      "stateMutability": "view",
      "type": "function",
      "constant": true
    },
    {
      "inputs": [
        {
          "internalType": "address",
          "name": "newOwner",
          "type": "address"
        }
      ],
      "name": "transferOwnership",
      "outputs": [],
      "stateMutability": "nonpayable",
      "type": "function"
    },
    {
      "inputs": [],
      "name": "violationThreshold",
      "outputs": [
        {
          "internalType": "uint256",
          "name": "",
          "type": "uint256"
        }
      ],
      "stateMutability": "view",
      "type": "function",
      "constant": true
    },
    {
      "inputs": [
        {
          "internalType": "uint256",
          "name": "",
          "type": "uint256"
        }
      ],
      "name": "violations",
      "outputs": [
        {
          "internalType": "address",
          "name": "holder",
          "type": "address"
        },
        {
          "internalType": "uint256",
          "name": "batchId",
          "type": "uint256"
        },
        {
          "internalType": "uint256",
          "name": "detectionTime",
          "type": "uint256"
        },
        {
          "internalType": "bool",
          "name": "resolved",
          "type": "bool"
        }
      ],
      "stateMutability": "view",
      "type": "function",
      "constant": true
    },
    {
      "inputs": [
        {
          "internalType": "address",
          "name": "",
          "type": "address"
        },
        {
          "internalType": "uint256",
          "name": "",
          "type": "uint256"
        }
      ],
      "name": "violationsByHolder",
      "outputs": [
        {
          "internalType": "uint256",
          "name": "",
          "type": "uint256"
        }
      ],
      "stateMutability": "view",
      "type": "function",
      "constant": true
    },
    {
      "inputs": [
        {
          "internalType": "address",
          "name": "account",
          "type": "address"
        }
      ],
      "name": "addAdmin",
      "outputs": [],
      "stateMutability": "nonpayable",
      "type": "function"
    },
    {
      "inputs": [
        {
          "internalType": "address",
          "name": "account",
          "type": "address"
        }
      ],
      "name": "removeAdmin",
      "outputs": [],
      "stateMutability": "nonpayable",
      "type": "function"
    },
    {
      "inputs": [
        {
          "internalType": "address",
          "name": "account",
          "type": "address"
        },
        {
          "internalType": "uint256",
          "name": "maxQuantity",
          "type": "uint256"
        }
      ],
      "name": "setReseller",
      "outputs": [],
      "stateMutability": "nonpayable",
      "type": "function"
    },
    {
      "inputs": [
        {
          "internalType": "address",
          "name": "account",
          "type": "address"
        },
        {
          "internalType": "uint256",
          "name": "maxQuantity",
          "type": "uint256"
        }
      ],
      "name": "changeMaxQuantityReseller",
      "outputs": [],
      "stateMutability": "nonpayable",
      "type": "function"
    },
    {
      "inputs": [
        {
          "internalType": "address",
          "name": "account",
          "type": "address"
        }
      ],
      "name": "removeReseller",
      "outputs": [],
      "stateMutability": "nonpayable",
      "type": "function"
    },
    {
      "inputs": [
        {
          "internalType": "address",
          "name": "account",
          "type": "address"
        }
      ],
      "name": "setProducer",
      "outputs": [],
      "stateMutability": "nonpayable",
      "type": "function"
    },
    {
      "inputs": [
        {
          "internalType": "address",
          "name": "account",
          "type": "address"
        }
      ],
      "name": "removeProducer",
      "outputs": [],
      "stateMutability": "nonpayable",
      "type": "function"
    },
    {
      "inputs": [
        {
          "internalType": "uint256",
          "name": "newDuration",
          "type": "uint256"
        }
      ],
      "name": "setMaxStorageDuration",
      "outputs": [],
      "stateMutability": "nonpayable",
      "type": "function"
    },
    {
      "inputs": [
        {
          "internalType": "uint256",
          "name": "newThreshold",
          "type": "uint256"
        }
      ],
      "name": "setViolationThreshold",
      "outputs": [],
      "stateMutability": "nonpayable",
      "type": "function"
    },
    {
      "inputs": [
        {
          "internalType": "uint256",
          "name": "quantity",
          "type": "uint256"
        }
      ],
      "name": "produce",
      "outputs": [],
      "stateMutability": "nonpayable",
      "type": "function"
    },
    {
      "inputs": [
        {
          "internalType": "address",
          "name": "to",
          "type": "address"
        },
        {
          "internalType": "uint256",
          "name": "amount",
          "type": "uint256"
        },
        {
          "internalType": "uint256",
          "name": "batchId",
          "type": "uint256"
        }
      ],
      "name": "transferStock",
      "outputs": [],
      "stateMutability": "nonpayable",
      "type": "function"
    },
    {
      "inputs": [
        {
          "internalType": "uint256",
          "name": "batchId",
          "type": "uint256"
        }
      ],
      "name": "checkForAbusiveStorage",
      "outputs": [
        {
          "internalType": "bool",
          "name": "",
          "type": "bool"
        }
      ],
      "stateMutability": "nonpayable",
      "type": "function"
    },
    {
      "inputs": [
        {
          "internalType": "uint256",
          "name": "violationId",
          "type": "uint256"
        }
      ],
      "name": "resolveViolation",
      "outputs": [],
      "stateMutability": "nonpayable",
      "type": "function"
    },
    {
      "inputs": [
        {
          "internalType": "address",
          "name": "holder",
          "type": "address"
        }
      ],
      "name": "removeFromBlacklist",
      "outputs": [],
      "stateMutability": "nonpayable",
      "type": "function"
    },
    {
      "inputs": [],
      "name": "checkAllBatchesForAbusiveStorage",
      "outputs": [
        {
          "internalType": "uint256",
          "name": "",
          "type": "uint256"
        }
      ],
      "stateMutability": "nonpayable",
      "type": "function"
    },
    {
      "inputs": [
        {
          "internalType": "address",
          "name": "holder",
          "type": "address"
        }
      ],
      "name": "getActiveViolationsByHolder",
      "outputs": [
        {
          "internalType": "uint256[]",
          "name": "",
          "type": "uint256[]"
        }
      ],
      "stateMutability": "view",
      "type": "function",
      "constant": true
    },
    {
      "inputs": [
        {
          "internalType": "uint256",
          "name": "daysThreshold",
          "type": "uint256"
        }
      ],
      "name": "getBatchesNearingViolation",
      "outputs": [
        {
          "internalType": "uint256[]",
          "name": "",
          "type": "uint256[]"
        }
      ],
      "stateMutability": "view",
      "type": "function",
      "constant": true
    },
    {
      "inputs": [
        {
          "internalType": "address",
          "name": "owner",
          "type": "address"
        }
      ],
      "name": "getBatchesByOwner",
      "outputs": [
        {
          "internalType": "uint256[]",
          "name": "",
          "type": "uint256[]"
        }
      ],
      "stateMutability": "view",
      "type": "function",
      "constant": true
    },
    {
      "inputs": [
        {
          "internalType": "address",
          "name": "holder",
          "type": "address"
        }
      ],
      "name": "isHolderViolatingStorageRules",
      "outputs": [
        {
          "internalType": "bool",
          "name": "",
          "type": "bool"
        }
      ],
      "stateMutability": "view",
      "type": "function",
      "constant": true
    },
    {
      "inputs": [
        {
          "internalType": "address",
          "name": "account",
          "type": "address"
        }
      ],
      "name": "getRole",
      "outputs": [
        {
          "internalType": "string",
          "name": "",
          "type": "string"
        }
      ],
      "stateMutability": "view",
      "type": "function",
      "constant": true
    },
    {
      "inputs": [
        {
          "internalType": "address",
          "name": "account",
          "type": "address"
        },
        {
          "internalType": "uint256",
          "name": "latitude",
          "type": "uint256"
        },
        {
          "internalType": "uint256",
          "name": "longitude",
          "type": "uint256"
        }
      ],
      "name": "setPosition",
      "outputs": [],
      "stateMutability": "nonpayable",
      "type": "function"
    },
    {
      "inputs": [
        {
          "internalType": "address",
          "name": "account",
          "type": "address"
        },
        {
          "internalType": "string",
          "name": "name",
          "type": "string"
        }
      ],
      "name": "setName",
      "outputs": [],
      "stateMutability": "nonpayable",
      "type": "function"
    }
  ],
  "bytecode": "0x60806040526000600155600060025562278d0060035560036012553480156200002757600080fd5b50620000486200003c620000fa60201b60201c565b6200010260201b60201c565b62000059336200010260201b60201c565b6001600960003373ffffffffffffffffffffffffffffffffffffffff1673ffffffffffffffffffffffffffffffffffffffff16815260200190815260200160002060006101000a81548160ff0219169083151502179055503373ffffffffffffffffffffffffffffffffffffffff167f44d6d25963f097ad14f29f06854a01f575648a1ef82f30e562ccd3889717e33960405160405180910390a2620001c6565b600033905090565b60008060009054906101000a900473ffffffffffffffffffffffffffffffffffffffff169050816000806101000a81548173ffffffffffffffffffffffffffffffffffffffff021916908373ffffffffffffffffffffffffffffffffffffffff1602179055508173ffffffffffffffffffffffffffffffffffffffff168173ffffffffffffffffffffffffffffffffffffffff167f8be0079c531659141344cd1fd0a4f28419497f9722a3daafe3b4186f6b6457e060405160405180910390a35050565b61538080620001d66000396000f3fe608060405234801561001057600080fd5b50600436106102695760003560e01c80636d8ae74111610151578063a20a2c00116100c3578063b515eab311610087578063b515eab3146107bc578063b995bb95146107d8578063ee76d5b01461080b578063f2fde38b14610827578063f552102214610843578063fb8eb7c11461087357610269565b8063a20a2c0014610701578063a7223e3d1461071d578063ad87dd261461074d578063b2db614014610769578063b32c4d8d1461078757610269565b80638462a7f8116101155780638462a7f81461062b5780638d8657cf146106495780638da5cb5b146106675780639af7825b146106855780639d064020146106b5578063a10d9c9e146106d157610269565b80636d8ae7411461059b57806370480275146105b7578063715018a6146105d357806379c21def146105dd5780637d3d75f0146105fb57610269565b80632a7afa0d116101ea578063416dd31a116101ae578063416dd31a146104b757806342ae291b146104e75780634427673314610517578063493cccde14610547578063537df3b61461056357806365da56031461057f57610269565b80632a7afa0d146104155780632b38bafc146104335780633121db1c1461044f57806338cf88211461046b5780633f185b6c1461049b57610269565b806310c4d2d41161023157806310c4d2d41461034d5780631785f53c1461037d5780631de0e480146103995780632221e667146103c957806324d7806c146103e557610269565b806301e820a91461026e57806305ece2261461029e57806305f81763146102cf5780630ad6c469146102ed5780630ff2d2121461031d575b600080fd5b61028860048036038101906102839190613f1e565b610891565b6040516102959190613f6d565b60405180910390f35b6102b860048036038101906102b39190613f88565b6108c2565b6040516102c6929190613fb5565b60405180910390f35b6102d76108e6565b6040516102e49190613f6d565b60405180910390f35b61030760048036038101906103029190613f88565b610952565b6040516103149190613ff9565b60405180910390f35b61033760048036038101906103329190613f88565b610a1b565b60405161034491906140a4565b60405180910390f35b610367600480360381019061036291906140c6565b610abb565b60405161037491906141b1565b60405180910390f35b61039760048036038101906103929190613f88565b610c72565b005b6103b360048036038101906103ae91906140c6565b610e65565b6040516103c09190613ff9565b60405180910390f35b6103e360048036038101906103de91906141d3565b611396565b005b6103ff60048036038101906103fa9190613f88565b611bde565b60405161040c9190613ff9565b60405180910390f35b61041d611bfe565b60405161042a9190613f6d565b60405180910390f35b61044d60048036038101906104489190613f88565b611c04565b005b6104696004803603810190610464919061435b565b611e9d565b005b61048560048036038101906104809190613f88565b611f7a565b6040516104929190613f6d565b60405180910390f35b6104b560048036038101906104b09190613f88565b611f92565b005b6104d160048036038101906104cc9190613f88565b61219d565b6040516104de91906141b1565b60405180910390f35b61050160048036038101906104fc9190613f1e565b612234565b60405161050e9190613f6d565b60405180910390f35b610531600480360381019061052c9190613f88565b612265565b60405161053e91906140a4565b60405180910390f35b610561600480360381019061055c91906140c6565b612452565b005b61057d60048036038101906105789190613f88565b6125a9565b005b610599600480360381019061059491906140c6565b61279c565b005b6105b560048036038101906105b091906141d3565b612b20565b005b6105d160048036038101906105cc9190613f88565b612c3f565b005b6105db612e33565b005b6105e5612e47565b6040516105f29190613f6d565b60405180910390f35b61061560048036038101906106109190613f88565b612e4d565b6040516106229190613f6d565b60405180910390f35b610633612e65565b6040516106409190613f6d565b60405180910390f35b610651612e6b565b60405161065e9190613f6d565b60405180910390f35b61066f612e71565b60405161067c91906143c6565b60405180910390f35b61069f600480360381019061069a9190613f88565b612e9a565b6040516106ac91906141b1565b60405180910390f35b6106cf60048036038101906106ca9190613f88565b613065565b005b6106eb60048036038101906106e69190613f88565b613270565b6040516106f89190613ff9565b60405180910390f35b61071b600480360381019061071691906140c6565b613290565b005b61073760048036038101906107329190613f88565b613477565b6040516107449190613ff9565b60405180910390f35b610767600480360381019061076291906140c6565b613497565b005b6107716135ab565b60405161077e9190613f6d565b60405180910390f35b6107a1600480360381019061079c91906140c6565b6135b1565b6040516107b3969594939291906143e1565b60405180910390f35b6107d660048036038101906107d19190613f1e565b61363a565b005b6107f260048036038101906107ed91906140c6565b61383e565b6040516108029493929190614442565b60405180910390f35b61082560048036038101906108209190613f1e565b61389b565b005b610841600480360381019061083c9190613f88565b613b79565b005b61085d60048036038101906108589190613f88565b613bfc565b60405161086a9190613ff9565b60405180910390f35b61087b613c1c565b6040516108889190613f6d565b60405180910390f35b601060205281600052604060002081815481106108ad57600080fd5b90600052602060002001600091509150505481565b600e6020528060005260406000206000915090508060000154908060010154905082565b6000806000905060005b60045481101561094a576000600660008381526020019081526020016000206002015411156109375761092281610e65565b15610936578180610932906144b6565b9250505b5b8080610942906144b6565b9150506108f0565b508091505090565b600080601060008473ffffffffffffffffffffffffffffffffffffffff1673ffffffffffffffffffffffffffffffffffffffff16815260200190815260200160002090506000805b8280549050811015610a0d57600f60008483815481106109bd576109bc6144fe565b5b9060005260206000200154815260200190815260200160002060030160009054906101000a900460ff166109fa5781806109f6906144b6565b9250505b8080610a05906144b6565b91505061099a565b506000811192505050919050565b600d6020528060005260406000206000915090508054610a3a9061455c565b80601f0160208091040260200160405190810160405280929190818152602001828054610a669061455c565b8015610ab35780601f10610a8857610100808354040283529160200191610ab3565b820191906000526020600020905b815481529060010190602001808311610a9657829003601f168201915b505050505081565b606060006201518083610ace919061458d565b600354610adb91906145cf565b90506000805b600454811015610b6a57600060066000838152602001908152602001600020600201541115610b57576000600660008381526020019081526020016000206003015442610b2e91906145cf565b90508381118015610b4157506003548111155b15610b55578280610b51906144b6565b9350505b505b8080610b62906144b6565b915050610ae1565b5060008167ffffffffffffffff811115610b8757610b86614230565b5b604051908082528060200260200182016040528015610bb55781602001602082028036833780820191505090505b5090506000805b600454811015610c6557600060066000838152602001908152602001600020600201541115610c52576000600660008381526020019081526020016000206003015442610c0991906145cf565b90508581118015610c1c57506003548111155b15610c505781848481518110610c3557610c346144fe565b5b6020026020010181815250508280610c4c906144b6565b9350505b505b8080610c5d906144b6565b915050610bbc565b5081945050505050919050565b600960003373ffffffffffffffffffffffffffffffffffffffff1673ffffffffffffffffffffffffffffffffffffffff16815260200190815260200160002060009054906101000a900460ff1680610cfc57503373ffffffffffffffffffffffffffffffffffffffff16610ce4612e71565b73ffffffffffffffffffffffffffffffffffffffff16145b610d3b576040517f08c379a0000000000000000000000000000000000000000000000000000000008152600401610d329061464f565b60405180910390fd5b600960008273ffffffffffffffffffffffffffffffffffffffff1673ffffffffffffffffffffffffffffffffffffffff16815260200190815260200160002060009054906101000a900460ff16610dc7576040517f08c379a0000000000000000000000000000000000000000000000000000000008152600401610dbe906146bb565b60405180910390fd5b6000600960008373ffffffffffffffffffffffffffffffffffffffff1673ffffffffffffffffffffffffffffffffffffffff16815260200190815260200160002060006101000a81548160ff0219169083151502179055508073ffffffffffffffffffffffffffffffffffffffff167fa3b62bc36326052d97ea62d63c3d60308ed4c3ea8ac079dd8499f1e9c4f80c0f60405160405180910390a250565b6000806006600084815260200190815260200160002090506003548160030154610e8f91906146db565b42111561138b57600060056000815480929190610eab906144b6565b91905055905060405180608001604052808360040160009054906101000a900473ffffffffffffffffffffffffffffffffffffffff1673ffffffffffffffffffffffffffffffffffffffff16815260200185815260200142815260200160001515815250600f600083815260200190815260200160002060008201518160000160006101000a81548173ffffffffffffffffffffffffffffffffffffffff021916908373ffffffffffffffffffffffffffffffffffffffff160217905550602082015181600101556040820151816002015560608201518160030160006101000a81548160ff021916908315150217905550905050600c60008360040160009054906101000a900473ffffffffffffffffffffffffffffffffffffffff1673ffffffffffffffffffffffffffffffffffffffff1673ffffffffffffffffffffffffffffffffffffffff16815260200190815260200160002060009054906101000a900460ff161561102f57600260008154809291906110299061470f565b91905055505b600a60008360040160009054906101000a900473ffffffffffffffffffffffffffffffffffffffff1673ffffffffffffffffffffffffffffffffffffffff1673ffffffffffffffffffffffffffffffffffffffff16815260200190815260200160002060009054906101000a900460ff16156110be57600160008154809291906110b89061470f565b91905055505b601060008360040160009054906101000a900473ffffffffffffffffffffffffffffffffffffffff1673ffffffffffffffffffffffffffffffffffffffff1673ffffffffffffffffffffffffffffffffffffffff168152602001908152602001600020819080600181540180825580915050600190039060005260206000200160009091909190915055838260040160009054906101000a900473ffffffffffffffffffffffffffffffffffffffff1673ffffffffffffffffffffffffffffffffffffffff16827f5938baf0e87bb258c8f84cdfedaf69616db7fb30d86f1dd3b61aea99d773cf8f426040516111b49190613f6d565b60405180910390a4601254601060008460040160009054906101000a900473ffffffffffffffffffffffffffffffffffffffff1673ffffffffffffffffffffffffffffffffffffffff1673ffffffffffffffffffffffffffffffffffffffff1681526020019081526020016000208054905010611380576001601160008460040160009054906101000a900473ffffffffffffffffffffffffffffffffffffffff1673ffffffffffffffffffffffffffffffffffffffff1673ffffffffffffffffffffffffffffffffffffffff16815260200190815260200160002060006101000a81548160ff0219169083151502179055508160040160009054906101000a900473ffffffffffffffffffffffffffffffffffffffff1673ffffffffffffffffffffffffffffffffffffffff167fab696c3448aca400f4d94156b35a98ac357eab949326d87e98ae9fa2b8e1a714601060008560040160009054906101000a900473ffffffffffffffffffffffffffffffffffffffff1673ffffffffffffffffffffffffffffffffffffffff1673ffffffffffffffffffffffffffffffffffffffff168152602001908152602001600020805490506040516113779190613f6d565b60405180910390a25b600192505050611391565b60009150505b919050565b601160003373ffffffffffffffffffffffffffffffffffffffff1673ffffffffffffffffffffffffffffffffffffffff16815260200190815260200160002060009054906101000a900460ff1615611423576040517f08c379a000000000000000000000000000000000000000000000000000000000815260040161141a906147aa565b60405180910390fd5b81600760003373ffffffffffffffffffffffffffffffffffffffff1673ffffffffffffffffffffffffffffffffffffffff1681526020019081526020016000205410156114a5576040517f08c379a000000000000000000000000000000000000000000000000000000000815260040161149c90614816565b60405180910390fd5b600c60003373ffffffffffffffffffffffffffffffffffffffff1673ffffffffffffffffffffffffffffffffffffffff16815260200190815260200160002060009054906101000a900460ff16806115465750600a60003373ffffffffffffffffffffffffffffffffffffffff1673ffffffffffffffffffffffffffffffffffffffff16815260200190815260200160002060009054906101000a900460ff165b611585576040517f08c379a000000000000000000000000000000000000000000000000000000000815260040161157c90614882565b60405180910390fd5b600a60008473ffffffffffffffffffffffffffffffffffffffff1673ffffffffffffffffffffffffffffffffffffffff16815260200190815260200160002060009054906101000a900460ff16611611576040517f08c379a0000000000000000000000000000000000000000000000000000000008152600401611608906148ee565b60405180910390fd5b601160008473ffffffffffffffffffffffffffffffffffffffff1673ffffffffffffffffffffffffffffffffffffffff16815260200190815260200160002060009054906101000a900460ff161561169e576040517f08c379a000000000000000000000000000000000000000000000000000000000815260040161169590614980565b60405180910390fd5b3373ffffffffffffffffffffffffffffffffffffffff166006600083815260200190815260200160002060040160009054906101000a900473ffffffffffffffffffffffffffffffffffffffff1673ffffffffffffffffffffffffffffffffffffffff1614611742576040517f08c379a0000000000000000000000000000000000000000000000000000000008152600401611739906149ec565b60405180910390fd5b816006600083815260200190815260200160002060020154101561179b576040517f08c379a000000000000000000000000000000000000000000000000000000000815260040161179290614a58565b60405180910390fd5b6117a481610e65565b506006600082815260200190815260200160002060020154820361188c57826006600083815260200190815260200160002060040160006101000a81548173ffffffffffffffffffffffffffffffffffffffff021916908373ffffffffffffffffffffffffffffffffffffffff1602179055506118213382613c22565b600860008473ffffffffffffffffffffffffffffffffffffffff1673ffffffffffffffffffffffffffffffffffffffff168152602001908152602001600020819080600181540180825580915050600190039060005260206000200160009091909190915055611ac6565b6000600460008154809291906118a1906144b6565b9190505590506040518060c001604052808281526020016006600085815260200190815260200160002060010160009054906101000a900473ffffffffffffffffffffffffffffffffffffffff1673ffffffffffffffffffffffffffffffffffffffff168152602001848152602001600660008581526020019081526020016000206003015481526020018573ffffffffffffffffffffffffffffffffffffffff16815260200160001515815250600660008381526020019081526020016000206000820151816000015560208201518160010160006101000a81548173ffffffffffffffffffffffffffffffffffffffff021916908373ffffffffffffffffffffffffffffffffffffffff160217905550604082015181600201556060820151816003015560808201518160040160006101000a81548173ffffffffffffffffffffffffffffffffffffffff021916908373ffffffffffffffffffffffffffffffffffffffff16021790555060a08201518160040160146101000a81548160ff02191690831515021790555090505082600660008481526020019081526020016000206002016000828254611a5791906145cf565b92505081905550600860008573ffffffffffffffffffffffffffffffffffffffff1673ffffffffffffffffffffffffffffffffffffffff168152602001908152602001600020819080600181540180825580915050600190039060005260206000200160009091909190915055505b81600760003373ffffffffffffffffffffffffffffffffffffffff1673ffffffffffffffffffffffffffffffffffffffff1681526020019081526020016000206000828254611b1591906145cf565b9250508190555081600760008573ffffffffffffffffffffffffffffffffffffffff1673ffffffffffffffffffffffffffffffffffffffff1681526020019081526020016000206000828254611b6b91906146db565b925050819055508273ffffffffffffffffffffffffffffffffffffffff163373ffffffffffffffffffffffffffffffffffffffff167f18d62fb566bbc5565888ee7f280d21e62d398373f26d05401c3d6587fcc95c5c8484604051611bd1929190613fb5565b60405180910390a3505050565b60096020528060005260406000206000915054906101000a900460ff1681565b60125481565b600960003373ffffffffffffffffffffffffffffffffffffffff1673ffffffffffffffffffffffffffffffffffffffff16815260200190815260200160002060009054906101000a900460ff1680611c8e57503373ffffffffffffffffffffffffffffffffffffffff16611c76612e71565b73ffffffffffffffffffffffffffffffffffffffff16145b611ccd576040517f08c379a0000000000000000000000000000000000000000000000000000000008152600401611cc49061464f565b60405180910390fd5b600c60008273ffffffffffffffffffffffffffffffffffffffff1673ffffffffffffffffffffffffffffffffffffffff16815260200190815260200160002060009054906101000a900460ff1615611d5a576040517f08c379a0000000000000000000000000000000000000000000000000000000008152600401611d5190614ac4565b60405180910390fd5b601160008273ffffffffffffffffffffffffffffffffffffffff1673ffffffffffffffffffffffffffffffffffffffff16815260200190815260200160002060009054906101000a900460ff1615611de7576040517f08c379a0000000000000000000000000000000000000000000000000000000008152600401611dde90614b56565b60405180910390fd5b6001600c60008373ffffffffffffffffffffffffffffffffffffffff1673ffffffffffffffffffffffffffffffffffffffff16815260200190815260200160002060006101000a81548160ff02191690831515021790555060026000815480929190611e52906144b6565b91905055508073ffffffffffffffffffffffffffffffffffffffff167f2977383b0207d39ef14220620b6cf3e6c9b6e78592af90baeef6614ed2fcd2c660405160405180910390a250565b600960003373ffffffffffffffffffffffffffffffffffffffff1673ffffffffffffffffffffffffffffffffffffffff16815260200190815260200160002060009054906101000a900460ff16611f29576040517f08c379a0000000000000000000000000000000000000000000000000000000008152600401611f20906146bb565b60405180910390fd5b80600d60008473ffffffffffffffffffffffffffffffffffffffff1673ffffffffffffffffffffffffffffffffffffffff1681526020019081526020016000209081611f759190614d22565b505050565b60076020528060005260406000206000915090505481565b600960003373ffffffffffffffffffffffffffffffffffffffff1673ffffffffffffffffffffffffffffffffffffffff16815260200190815260200160002060009054906101000a900460ff168061201c57503373ffffffffffffffffffffffffffffffffffffffff16612004612e71565b73ffffffffffffffffffffffffffffffffffffffff16145b61205b576040517f08c379a00000000000000000000000000000000000000000000000000000000081526004016120529061464f565b60405180910390fd5b600c60008273ffffffffffffffffffffffffffffffffffffffff1673ffffffffffffffffffffffffffffffffffffffff16815260200190815260200160002060009054906101000a900460ff166120e7576040517f08c379a00000000000000000000000000000000000000000000000000000000081526004016120de90614e40565b60405180910390fd5b6000600c60008373ffffffffffffffffffffffffffffffffffffffff1673ffffffffffffffffffffffffffffffffffffffff16815260200190815260200160002060006101000a81548160ff021916908315150217905550600160008154809291906121529061470f565b91905055508073ffffffffffffffffffffffffffffffffffffffff167fb78e9906c5bae930ccf756a5214c9855b1782f0eb30f9566de2384f034af48f360405160405180910390a250565b6060600860008373ffffffffffffffffffffffffffffffffffffffff1673ffffffffffffffffffffffffffffffffffffffff16815260200190815260200160002080548060200260200160405190810160405280929190818152602001828054801561222857602002820191906000526020600020905b815481526020019060010190808311612214575b50505050509050919050565b6008602052816000526040600020818154811061225057600080fd5b90600052602060002001600091509150505481565b6060600960008373ffffffffffffffffffffffffffffffffffffffff1673ffffffffffffffffffffffffffffffffffffffff16815260200190815260200160002060009054906101000a900460ff16156122f6576040518060400160405280600581526020017f61646d696e000000000000000000000000000000000000000000000000000000815250905061244d565b600c60008373ffffffffffffffffffffffffffffffffffffffff1673ffffffffffffffffffffffffffffffffffffffff16815260200190815260200160002060009054906101000a900460ff1615612385576040518060400160405280600881526020017f70726f6475636572000000000000000000000000000000000000000000000000815250905061244d565b600a60008373ffffffffffffffffffffffffffffffffffffffff1673ffffffffffffffffffffffffffffffffffffffff16815260200190815260200160002060009054906101000a900460ff1615612414576040518060400160405280600881526020017f726573656c6c6572000000000000000000000000000000000000000000000000815250905061244d565b6040518060400160405280600781526020017f756e6b6e6f776e0000000000000000000000000000000000000000000000000081525090505b919050565b600960003373ffffffffffffffffffffffffffffffffffffffff1673ffffffffffffffffffffffffffffffffffffffff16815260200190815260200160002060009054906101000a900460ff16806124dc57503373ffffffffffffffffffffffffffffffffffffffff166124c4612e71565b73ffffffffffffffffffffffffffffffffffffffff16145b61251b576040517f08c379a00000000000000000000000000000000000000000000000000000000081526004016125129061464f565b60405180910390fd5b6000811161255e576040517f08c379a000000000000000000000000000000000000000000000000000000000815260040161255590614ed2565b60405180910390fd5b60006012549050816012819055507f640cb28dc00b63a4925f69fcfaa2182169d71f10d3adfef82155d9f711025ac1818360405161259d929190613fb5565b60405180910390a15050565b600960003373ffffffffffffffffffffffffffffffffffffffff1673ffffffffffffffffffffffffffffffffffffffff16815260200190815260200160002060009054906101000a900460ff168061263357503373ffffffffffffffffffffffffffffffffffffffff1661261b612e71565b73ffffffffffffffffffffffffffffffffffffffff16145b612672576040517f08c379a00000000000000000000000000000000000000000000000000000000081526004016126699061464f565b60405180910390fd5b601160008273ffffffffffffffffffffffffffffffffffffffff1673ffffffffffffffffffffffffffffffffffffffff16815260200190815260200160002060009054906101000a900460ff166126fe576040517f08c379a00000000000000000000000000000000000000000000000000000000081526004016126f590614f3e565b60405180910390fd5b6000601160008373ffffffffffffffffffffffffffffffffffffffff1673ffffffffffffffffffffffffffffffffffffffff16815260200190815260200160002060006101000a81548160ff0219169083151502179055508073ffffffffffffffffffffffffffffffffffffffff167f39ad9dd6d571557e581ef3c963032dba2db232f21ebe529f1331d2d66c2d797c60405160405180910390a250565b600c60003373ffffffffffffffffffffffffffffffffffffffff1673ffffffffffffffffffffffffffffffffffffffff16815260200190815260200160002060009054906101000a900460ff16612828576040517f08c379a000000000000000000000000000000000000000000000000000000000815260040161281f90614faa565b60405180910390fd5b601160003373ffffffffffffffffffffffffffffffffffffffff1673ffffffffffffffffffffffffffffffffffffffff16815260200190815260200160002060009054906101000a900460ff16156128b5576040517f08c379a00000000000000000000000000000000000000000000000000000000081526004016128ac906147aa565b60405180910390fd5b6000600460008154809291906128ca906144b6565b9190505590506040518060c001604052808281526020013373ffffffffffffffffffffffffffffffffffffffff1681526020018381526020014281526020013373ffffffffffffffffffffffffffffffffffffffff16815260200160001515815250600660008381526020019081526020016000206000820151816000015560208201518160010160006101000a81548173ffffffffffffffffffffffffffffffffffffffff021916908373ffffffffffffffffffffffffffffffffffffffff160217905550604082015181600201556060820151816003015560808201518160040160006101000a81548173ffffffffffffffffffffffffffffffffffffffff021916908373ffffffffffffffffffffffffffffffffffffffff16021790555060a08201518160040160146101000a81548160ff02191690831515021790555090505081600760003373ffffffffffffffffffffffffffffffffffffffff1673ffffffffffffffffffffffffffffffffffffffff1681526020019081526020016000206000828254612a5d91906146db565b92505081905550600860003373ffffffffffffffffffffffffffffffffffffffff1673ffffffffffffffffffffffffffffffffffffffff1681526020019081526020016000208190806001815401808255809150506001900390600052602060002001600090919091909150553373ffffffffffffffffffffffffffffffffffffffff167fd09d9a38e02ab127d6f42579d59f78264b59ad00e810b512d320c788a64b2f0d828442604051612b1493929190614fca565b60405180910390a25050565b600960003373ffffffffffffffffffffffffffffffffffffffff1673ffffffffffffffffffffffffffffffffffffffff16815260200190815260200160002060009054906101000a900460ff16612bac576040517f08c379a0000000000000000000000000000000000000000000000000000000008152600401612ba3906146bb565b60405180910390fd5b81600e60008573ffffffffffffffffffffffffffffffffffffffff1673ffffffffffffffffffffffffffffffffffffffff1681526020019081526020016000206000018190555080600e60008573ffffffffffffffffffffffffffffffffffffffff1673ffffffffffffffffffffffffffffffffffffffff16815260200190815260200160002060010181905550505050565b600960003373ffffffffffffffffffffffffffffffffffffffff1673ffffffffffffffffffffffffffffffffffffffff16815260200190815260200160002060009054906101000a900460ff1680612cc957503373ffffffffffffffffffffffffffffffffffffffff16612cb1612e71565b73ffffffffffffffffffffffffffffffffffffffff16145b612d08576040517f08c379a0000000000000000000000000000000000000000000000000000000008152600401612cff9061464f565b60405180910390fd5b600960008273ffffffffffffffffffffffffffffffffffffffff1673ffffffffffffffffffffffffffffffffffffffff16815260200190815260200160002060009054906101000a900460ff1615612d95576040517f08c379a0000000000000000000000000000000000000000000000000000000008152600401612d8c9061504d565b60405180910390fd5b6001600960008373ffffffffffffffffffffffffffffffffffffffff1673ffffffffffffffffffffffffffffffffffffffff16815260200190815260200160002060006101000a81548160ff0219169083151502179055508073ffffffffffffffffffffffffffffffffffffffff167f44d6d25963f097ad14f29f06854a01f575648a1ef82f30e562ccd3889717e33960405160405180910390a250565b612e3b613d2c565b612e456000613daa565b565b60035481565b600b6020528060005260406000206000915090505481565b60045481565b60055481565b60008060009054906101000a900473ffffffffffffffffffffffffffffffffffffffff16905090565b60606000601060008473ffffffffffffffffffffffffffffffffffffffff1673ffffffffffffffffffffffffffffffffffffffff16815260200190815260200160002090506000805b8280549050811015612f5657600f6000848381548110612f0657612f056144fe565b5b9060005260206000200154815260200190815260200160002060030160009054906101000a900460ff16612f43578180612f3f906144b6565b9250505b8080612f4e906144b6565b915050612ee3565b5060008167ffffffffffffffff811115612f7357612f72614230565b5b604051908082528060200260200182016040528015612fa15781602001602082028036833780820191505090505b5090506000805b848054905081101561305857600f6000868381548110612fcb57612fca6144fe565b5b9060005260206000200154815260200190815260200160002060030160009054906101000a900460ff166130455784818154811061300c5761300b6144fe565b5b906000526020600020015483838151811061302a576130296144fe565b5b6020026020010181815250508180613041906144b6565b9250505b8080613050906144b6565b915050612fa8565b5081945050505050919050565b600960003373ffffffffffffffffffffffffffffffffffffffff1673ffffffffffffffffffffffffffffffffffffffff16815260200190815260200160002060009054906101000a900460ff16806130ef57503373ffffffffffffffffffffffffffffffffffffffff166130d7612e71565b73ffffffffffffffffffffffffffffffffffffffff16145b61312e576040517f08c379a00000000000000000000000000000000000000000000000000000000081526004016131259061464f565b60405180910390fd5b600a60008273ffffffffffffffffffffffffffffffffffffffff1673ffffffffffffffffffffffffffffffffffffffff16815260200190815260200160002060009054906101000a900460ff166131ba576040517f08c379a00000000000000000000000000000000000000000000000000000000081526004016131b1906150b9565b60405180910390fd5b6000600a60008373ffffffffffffffffffffffffffffffffffffffff1673ffffffffffffffffffffffffffffffffffffffff16815260200190815260200160002060006101000a81548160ff021916908315150217905550600160008154809291906132259061470f565b91905055508073ffffffffffffffffffffffffffffffffffffffff167f74317ab44bd96a4b18c5f1eee4104ecd55c3eb0a69795f59fb4b3ebe550a860060405160405180910390a250565b600a6020528060005260406000206000915054906101000a900460ff1681565b600960003373ffffffffffffffffffffffffffffffffffffffff1673ffffffffffffffffffffffffffffffffffffffff16815260200190815260200160002060009054906101000a900460ff168061331a57503373ffffffffffffffffffffffffffffffffffffffff16613302612e71565b73ffffffffffffffffffffffffffffffffffffffff16145b613359576040517f08c379a00000000000000000000000000000000000000000000000000000000081526004016133509061464f565b60405180910390fd5b600554811061339d576040517f08c379a000000000000000000000000000000000000000000000000000000000815260040161339490615125565b60405180910390fd5b600f600082815260200190815260200160002060030160009054906101000a900460ff1615613401576040517f08c379a00000000000000000000000000000000000000000000000000000000081526004016133f890615191565b60405180910390fd5b6001600f600083815260200190815260200160002060030160006101000a81548160ff0219169083151502179055503373ffffffffffffffffffffffffffffffffffffffff16817fd00492650098d7f8856b4cfd50132f3c69ef3d6463f1869cfbd0ccfabf64ea9d60405160405180910390a350565b60116020528060005260406000206000915054906101000a900460ff1681565b600960003373ffffffffffffffffffffffffffffffffffffffff1673ffffffffffffffffffffffffffffffffffffffff16815260200190815260200160002060009054906101000a900460ff168061352157503373ffffffffffffffffffffffffffffffffffffffff16613509612e71565b73ffffffffffffffffffffffffffffffffffffffff16145b613560576040517f08c379a00000000000000000000000000000000000000000000000000000000081526004016135579061464f565b60405180910390fd5b60006003549050816003819055507f3f48365421b6fd89f4702c341b2977602f921c96f606ab41254abab5fb79ab15818360405161359f929190613fb5565b60405180910390a15050565b60025481565b60066020528060005260406000206000915090508060000154908060010160009054906101000a900473ffffffffffffffffffffffffffffffffffffffff16908060020154908060030154908060040160009054906101000a900473ffffffffffffffffffffffffffffffffffffffff16908060040160149054906101000a900460ff16905086565b600960003373ffffffffffffffffffffffffffffffffffffffff1673ffffffffffffffffffffffffffffffffffffffff16815260200190815260200160002060009054906101000a900460ff16806136c457503373ffffffffffffffffffffffffffffffffffffffff166136ac612e71565b73ffffffffffffffffffffffffffffffffffffffff16145b613703576040517f08c379a00000000000000000000000000000000000000000000000000000000081526004016136fa9061464f565b60405180910390fd5b600a60008373ffffffffffffffffffffffffffffffffffffffff1673ffffffffffffffffffffffffffffffffffffffff16815260200190815260200160002060009054906101000a900460ff1661378f576040517f08c379a0000000000000000000000000000000000000000000000000000000008152600401613786906150b9565b60405180910390fd5b80600b60008473ffffffffffffffffffffffffffffffffffffffff1673ffffffffffffffffffffffffffffffffffffffff168152602001908152602001600020819055503373ffffffffffffffffffffffffffffffffffffffff168273ffffffffffffffffffffffffffffffffffffffff167f60f99d53b11182f64116ffb8b46848a60b4ba4321be11d873e8e03ea42741d688342604051613832929190613fb5565b60405180910390a35050565b600f6020528060005260406000206000915090508060000160009054906101000a900473ffffffffffffffffffffffffffffffffffffffff16908060010154908060020154908060030160009054906101000a900460ff16905084565b600960003373ffffffffffffffffffffffffffffffffffffffff1673ffffffffffffffffffffffffffffffffffffffff16815260200190815260200160002060009054906101000a900460ff168061392557503373ffffffffffffffffffffffffffffffffffffffff1661390d612e71565b73ffffffffffffffffffffffffffffffffffffffff16145b613964576040517f08c379a000000000000000000000000000000000000000000000000000000000815260040161395b9061464f565b60405180910390fd5b600a60008373ffffffffffffffffffffffffffffffffffffffff1673ffffffffffffffffffffffffffffffffffffffff16815260200190815260200160002060009054906101000a900460ff16156139f1576040517f08c379a00000000000000000000000000000000000000000000000000000000081526004016139e8906151fd565b60405180910390fd5b601160008373ffffffffffffffffffffffffffffffffffffffff1673ffffffffffffffffffffffffffffffffffffffff16815260200190815260200160002060009054906101000a900460ff1615613a7e576040517f08c379a0000000000000000000000000000000000000000000000000000000008152600401613a7590614b56565b60405180910390fd5b60016000815480929190613a91906144b6565b91905055506001600a60008473ffffffffffffffffffffffffffffffffffffffff1673ffffffffffffffffffffffffffffffffffffffff16815260200190815260200160002060006101000a81548160ff02191690831515021790555080600b60008473ffffffffffffffffffffffffffffffffffffffff1673ffffffffffffffffffffffffffffffffffffffff168152602001908152602001600020819055508173ffffffffffffffffffffffffffffffffffffffff167ffb8f232b7a1d3d51060d32be9d6cf6808aa8f7dd043c8c20c4cfaf929ca9d48460405160405180910390a25050565b613b81613d2c565b600073ffffffffffffffffffffffffffffffffffffffff168173ffffffffffffffffffffffffffffffffffffffff1603613bf0576040517f08c379a0000000000000000000000000000000000000000000000000000000008152600401613be79061528f565b60405180910390fd5b613bf981613daa565b50565b600c6020528060005260406000206000915054906101000a900460ff1681565b60015481565b6000600860008473ffffffffffffffffffffffffffffffffffffffff1673ffffffffffffffffffffffffffffffffffffffff168152602001908152602001600020905060005b8180549050811015613d265782828281548110613c8857613c876144fe565b5b906000526020600020015403613d13578160018380549050613caa91906145cf565b81548110613cbb57613cba6144fe565b5b9060005260206000200154828281548110613cd957613cd86144fe565b5b906000526020600020018190555081805480613cf857613cf76152af565b5b60019003818190600052602060002001600090559055613d26565b8080613d1e906144b6565b915050613c68565b50505050565b613d34613e6e565b73ffffffffffffffffffffffffffffffffffffffff16613d52612e71565b73ffffffffffffffffffffffffffffffffffffffff1614613da8576040517f08c379a0000000000000000000000000000000000000000000000000000000008152600401613d9f9061532a565b60405180910390fd5b565b60008060009054906101000a900473ffffffffffffffffffffffffffffffffffffffff169050816000806101000a81548173ffffffffffffffffffffffffffffffffffffffff021916908373ffffffffffffffffffffffffffffffffffffffff1602179055508173ffffffffffffffffffffffffffffffffffffffff168173ffffffffffffffffffffffffffffffffffffffff167f8be0079c531659141344cd1fd0a4f28419497f9722a3daafe3b4186f6b6457e060405160405180910390a35050565b600033905090565b6000604051905090565b600080fd5b600080fd5b600073ffffffffffffffffffffffffffffffffffffffff82169050919050565b6000613eb582613e8a565b9050919050565b613ec581613eaa565b8114613ed057600080fd5b50565b600081359050613ee281613ebc565b92915050565b6000819050919050565b613efb81613ee8565b8114613f0657600080fd5b50565b600081359050613f1881613ef2565b92915050565b60008060408385031215613f3557613f34613e80565b5b6000613f4385828601613ed3565b9250506020613f5485828601613f09565b9150509250929050565b613f6781613ee8565b82525050565b6000602082019050613f826000830184613f5e565b92915050565b600060208284031215613f9e57613f9d613e80565b5b6000613fac84828501613ed3565b91505092915050565b6000604082019050613fca6000830185613f5e565b613fd76020830184613f5e565b9392505050565b60008115159050919050565b613ff381613fde565b82525050565b600060208201905061400e6000830184613fea565b92915050565b600081519050919050565b600082825260208201905092915050565b60005b8381101561404e578082015181840152602081019050614033565b60008484015250505050565b6000601f19601f8301169050919050565b600061407682614014565b614080818561401f565b9350614090818560208601614030565b6140998161405a565b840191505092915050565b600060208201905081810360008301526140be818461406b565b905092915050565b6000602082840312156140dc576140db613e80565b5b60006140ea84828501613f09565b91505092915050565b600081519050919050565b600082825260208201905092915050565b6000819050602082019050919050565b61412881613ee8565b82525050565b600061413a838361411f565b60208301905092915050565b6000602082019050919050565b600061415e826140f3565b61416881856140fe565b93506141738361410f565b8060005b838110156141a457815161418b888261412e565b975061419683614146565b925050600181019050614177565b5085935050505092915050565b600060208201905081810360008301526141cb8184614153565b905092915050565b6000806000606084860312156141ec576141eb613e80565b5b60006141fa86828701613ed3565b935050602061420b86828701613f09565b925050604061421c86828701613f09565b9150509250925092565b600080fd5b600080fd5b7f4e487b7100000000000000000000000000000000000000000000000000000000600052604160045260246000fd5b6142688261405a565b810181811067ffffffffffffffff8211171561428757614286614230565b5b80604052505050565b600061429a613e76565b90506142a6828261425f565b919050565b600067ffffffffffffffff8211156142c6576142c5614230565b5b6142cf8261405a565b9050602081019050919050565b82818337600083830152505050565b60006142fe6142f9846142ab565b614290565b90508281526020810184848401111561431a5761431961422b565b5b6143258482856142dc565b509392505050565b600082601f83011261434257614341614226565b5b81356143528482602086016142eb565b91505092915050565b6000806040838503121561437257614371613e80565b5b600061438085828601613ed3565b925050602083013567ffffffffffffffff8111156143a1576143a0613e85565b5b6143ad8582860161432d565b9150509250929050565b6143c081613eaa565b82525050565b60006020820190506143db60008301846143b7565b92915050565b600060c0820190506143f66000830189613f5e565b61440360208301886143b7565b6144106040830187613f5e565b61441d6060830186613f5e565b61442a60808301856143b7565b61443760a0830184613fea565b979650505050505050565b600060808201905061445760008301876143b7565b6144646020830186613f5e565b6144716040830185613f5e565b61447e6060830184613fea565b95945050505050565b7f4e487b7100000000000000000000000000000000000000000000000000000000600052601160045260246000fd5b60006144c182613ee8565b91507fffffffffffffffffffffffffffffffffffffffffffffffffffffffffffffffff82036144f3576144f2614487565b5b600182019050919050565b7f4e487b7100000000000000000000000000000000000000000000000000000000600052603260045260246000fd5b7f4e487b7100000000000000000000000000000000000000000000000000000000600052602260045260246000fd5b6000600282049050600182168061457457607f821691505b6020821081036145875761458661452d565b5b50919050565b600061459882613ee8565b91506145a383613ee8565b92508282026145b181613ee8565b915082820484148315176145c8576145c7614487565b5b5092915050565b60006145da82613ee8565b91506145e583613ee8565b92508282039050818111156145fd576145fc614487565b5b92915050565b7f4e6f7420616e2061646d696e0000000000000000000000000000000000000000600082015250565b6000614639600c8361401f565b915061464482614603565b602082019050919050565b600060208201905081810360008301526146688161462c565b9050919050565b7f41646472657373206973206e6f7420616e2061646d696e000000000000000000600082015250565b60006146a560178361401f565b91506146b08261466f565b602082019050919050565b600060208201905081810360008301526146d481614698565b9050919050565b60006146e682613ee8565b91506146f183613ee8565b925082820190508082111561470957614708614487565b5b92915050565b600061471a82613ee8565b91506000820361472d5761472c614487565b5b600182039050919050565b7f4163636f756e7420697320626c61636b6c697374656420666f7220616275736960008201527f76652073746f7261676500000000000000000000000000000000000000000000602082015250565b6000614794602a8361401f565b915061479f82614738565b604082019050919050565b600060208201905081810360008301526147c381614787565b9050919050565b7f496e73756666696369656e742073746f636b0000000000000000000000000000600082015250565b600061480060128361401f565b915061480b826147ca565b602082019050919050565b6000602082019050818103600083015261482f816147f3565b9050919050565b7f556e617574686f72697a6564207472616e736665720000000000000000000000600082015250565b600061486c60158361401f565b915061487782614836565b602082019050919050565b6000602082019050818103600083015261489b8161485f565b9050919050565b7f526563697069656e74206e6f7420617574686f72697a65640000000000000000600082015250565b60006148d860188361401f565b91506148e3826148a2565b602082019050919050565b60006020820190508181036000830152614907816148cb565b9050919050565b7f526563697069656e7420697320626c61636b6c697374656420666f722061627560008201527f736976652073746f726167650000000000000000000000000000000000000000602082015250565b600061496a602c8361401f565b91506149758261490e565b604082019050919050565b600060208201905081810360008301526149998161495d565b9050919050565b7f596f7520646f6e2774206f776e20746869732062617463680000000000000000600082015250565b60006149d660188361401f565b91506149e1826149a0565b602082019050919050565b60006020820190508181036000830152614a05816149c9565b9050919050565b7f496e73756666696369656e74207175616e7469747920696e2062617463680000600082015250565b6000614a42601e8361401f565b9150614a4d82614a0c565b602082019050919050565b60006020820190508181036000830152614a7181614a35565b9050919050565b7f4164647265737320697320616c726561647920612070726f6475636572000000600082015250565b6000614aae601d8361401f565b9150614ab982614a78565b602082019050919050565b60006020820190508181036000830152614add81614aa1565b9050919050565b7f4164647265737320697320626c61636b6c697374656420666f7220616275736960008201527f76652073746f7261676500000000000000000000000000000000000000000000602082015250565b6000614b40602a8361401f565b9150614b4b82614ae4565b604082019050919050565b60006020820190508181036000830152614b6f81614b33565b9050919050565b60008190508160005260206000209050919050565b60006020601f8301049050919050565b600082821b905092915050565b600060088302614bd87fffffffffffffffffffffffffffffffffffffffffffffffffffffffffffffffff82614b9b565b614be28683614b9b565b95508019841693508086168417925050509392505050565b6000819050919050565b6000614c1f614c1a614c1584613ee8565b614bfa565b613ee8565b9050919050565b6000819050919050565b614c3983614c04565b614c4d614c4582614c26565b848454614ba8565b825550505050565b600090565b614c62614c55565b614c6d818484614c30565b505050565b5b81811015614c9157614c86600082614c5a565b600181019050614c73565b5050565b601f821115614cd657614ca781614b76565b614cb084614b8b565b81016020851015614cbf578190505b614cd3614ccb85614b8b565b830182614c72565b50505b505050565b600082821c905092915050565b6000614cf960001984600802614cdb565b1980831691505092915050565b6000614d128383614ce8565b9150826002028217905092915050565b614d2b82614014565b67ffffffffffffffff811115614d4457614d43614230565b5b614d4e825461455c565b614d59828285614c95565b600060209050601f831160018114614d8c5760008415614d7a578287015190505b614d848582614d06565b865550614dec565b601f198416614d9a86614b76565b60005b82811015614dc257848901518255600182019150602085019450602081019050614d9d565b86831015614ddf5784890151614ddb601f891682614ce8565b8355505b6001600288020188555050505b505050505050565b7f41646472657373206973206e6f7420612070726f647563657200000000000000600082015250565b6000614e2a60198361401f565b9150614e3582614df4565b602082019050919050565b60006020820190508181036000830152614e5981614e1d565b9050919050565b7f5468726573686f6c64206d7573742062652067726561746572207468616e207a60008201527f65726f0000000000000000000000000000000000000000000000000000000000602082015250565b6000614ebc60238361401f565b9150614ec782614e60565b604082019050919050565b60006020820190508181036000830152614eeb81614eaf565b9050919050565b7f41646472657373206973206e6f7420626c61636b6c6973746564000000000000600082015250565b6000614f28601a8361401f565b9150614f3382614ef2565b602082019050919050565b60006020820190508181036000830152614f5781614f1b565b9050919050565b7f4e6f7420616e20617574686f72697a65642070726f6475636572000000000000600082015250565b6000614f94601a8361401f565b9150614f9f82614f5e565b602082019050919050565b60006020820190508181036000830152614fc381614f87565b9050919050565b6000606082019050614fdf6000830186613f5e565b614fec6020830185613f5e565b614ff96040830184613f5e565b949350505050565b7f4164647265737320697320616c726561647920616e2061646d696e0000000000600082015250565b6000615037601b8361401f565b915061504282615001565b602082019050919050565b600060208201905081810360008301526150668161502a565b9050919050565b7f41646472657373206973206e6f74206120726573656c6c657200000000000000600082015250565b60006150a360198361401f565b91506150ae8261506d565b602082019050919050565b600060208201905081810360008301526150d281615096565b9050919050565b7f56696f6c6174696f6e20646f6573206e6f742065786973740000000000000000600082015250565b600061510f60188361401f565b915061511a826150d9565b602082019050919050565b6000602082019050818103600083015261513e81615102565b9050919050565b7f56696f6c6174696f6e20616c7265616479207265736f6c766564000000000000600082015250565b600061517b601a8361401f565b915061518682615145565b602082019050919050565b600060208201905081810360008301526151aa8161516e565b9050919050565b7f4164647265737320697320616c7265616479206120726573656c6c6572000000600082015250565b60006151e7601d8361401f565b91506151f2826151b1565b602082019050919050565b60006020820190508181036000830152615216816151da565b9050919050565b7f4f776e61626c653a206e6577206f776e657220697320746865207a65726f206160008201527f6464726573730000000000000000000000000000000000000000000000000000602082015250565b600061527960268361401f565b91506152848261521d565b604082019050919050565b600060208201905081810360008301526152a88161526c565b9050919050565b7f4e487b7100000000000000000000000000000000000000000000000000000000600052603160045260246000fd5b7f4f776e61626c653a2063616c6c6572206973206e6f7420746865206f776e6572600082015250565b600061531460208361401f565b915061531f826152de565b602082019050919050565b6000602082019050818103600083015261534381615307565b905091905056fea2646970667358221220a674a48377381d6df0bb045dd16fdd596709b5ce1137bac7ab9c1435db73576a64736f6c63430008130033",
  "immutableReferences": {},
  "source": "// SPDX-License-Identifier: MIT\r\npragma solidity ^0.8.19;\r\n\r\nimport \"@openzeppelin/contracts/access/Ownable.sol\";\r\n\r\n\r\ncontract MilkSupplyChain is Ownable {\r\n    struct Batch {\r\n        uint256 id;\r\n        address producer;\r\n        uint256 quantity;\r\n        uint256 timestamp;\r\n        address currentOwner;\r\n        bool expired;\r\n    }\r\n    \r\n    struct StorageViolation {\r\n        address holder;\r\n        uint256 batchId;\r\n        uint256 detectionTime;\r\n        bool resolved;\r\n    }\r\n    struct Position{\r\n        uint256 latitude;\r\n        uint256 longitude;\r\n    }\r\n\r\n    uint256 public totalResellers=0;\r\n    uint256 public totalProducers=0;\r\n    \r\n    uint256 public maxStorageDuration = 30 days;\r\n    uint256 public nextBatchId;\r\n    uint256 public nextViolationId;\r\n    \r\n    mapping(uint256 => Batch) public batches;\r\n    mapping(address => uint256) public stockBalance;\r\n    mapping(address => uint256[]) public batchesByOwner;\r\n    \r\n    // Role management\r\n    mapping(address => bool) public isAdmin;\r\n    mapping(address => bool) public isReseller;\r\n    mapping(address => uint256) public maxQuantityPerReseller;\r\n    mapping(address => bool) public isProducer;\r\n    mapping(address => string) public addressName;\r\n    mapping(address=> Position) public addressPosition;\r\n    // mappings mtaa violations\r\n    mapping(uint256 => StorageViolation) public violations;\r\n    mapping(address => uint256[]) public violationsByHolder;\r\n    mapping(address => bool) public blacklistedHolders;\r\n    uint256 public violationThreshold = 3; // 9d'h men violation 9bal me yetbanna\r\n    \r\n    // Events\r\n    event Produced(uint256 batchId, address indexed producer, uint256 quantity, uint256 timestamp);\r\n    event ResellerChanged(address indexed reseller, address indexed admin, uint256 maxQuantity, uint256 timestamp);\r\n    event Transferred(address indexed from, address indexed to, uint256 quantity, uint256 batchId);\r\n    event AdminAdded(address indexed admin);\r\n    event AdminRemoved(address indexed admin);\r\n    event ResellerAdded(address indexed reseller);\r\n    event ProducerAdded(address indexed producer);\r\n    event ResellerRemoved(address indexed reseller);\r\n    event ProducerRemoved(address indexed producer);\r\n    event BatchExpired(uint256 indexed batchId, address indexed owner, uint256 expiryTime);\r\n    event MaxStorageDurationChanged(uint256 oldDuration, uint256 newDuration);\r\n    event AbusiveStorageDetected(uint256 indexed violationId, address indexed holder, uint256 indexed batchId, uint256 detectionTime);\r\n    event ViolationResolved(uint256 indexed violationId, address indexed resolver);\r\n    event HolderBlacklisted(address indexed holder, uint256 violationCount);\r\n    event HolderRemovedFromBlacklist(address indexed holder);\r\n    event ViolationThresholdChanged(uint256 oldThreshold, uint256 newThreshold);\r\n    \r\n    modifier onlyAdmin() {\r\n        require(isAdmin[msg.sender] || owner() == msg.sender, \"Not an admin\");\r\n        _;\r\n    }\r\n    \r\n    modifier onlyProducer() {\r\n        require(isProducer[msg.sender], \"Not an authorized producer\");\r\n        _;\r\n    }\r\n    \r\n    modifier onlyReseller() {\r\n        require(isReseller[msg.sender], \"Not an authorized reseller\");\r\n        _;\r\n    }\r\n    \r\n    modifier notBlacklisted() {\r\n        require(!blacklistedHolders[msg.sender], \"Account is blacklisted for abusive storage\");\r\n        _;\r\n\r\n    }\r\n    constructor() {\r\n    _transferOwnership(msg.sender);\r\n    isAdmin[msg.sender] = true;\r\n    emit AdminAdded(msg.sender);\r\n}\r\n\r\n    \r\n    function addAdmin(address account) external onlyAdmin {\r\n        require(!isAdmin[account], \"Address is already an admin\");\r\n        isAdmin[account] = true;\r\n        emit AdminAdded(account);\r\n    }\r\n    \r\n    function removeAdmin(address account) external onlyAdmin {\r\n        require(isAdmin[account], \"Address is not an admin\");\r\n        isAdmin[account] = false;\r\n        emit AdminRemoved(account);\r\n    }\r\n    \r\n    function setReseller(address account, uint256 maxQuantity) external onlyAdmin {\r\n        require(!isReseller[account], \"Address is already a reseller\");\r\n        require(!blacklistedHolders[account], \"Address is blacklisted for abusive storage\");\r\n        totalResellers++;\r\n        isReseller[account] = true;\r\n        maxQuantityPerReseller[account] = maxQuantity;\r\n        emit ResellerAdded(account);\r\n    }\r\n    \r\n    function changeMaxQuantityReseller(address account, uint256 maxQuantity) external onlyAdmin {\r\n        require(isReseller[account], \"Address is not a reseller\");\r\n        maxQuantityPerReseller[account] = maxQuantity;\r\n        emit ResellerChanged(account, msg.sender, maxQuantity, block.timestamp);\r\n    }\r\n    \r\n    function removeReseller(address account) external onlyAdmin {\r\n        require(isReseller[account], \"Address is not a reseller\");\r\n        isReseller[account] = false;\r\n        totalResellers--;\r\n        emit ResellerRemoved(account);\r\n    }\r\n    \r\n    function setProducer(address account) external onlyAdmin {\r\n        require(!isProducer[account], \"Address is already a producer\");\r\n        require(!blacklistedHolders[account], \"Address is blacklisted for abusive storage\");\r\n        isProducer[account] = true;\r\n        totalProducers++;\r\n        emit ProducerAdded(account);\r\n    }\r\n    \r\n    function removeProducer(address account) external onlyAdmin {\r\n        require(isProducer[account], \"Address is not a producer\");\r\n        isProducer[account] = false;\r\n        totalResellers--;\r\n        emit ProducerRemoved(account);\r\n    }\r\n    \r\n    function setMaxStorageDuration(uint256 newDuration) external onlyAdmin {\r\n        uint256 oldDuration = maxStorageDuration;\r\n        maxStorageDuration = newDuration;\r\n        emit MaxStorageDurationChanged(oldDuration, newDuration);\r\n    }\r\n    \r\n    function setViolationThreshold(uint256 newThreshold) external onlyAdmin {\r\n        require(newThreshold > 0, \"Threshold must be greater than zero\");\r\n        uint256 oldThreshold = violationThreshold;\r\n        violationThreshold = newThreshold;\r\n        emit ViolationThresholdChanged(oldThreshold, newThreshold);\r\n    }\r\n    \r\n    function produce(uint256 quantity) external onlyProducer notBlacklisted {\r\n        uint256 batchId = nextBatchId++;\r\n        batches[batchId] = Batch({\r\n            id: batchId,\r\n            producer: msg.sender,\r\n            quantity: quantity,\r\n            timestamp: block.timestamp,\r\n            currentOwner: msg.sender,\r\n            expired: false\r\n        });\r\n        \r\n        stockBalance[msg.sender] += quantity;\r\n        batchesByOwner[msg.sender].push(batchId);\r\n        \r\n        emit Produced(batchId, msg.sender, quantity, block.timestamp);\r\n    }\r\n    \r\n    function transferStock(address to, uint256 amount, uint256 batchId) external notBlacklisted {\r\n        require(stockBalance[msg.sender] >= amount, \"Insufficient stock\");\r\n        require(isProducer[msg.sender] || isReseller[msg.sender], \"Unauthorized transfer\");\r\n        require(isReseller[to], \"Recipient not authorized\");\r\n        require(!blacklistedHolders[to], \"Recipient is blacklisted for abusive storage\");\r\n        require(batches[batchId].currentOwner == msg.sender, \"You don't own this batch\");\r\n        require(batches[batchId].quantity >= amount, \"Insufficient quantity in batch\");\r\n        \r\n        // Check for abusive storage\r\n        checkForAbusiveStorage(batchId);\r\n        \r\n        if (amount == batches[batchId].quantity) {\r\n            // ken kad eli talbou kad fil batch aatih elbatch\r\n            batches[batchId].currentOwner = to;\r\n            removeBatchFromOwner(msg.sender, batchId);\r\n            batchesByOwner[to].push(batchId);\r\n        } else {\r\n            // snn aamel batch jdid nafs eldonnee\r\n            //quantite kad eli tablou\r\n            uint256 newBatchId = nextBatchId++;\r\n            batches[newBatchId] = Batch({\r\n                id: newBatchId,\r\n                producer: batches[batchId].producer,\r\n                quantity: amount,\r\n                timestamp: batches[batchId].timestamp, \r\n                currentOwner: to,\r\n                expired: false\r\n            });\r\n            \r\n            // mise ajour batch original\r\n            batches[batchId].quantity -= amount;\r\n            \r\n            // aatih lil jdid\r\n            batchesByOwner[to].push(newBatchId);\r\n        }\r\n        \r\n        stockBalance[msg.sender] -= amount;\r\n        stockBalance[to] += amount;\r\n        \r\n        emit Transferred(msg.sender, to, amount, batchId);\r\n    }\r\n    \r\n    function checkForAbusiveStorage(uint256 batchId) public returns (bool) {\r\n        Batch storage batch = batches[batchId];\r\n        \r\n        if (block.timestamp > batch.timestamp + maxStorageDuration) {\r\n            // Report violation\r\n            uint256 violationId = nextViolationId++;\r\n            violations[violationId] = StorageViolation({\r\n                holder: batch.currentOwner,\r\n                batchId: batchId,\r\n                detectionTime: block.timestamp,\r\n                resolved: false\r\n            });\r\n            if(isProducer[batch.currentOwner]){\r\n                totalProducers--;\r\n            }\r\n            if(isReseller[batch.currentOwner]){\r\n                totalResellers--;\r\n            }\r\n            violationsByHolder[batch.currentOwner].push(violationId);\r\n            \r\n            emit AbusiveStorageDetected(violationId, batch.currentOwner, batchId, block.timestamp);\r\n            \r\n            // holder  blacklisted??\r\n            if (violationsByHolder[batch.currentOwner].length >= violationThreshold) {\r\n                blacklistedHolders[batch.currentOwner] = true;\r\n                emit HolderBlacklisted(batch.currentOwner, violationsByHolder[batch.currentOwner].length);\r\n            }\r\n            \r\n            return true;\r\n        }\r\n        \r\n        return false;\r\n    }\r\n    \r\n    function resolveViolation(uint256 violationId) external onlyAdmin {\r\n        require(violationId < nextViolationId, \"Violation does not exist\");\r\n        require(!violations[violationId].resolved, \"Violation already resolved\");\r\n        \r\n        violations[violationId].resolved = true;\r\n        emit ViolationResolved(violationId, msg.sender);\r\n    }\r\n    \r\n    function removeFromBlacklist(address holder) external onlyAdmin {\r\n        require(blacklistedHolders[holder], \"Address is not blacklisted\");\r\n        blacklistedHolders[holder] = false;\r\n        emit HolderRemovedFromBlacklist(holder);\r\n    }\r\n    \r\n    function checkAllBatchesForAbusiveStorage() external returns (uint256) {\r\n        uint256 violationCount = 0;\r\n        \r\n        for (uint256 i = 0; i < nextBatchId; i++) {\r\n            if (batches[i].quantity > 0) {\r\n                if (checkForAbusiveStorage(i)) {\r\n                    violationCount++;\r\n                }\r\n            }\r\n        }\r\n        \r\n        return violationCount;\r\n    }\r\n    \r\n    function getActiveViolationsByHolder(address holder) external view returns (uint256[] memory) {\r\n        uint256[] storage allViolations = violationsByHolder[holder];\r\n        uint256 activeCount = 0;\r\n        \r\n        // Count active violations\r\n        for (uint256 i = 0; i < allViolations.length; i++) {\r\n            if (!violations[allViolations[i]].resolved) {\r\n                activeCount++;\r\n            }\r\n        }\r\n        \r\n        // Create result array\r\n        uint256[] memory activeViolations = new uint256[](activeCount);\r\n        uint256 index = 0;\r\n        \r\n        // Populate result array\r\n        for (uint256 i = 0; i < allViolations.length; i++) {\r\n            if (!violations[allViolations[i]].resolved) {\r\n                activeViolations[index] = allViolations[i];\r\n                index++;\r\n            }\r\n        }\r\n        \r\n        return activeViolations;\r\n    }\r\n    \r\n    function getBatchesNearingViolation(uint256 daysThreshold) external view returns (uint256[] memory) {\r\n        uint256 warningTime = maxStorageDuration - (daysThreshold * 1 days);\r\n        uint256 count = 0;\r\n        \r\n        // Count qualifying batches\r\n        for (uint256 i = 0; i < nextBatchId; i++) {\r\n            if (batches[i].quantity > 0) {\r\n                uint256 batchAge = block.timestamp - batches[i].timestamp;\r\n                if (batchAge > warningTime && batchAge <= maxStorageDuration) {\r\n                    count++;\r\n                }\r\n            }\r\n        }\r\n        \r\n        // Create result array\r\n        uint256[] memory warningBatches = new uint256[](count);\r\n        uint256 index = 0;\r\n        \r\n        // Populate result array\r\n        for (uint256 i = 0; i < nextBatchId; i++) {\r\n            if (batches[i].quantity > 0) {\r\n                uint256 batchAge = block.timestamp - batches[i].timestamp;\r\n                if (batchAge > warningTime && batchAge <= maxStorageDuration) {\r\n                    warningBatches[index] = i;\r\n                    index++;\r\n                }\r\n            }\r\n        }\r\n        \r\n        return warningBatches;\r\n    }\r\n    \r\n    function getBatchesByOwner(address owner) external view returns (uint256[] memory) {\r\n        return batchesByOwner[owner];\r\n    }\r\n    \r\n    function removeBatchFromOwner(address owner, uint256 batchId) private {\r\n        uint256[] storage ownerBatches = batchesByOwner[owner];\r\n        for (uint256 i = 0; i < ownerBatches.length; i++) {\r\n            if (ownerBatches[i] == batchId) {\r\n                // Replace with last element and pop\r\n                ownerBatches[i] = ownerBatches[ownerBatches.length - 1];\r\n                ownerBatches.pop();\r\n                break;\r\n            }\r\n        }\r\n    }\r\n    \r\n    function isHolderViolatingStorageRules(address holder) external view returns (bool) {\r\n        uint256[] storage holderViolations = violationsByHolder[holder];\r\n        uint256 activeViolations = 0;\r\n        \r\n        for (uint256 i = 0; i < holderViolations.length; i++) {\r\n            if (!violations[holderViolations[i]].resolved) {\r\n                activeViolations++;\r\n            }\r\n        }\r\n        \r\n        return activeViolations > 0;\r\n    }\r\n\r\n    function getRole(address account) external view returns (string memory) {\r\n        if (isAdmin[account]) return \"admin\";\r\n        if (isProducer[account]) return \"producer\";\r\n        if (isReseller[account]) return \"reseller\";\r\n        return \"unknown\";\r\n    }\r\n    function setPosition(address account,uint256 latitude,uint256 longitude) external {\r\n        require(isAdmin[msg.sender], \"Address is not an admin\");\r\n        addressPosition[account].latitude=latitude;\r\n        addressPosition[account].longitude=longitude;\r\n    }\r\n    function setName(address account, string memory name)public {\r\n        require(isAdmin[msg.sender], \"Address is not an admin\");\r\n        addressName[account]=name;\r\n    }\r\n}",
  "sourcePath": "D:\\vsc\\.vscode\\rn\\abusive-storage-detection\\contracts\\MilkSupplyChain.sol",
  "compiler": {
    "name": "solc",
    "version": "0.8.19+commit.7dd6d404.Emscripten.clang"
  },
  "schemaVersion": "3.4.16",
  "updatedAt": "2025-04-28T10:09:16.806Z",
  "networkType": "ethereum",
  "devdoc": {
    "kind": "dev",
    "methods": {
      "owner()": {
        "details": "Returns the address of the current owner."
      },
      "renounceOwnership()": {
        "details": "Leaves the contract without owner. It will not be possible to call `onlyOwner` functions. Can only be called by the current owner. NOTE: Renouncing ownership will leave the contract without an owner, thereby disabling any functionality that is only available to the owner."
      },
      "transferOwnership(address)": {
        "details": "Transfers ownership of the contract to a new account (`newOwner`). Can only be called by the current owner."
      }
    },
    "version": 1
  },
  "userdoc": {
    "kind": "user",
    "methods": {},
    "version": 1
  }
}