{
  "contractName": "MilkSupplyChain",
  "abi": [
    {
      "inputs": [],
      "stateMutability": "nonpayable",
      "type": "constructor"
    },
    {
      "anonymous": false,
      "inputs": [
        {
          "indexed": true,
          "internalType": "uint256",
          "name": "violationId",
          "type": "uint256"
        },
        {
          "indexed": true,
          "internalType": "address",
          "name": "holder",
          "type": "address"
        },
        {
          "indexed": true,
          "internalType": "uint256",
          "name": "batchId",
          "type": "uint256"
        },
        {
          "indexed": false,
          "internalType": "uint256",
          "name": "detectionTime",
          "type": "uint256"
        }
      ],
      "name": "AbusiveStorageDetected",
      "type": "event"
    },
    {
      "anonymous": false,
      "inputs": [
        {
          "indexed": true,
          "internalType": "address",
          "name": "admin",
          "type": "address"
        }
      ],
      "name": "AdminAdded",
      "type": "event"
    },
    {
      "anonymous": false,
      "inputs": [
        {
          "indexed": true,
          "internalType": "address",
          "name": "admin",
          "type": "address"
        }
      ],
      "name": "AdminRemoved",
      "type": "event"
    },
    {
      "anonymous": false,
      "inputs": [
        {
          "indexed": true,
          "internalType": "uint256",
          "name": "batchId",
          "type": "uint256"
        },
        {
          "indexed": true,
          "internalType": "address",
          "name": "owner",
          "type": "address"
        },
        {
          "indexed": false,
          "internalType": "uint256",
          "name": "expiryTime",
          "type": "uint256"
        }
      ],
      "name": "BatchExpired",
      "type": "event"
    },
    {
      "anonymous": false,
      "inputs": [
        {
          "indexed": true,
          "internalType": "address",
          "name": "holder",
          "type": "address"
        },
        {
          "indexed": false,
          "internalType": "uint256",
          "name": "violationCount",
          "type": "uint256"
        }
      ],
      "name": "HolderBlacklisted",
      "type": "event"
    },
    {
      "anonymous": false,
      "inputs": [
        {
          "indexed": true,
          "internalType": "address",
          "name": "holder",
          "type": "address"
        }
      ],
      "name": "HolderRemovedFromBlacklist",
      "type": "event"
    },
    {
      "anonymous": false,
      "inputs": [
        {
          "indexed": false,
          "internalType": "uint256",
          "name": "oldDuration",
          "type": "uint256"
        },
        {
          "indexed": false,
          "internalType": "uint256",
          "name": "newDuration",
          "type": "uint256"
        }
      ],
      "name": "MaxStorageDurationChanged",
      "type": "event"
    },
    {
      "anonymous": false,
      "inputs": [
        {
          "indexed": true,
          "internalType": "address",
          "name": "previousOwner",
          "type": "address"
        },
        {
          "indexed": true,
          "internalType": "address",
          "name": "newOwner",
          "type": "address"
        }
      ],
      "name": "OwnershipTransferred",
      "type": "event"
    },
    {
      "anonymous": false,
      "inputs": [
        {
          "indexed": false,
          "internalType": "uint256",
          "name": "batchId",
          "type": "uint256"
        },
        {
          "indexed": true,
          "internalType": "address",
          "name": "producer",
          "type": "address"
        },
        {
          "indexed": false,
          "internalType": "uint256",
          "name": "quantity",
          "type": "uint256"
        },
        {
          "indexed": false,
          "internalType": "uint256",
          "name": "timestamp",
          "type": "uint256"
        }
      ],
      "name": "Produced",
      "type": "event"
    },
    {
      "anonymous": false,
      "inputs": [
        {
          "indexed": true,
          "internalType": "address",
          "name": "producer",
          "type": "address"
        }
      ],
      "name": "ProducerAdded",
      "type": "event"
    },
    {
      "anonymous": false,
      "inputs": [
        {
          "indexed": true,
          "internalType": "address",
          "name": "producer",
          "type": "address"
        }
      ],
      "name": "ProducerRemoved",
      "type": "event"
    },
    {
      "anonymous": false,
      "inputs": [
        {
          "indexed": true,
          "internalType": "address",
          "name": "reseller",
          "type": "address"
        }
      ],
      "name": "ResellerAdded",
      "type": "event"
    },
    {
      "anonymous": false,
      "inputs": [
        {
          "indexed": true,
          "internalType": "address",
          "name": "reseller",
          "type": "address"
        },
        {
          "indexed": true,
          "internalType": "address",
          "name": "admin",
          "type": "address"
        },
        {
          "indexed": false,
          "internalType": "uint256",
          "name": "maxQuantity",
          "type": "uint256"
        },
        {
          "indexed": false,
          "internalType": "uint256",
          "name": "timestamp",
          "type": "uint256"
        }
      ],
      "name": "ResellerChanged",
      "type": "event"
    },
    {
      "anonymous": false,
      "inputs": [
        {
          "indexed": true,
          "internalType": "address",
          "name": "reseller",
          "type": "address"
        }
      ],
      "name": "ResellerRemoved",
      "type": "event"
    },
    {
      "anonymous": false,
      "inputs": [
        {
          "indexed": true,
          "internalType": "address",
          "name": "from",
          "type": "address"
        },
        {
          "indexed": true,
          "internalType": "address",
          "name": "to",
          "type": "address"
        },
        {
          "indexed": false,
          "internalType": "uint256",
          "name": "quantity",
          "type": "uint256"
        },
        {
          "indexed": false,
          "internalType": "uint256",
          "name": "batchId",
          "type": "uint256"
        }
      ],
      "name": "Transferred",
      "type": "event"
    },
    {
      "anonymous": false,
      "inputs": [
        {
          "indexed": true,
          "internalType": "uint256",
          "name": "violationId",
          "type": "uint256"
        },
        {
          "indexed": true,
          "internalType": "address",
          "name": "resolver",
          "type": "address"
        }
      ],
      "name": "ViolationResolved",
      "type": "event"
    },
    {
      "anonymous": false,
      "inputs": [
        {
          "indexed": false,
          "internalType": "uint256",
          "name": "oldThreshold",
          "type": "uint256"
        },
        {
          "indexed": false,
          "internalType": "uint256",
          "name": "newThreshold",
          "type": "uint256"
        }
      ],
      "name": "ViolationThresholdChanged",
      "type": "event"
    },
    {
      "inputs": [
        {
          "internalType": "address",
          "name": "",
          "type": "address"
        }
      ],
      "name": "addressName",
      "outputs": [
        {
          "internalType": "string",
          "name": "",
          "type": "string"
        }
      ],
      "stateMutability": "view",
      "type": "function"
    },
    {
      "inputs": [
        {
          "internalType": "address",
          "name": "",
          "type": "address"
        }
      ],
      "name": "addressPosition",
      "outputs": [
        {
          "internalType": "uint256",
          "name": "latitude",
          "type": "uint256"
        },
        {
          "internalType": "uint256",
          "name": "longitude",
          "type": "uint256"
        }
      ],
      "stateMutability": "view",
      "type": "function"
    },
    {
      "inputs": [
        {
          "internalType": "uint256",
          "name": "",
          "type": "uint256"
        }
      ],
      "name": "batches",
      "outputs": [
        {
          "internalType": "uint256",
          "name": "id",
          "type": "uint256"
        },
        {
          "internalType": "address",
          "name": "producer",
          "type": "address"
        },
        {
          "internalType": "uint256",
          "name": "quantity",
          "type": "uint256"
        },
        {
          "internalType": "uint256",
          "name": "timestamp",
          "type": "uint256"
        },
        {
          "internalType": "address",
          "name": "currentOwner",
          "type": "address"
        },
        {
          "internalType": "bool",
          "name": "expired",
          "type": "bool"
        }
      ],
      "stateMutability": "view",
      "type": "function"
    },
    {
      "inputs": [
        {
          "internalType": "address",
          "name": "",
          "type": "address"
        },
        {
          "internalType": "uint256",
          "name": "",
          "type": "uint256"
        }
      ],
      "name": "batchesByOwner",
      "outputs": [
        {
          "internalType": "uint256",
          "name": "",
          "type": "uint256"
        }
      ],
      "stateMutability": "view",
      "type": "function"
    },
    {
      "inputs": [
        {
          "internalType": "address",
          "name": "",
          "type": "address"
        }
      ],
      "name": "blacklistedHolders",
      "outputs": [
        {
          "internalType": "bool",
          "name": "",
          "type": "bool"
        }
      ],
      "stateMutability": "view",
      "type": "function"
    },
    {
      "inputs": [
        {
          "internalType": "address",
          "name": "",
          "type": "address"
        }
      ],
      "name": "isAdmin",
      "outputs": [
        {
          "internalType": "bool",
          "name": "",
          "type": "bool"
        }
      ],
      "stateMutability": "view",
      "type": "function"
    },
    {
      "inputs": [
        {
          "internalType": "address",
          "name": "",
          "type": "address"
        }
      ],
      "name": "isProducer",
      "outputs": [
        {
          "internalType": "bool",
          "name": "",
          "type": "bool"
        }
      ],
      "stateMutability": "view",
      "type": "function"
    },
    {
      "inputs": [
        {
          "internalType": "address",
          "name": "",
          "type": "address"
        }
      ],
      "name": "isReseller",
      "outputs": [
        {
          "internalType": "bool",
          "name": "",
          "type": "bool"
        }
      ],
      "stateMutability": "view",
      "type": "function"
    },
    {
      "inputs": [
        {
          "internalType": "address",
          "name": "",
          "type": "address"
        }
      ],
      "name": "maxQuantityPerReseller",
      "outputs": [
        {
          "internalType": "uint256",
          "name": "",
          "type": "uint256"
        }
      ],
      "stateMutability": "view",
      "type": "function"
    },
    {
      "inputs": [],
      "name": "maxStorageDuration",
      "outputs": [
        {
          "internalType": "uint256",
          "name": "",
          "type": "uint256"
        }
      ],
      "stateMutability": "view",
      "type": "function"
    },
    {
      "inputs": [],
      "name": "nextBatchId",
      "outputs": [
        {
          "internalType": "uint256",
          "name": "",
          "type": "uint256"
        }
      ],
      "stateMutability": "view",
      "type": "function"
    },
    {
      "inputs": [],
      "name": "nextViolationId",
      "outputs": [
        {
          "internalType": "uint256",
          "name": "",
          "type": "uint256"
        }
      ],
      "stateMutability": "view",
      "type": "function"
    },
    {
      "inputs": [],
      "name": "owner",
      "outputs": [
        {
          "internalType": "address",
          "name": "",
          "type": "address"
        }
      ],
      "stateMutability": "view",
      "type": "function"
    },
    {
      "inputs": [],
      "name": "renounceOwnership",
      "outputs": [],
      "stateMutability": "nonpayable",
      "type": "function"
    },
    {
      "inputs": [
        {
          "internalType": "address",
          "name": "",
          "type": "address"
        }
      ],
      "name": "stockBalance",
      "outputs": [
        {
          "internalType": "uint256",
          "name": "",
          "type": "uint256"
        }
      ],
      "stateMutability": "view",
      "type": "function"
    },
    {
      "inputs": [],
      "name": "totalProducers",
      "outputs": [
        {
          "internalType": "uint256",
          "name": "",
          "type": "uint256"
        }
      ],
      "stateMutability": "view",
      "type": "function"
    },
    {
      "inputs": [],
      "name": "totalResellers",
      "outputs": [
        {
          "internalType": "uint256",
          "name": "",
          "type": "uint256"
        }
      ],
      "stateMutability": "view",
      "type": "function"
    },
    {
      "inputs": [],
      "name": "totalViolations",
      "outputs": [
        {
          "internalType": "uint256",
          "name": "",
          "type": "uint256"
        }
      ],
      "stateMutability": "view",
      "type": "function"
    },
    {
      "inputs": [
        {
          "internalType": "address",
          "name": "newOwner",
          "type": "address"
        }
      ],
      "name": "transferOwnership",
      "outputs": [],
      "stateMutability": "nonpayable",
      "type": "function"
    },
    {
      "inputs": [],
      "name": "violationThreshold",
      "outputs": [
        {
          "internalType": "uint256",
          "name": "",
          "type": "uint256"
        }
      ],
      "stateMutability": "view",
      "type": "function"
    },
    {
      "inputs": [
        {
          "internalType": "uint256",
          "name": "",
          "type": "uint256"
        }
      ],
      "name": "violations",
      "outputs": [
        {
          "internalType": "enum MilkSupplyChain.ViolationType",
          "name": "violationType",
          "type": "uint8"
        },
        {
          "internalType": "address",
          "name": "holder",
          "type": "address"
        },
        {
          "internalType": "uint256",
          "name": "batchId",
          "type": "uint256"
        },
        {
          "internalType": "uint256",
          "name": "detectionTime",
          "type": "uint256"
        },
        {
          "internalType": "bool",
          "name": "resolved",
          "type": "bool"
        }
      ],
      "stateMutability": "view",
      "type": "function"
    },
    {
      "inputs": [
        {
          "internalType": "address",
          "name": "",
          "type": "address"
        },
        {
          "internalType": "uint256",
          "name": "",
          "type": "uint256"
        }
      ],
      "name": "violationsByHolder",
      "outputs": [
        {
          "internalType": "uint256",
          "name": "",
          "type": "uint256"
        }
      ],
      "stateMutability": "view",
      "type": "function"
    },
    {
      "inputs": [
        {
          "internalType": "address",
          "name": "account",
          "type": "address"
        }
      ],
      "name": "addAdmin",
      "outputs": [],
      "stateMutability": "nonpayable",
      "type": "function"
    },
    {
      "inputs": [
        {
          "internalType": "address",
          "name": "account",
          "type": "address"
        }
      ],
      "name": "removeAdmin",
      "outputs": [],
      "stateMutability": "nonpayable",
      "type": "function"
    },
    {
      "inputs": [
        {
          "internalType": "address",
          "name": "account",
          "type": "address"
        },
        {
          "internalType": "uint256",
          "name": "maxQuantity",
          "type": "uint256"
        }
      ],
      "name": "setReseller",
      "outputs": [],
      "stateMutability": "nonpayable",
      "type": "function"
    },
    {
      "inputs": [
        {
          "internalType": "address",
          "name": "account",
          "type": "address"
        },
        {
          "internalType": "uint256",
          "name": "maxQuantity",
          "type": "uint256"
        }
      ],
      "name": "changeMaxQuantityReseller",
      "outputs": [],
      "stateMutability": "nonpayable",
      "type": "function"
    },
    {
      "inputs": [
        {
          "internalType": "address",
          "name": "account",
          "type": "address"
        }
      ],
      "name": "removeReseller",
      "outputs": [],
      "stateMutability": "nonpayable",
      "type": "function"
    },
    {
      "inputs": [
        {
          "internalType": "address",
          "name": "account",
          "type": "address"
        }
      ],
      "name": "setProducer",
      "outputs": [],
      "stateMutability": "nonpayable",
      "type": "function"
    },
    {
      "inputs": [
        {
          "internalType": "address",
          "name": "account",
          "type": "address"
        }
      ],
      "name": "removeProducer",
      "outputs": [],
      "stateMutability": "nonpayable",
      "type": "function"
    },
    {
      "inputs": [
        {
          "internalType": "uint256",
          "name": "newDuration",
          "type": "uint256"
        }
      ],
      "name": "setMaxStorageDuration",
      "outputs": [],
      "stateMutability": "nonpayable",
      "type": "function"
    },
    {
      "inputs": [
        {
          "internalType": "uint256",
          "name": "newThreshold",
          "type": "uint256"
        }
      ],
      "name": "setViolationThreshold",
      "outputs": [],
      "stateMutability": "nonpayable",
      "type": "function"
    },
    {
      "inputs": [
        {
          "internalType": "uint256",
          "name": "quantity",
          "type": "uint256"
        }
      ],
      "name": "produce",
      "outputs": [],
      "stateMutability": "nonpayable",
      "type": "function"
    },
    {
      "inputs": [
        {
          "internalType": "address",
          "name": "to",
          "type": "address"
        },
        {
          "internalType": "uint256",
          "name": "amount",
          "type": "uint256"
        },
        {
          "internalType": "uint256",
          "name": "batchId",
          "type": "uint256"
        }
      ],
      "name": "transferStock",
      "outputs": [],
      "stateMutability": "nonpayable",
      "type": "function"
    },
    {
      "inputs": [
        {
          "internalType": "uint256",
          "name": "batchId",
          "type": "uint256"
        }
      ],
      "name": "checkForAbusiveStorage",
      "outputs": [
        {
          "internalType": "bool",
          "name": "",
          "type": "bool"
        }
      ],
      "stateMutability": "nonpayable",
      "type": "function"
    },
    {
      "inputs": [
        {
          "internalType": "uint256",
          "name": "violationId",
          "type": "uint256"
        }
      ],
      "name": "resolveViolation",
      "outputs": [],
      "stateMutability": "nonpayable",
      "type": "function"
    },
    {
      "inputs": [
        {
          "internalType": "address",
          "name": "holder",
          "type": "address"
        }
      ],
      "name": "removeFromBlacklist",
      "outputs": [],
      "stateMutability": "nonpayable",
      "type": "function"
    },
    {
      "inputs": [],
      "name": "checkAllBatchesForAbusiveStorage",
      "outputs": [],
      "stateMutability": "nonpayable",
      "type": "function"
    },
    {
      "inputs": [
        {
          "internalType": "address",
          "name": "holder",
          "type": "address"
        }
      ],
      "name": "getActiveViolationsByHolder",
      "outputs": [
        {
          "internalType": "uint256[]",
          "name": "",
          "type": "uint256[]"
        }
      ],
      "stateMutability": "view",
      "type": "function"
    },
    {
      "inputs": [
        {
          "internalType": "uint256",
          "name": "daysThreshold",
          "type": "uint256"
        }
      ],
      "name": "getBatchesNearingViolation",
      "outputs": [
        {
          "internalType": "uint256[]",
          "name": "",
          "type": "uint256[]"
        }
      ],
      "stateMutability": "view",
      "type": "function"
    },
    {
      "inputs": [
        {
          "internalType": "address",
          "name": "owner",
          "type": "address"
        }
      ],
      "name": "getBatchesByOwner",
      "outputs": [
        {
          "internalType": "uint256[]",
          "name": "",
          "type": "uint256[]"
        }
      ],
      "stateMutability": "view",
      "type": "function"
    },
    {
      "inputs": [
        {
          "internalType": "address",
          "name": "holder",
          "type": "address"
        }
      ],
      "name": "isHolderViolatingStorageRules",
      "outputs": [
        {
          "internalType": "bool",
          "name": "",
          "type": "bool"
        }
      ],
      "stateMutability": "view",
      "type": "function"
    },
    {
      "inputs": [
        {
          "internalType": "address",
          "name": "account",
          "type": "address"
        }
      ],
      "name": "getRole",
      "outputs": [
        {
          "internalType": "string",
          "name": "",
          "type": "string"
        }
      ],
      "stateMutability": "view",
      "type": "function"
    },
    {
      "inputs": [
        {
          "internalType": "address",
          "name": "account",
          "type": "address"
        },
        {
          "internalType": "uint256",
          "name": "latitude",
          "type": "uint256"
        },
        {
          "internalType": "uint256",
          "name": "longitude",
          "type": "uint256"
        }
      ],
      "name": "setPosition",
      "outputs": [],
      "stateMutability": "nonpayable",
      "type": "function"
    },
    {
      "inputs": [
        {
          "internalType": "address",
          "name": "account",
          "type": "address"
        },
        {
          "internalType": "string",
          "name": "name",
          "type": "string"
        }
      ],
      "name": "setName",
      "outputs": [],
      "stateMutability": "nonpayable",
      "type": "function"
    },
    {
      "inputs": [
        {
          "internalType": "address",
          "name": "holder",
          "type": "address"
        },
        {
          "internalType": "uint256",
          "name": "batchId",
          "type": "uint256"
        },
        {
          "internalType": "enum MilkSupplyChain.ViolationType",
          "name": "vType",
          "type": "uint8"
        }
      ],
      "name": "triggerFakeViolation",
      "outputs": [],
      "stateMutability": "nonpayable",
      "type": "function"
    },
    {
      "inputs": [
        {
          "internalType": "address",
          "name": "to",
          "type": "address"
        },
        {
          "internalType": "uint256",
          "name": "amount",
          "type": "uint256"
        },
        {
          "internalType": "uint256",
          "name": "batchId",
          "type": "uint256"
        }
      ],
      "name": "checkForQuantity",
      "outputs": [],
      "stateMutability": "nonpayable",
      "type": "function"
    },
    {
      "inputs": [
        {
          "internalType": "address",
          "name": "holder",
          "type": "address"
        }
      ],
      "name": "blacklistManually",
      "outputs": [],
      "stateMutability": "nonpayable",
      "type": "function"
    }
  ],
  "bytecode": "0x608060405260006001556000600255600060035562278d0060045560036013553480156200002c57600080fd5b50620000383362000089565b620000433362000089565b336000818152600a6020526040808220805460ff19166001179055517f44d6d25963f097ad14f29f06854a01f575648a1ef82f30e562ccd3889717e3399190a2620000d9565b600080546001600160a01b038381166001600160a01b0319831681178455604051919092169283917f8be0079c531659141344cd1fd0a4f28419497f9722a3daafe3b4186f6b6457e09190a35050565b61313f80620000e96000396000f3fe608060405234801561001057600080fd5b50600436106102955760003560e01c80636d8ae74111610167578063a7223e3d116100ce578063d6fd623911610087578063d6fd6239146106dd578063e5ed7c0a146106e6578063ee76d5b0146106f9578063f2fde38b1461070c578063f55210221461071f578063fb8eb7c11461074257600080fd5b8063a7223e3d1461059f578063ad87dd26146105c2578063b2db6140146105d5578063b32c4d8d146105de578063b515eab314610670578063b995bb951461068357600080fd5b80638d8657cf116101205780638d8657cf1461051f5780638da5cb5b146105285780639af7825b146105435780639d06402014610556578063a10d9c9e14610569578063a20a2c001461058c57600080fd5b80636d8ae741146104bf57806370480275146104d2578063715018a6146104e557806379c21def146104ed5780637d3d75f0146104f65780638462a7f81461051657600080fd5b80632b38bafc1161020b57806342ae291b116101c457806342ae291b1461044d5780634427673314610460578063493cccde14610473578063500f8bc614610486578063537df3b61461049957806365da5603146104ac57600080fd5b80632b38bafc146103ce5780633121db1c146103e15780633156c3fd146103f457806338cf8821146104075780633f185b6c14610427578063416dd31a1461043a57600080fd5b806310c4d2d41161025d57806310c4d2d4146103495780631785f53c146103695780631de0e4801461037c5780632221e6671461038f57806324d7806c146103a25780632a7afa0d146103c557600080fd5b806301e820a91461029a57806305ece226146102c057806305f81763146102fc5780630ad6c469146103065780630ff2d21214610329575b600080fd5b6102ad6102a8366004612b51565b61074b565b6040519081526020015b60405180910390f35b6102e76102ce366004612b7b565b600f602052600090815260409020805460019091015482565b604080519283526020830191909152016102b7565b61030461077c565b005b610319610314366004612b7b565b6107d5565b60405190151581526020016102b7565b61033c610337366004612b7b565b61085f565b6040516102b79190612b9d565b61035c610357366004612beb565b6108f9565b6040516102b79190612c04565b610304610377366004612b7b565b610a80565b61031961038a366004612beb565b610b5d565b61030461039d366004612c48565b610dd7565b6103196103b0366004612b7b565b600a6020526000908152604090205460ff1681565b6102ad60135481565b6103046103dc366004612b7b565b611344565b6103046103ef366004612c91565b6114a6565b610304610402366004612d53565b6114fc565b6102ad610415366004612b7b565b60086020526000908152604090205481565b610304610435366004612b7b565b611726565b61035c610448366004612b7b565b61184b565b6102ad61045b366004612b51565b6118b7565b61033c61046e366004612b7b565b6118d3565b610304610481366004612beb565b6119c5565b610304610494366004612c48565b611aba565b6103046104a7366004612b7b565b611d16565b6103046104ba366004612beb565b611e1a565b6103046104cd366004612c48565b611fe7565b6103046104e0366004612b7b565b612038565b610304612140565b6102ad60045481565b6102ad610504366004612b7b565b600c6020526000908152604090205481565b6102ad60055481565b6102ad60065481565b6000546040516001600160a01b0390911681526020016102b7565b61035c610551366004612b7b565b612154565b610304610564366004612b7b565b6122c1565b610319610577366004612b7b565b600b6020526000908152604090205460ff1681565b61030461059a366004612beb565b6123e2565b6103196105ad366004612b7b565b60126020526000908152604090205460ff1681565b6103046105d0366004612beb565b612531565b6102ad60025481565b6106346105ec366004612beb565b6007602052600090815260409020805460018201546002830154600384015460049094015492936001600160a01b03928316939192909190811690600160a01b900460ff1686565b604080519687526001600160a01b03958616602088015286019390935260608501919091529091166080830152151560a082015260c0016102b7565b61030461067e366004612b51565b6125c2565b6106cc610691366004612beb565b601060205260009081526040902080546001820154600283015460039093015460ff808416946101009094046001600160a01b031693911685565b6040516102b7959493929190612dad565b6102ad60035481565b6103046106f4366004612b7b565b6126de565b610304610707366004612b51565b6127e0565b61030461071a366004612b7b565b612944565b61031961072d366004612b7b565b600d6020526000908152604090205460ff1681565b6102ad60015481565b6011602052816000526040600020818154811061076757600080fd5b90600052602060002001600091509150505481565b6000805b6005548110156107cf57600081815260076020526040902060020154156107bd576107aa81610b5d565b156107bd57816107b981612e11565b9250505b806107c781612e11565b915050610780565b50600355565b6001600160a01b038116600090815260116020526040812081805b8254811015610855576010600084838154811061080f5761080f612e2a565b6000918252602080832090910154835282019290925260400190206003015460ff16610843578161083f81612e11565b9250505b8061084d81612e11565b9150506107f0565b5015159392505050565b600e602052600090815260409020805461087890612e40565b80601f01602080910402602001604051908101604052809291908181526020018280546108a490612e40565b80156108f15780601f106108c6576101008083540402835291602001916108f1565b820191906000526020600020905b8154815290600101906020018083116108d457829003601f168201915b505050505081565b6060600061090a8362015180612e7a565b6004546109179190612e97565b90506000805b60055481101561099457600081815260076020526040902060020154156109825760008181526007602052604081206003015461095a9042612e97565b9050838111801561096d57506004548111155b15610980578261097c81612e11565b9350505b505b8061098c81612e11565b91505061091d565b5060008167ffffffffffffffff8111156109b0576109b0612c7b565b6040519080825280602002602001820160405280156109d9578160200160208202803683370190505b5090506000805b600554811015610a755760008181526007602052604090206002015415610a6357600081815260076020526040812060030154610a1d9042612e97565b90508581118015610a3057506004548111155b15610a615781848481518110610a4857610a48612e2a565b602090810291909101015282610a5d81612e11565b9350505b505b80610a6d81612e11565b9150506109e0565b509095945050505050565b336000908152600a602052604090205460ff1680610ab7575033610aac6000546001600160a01b031690565b6001600160a01b0316145b610adc5760405162461bcd60e51b8152600401610ad390612eaa565b60405180910390fd5b6001600160a01b0381166000908152600a602052604090205460ff16610b145760405162461bcd60e51b8152600401610ad390612ed0565b6001600160a01b0381166000818152600a6020526040808220805460ff19169055517fa3b62bc36326052d97ea62d63c3d60308ed4c3ea8ac079dd8499f1e9c4f80c0f9190a250565b60008181526007602052604081206004546003820154610b7d9190612f07565b421115610dce576006805460009182610b9583612e11565b909155506040805160a08101909152909150806000815260048401546001600160a01b03166020808301919091526040808301889052426060840152600060809093018390528483526010909152902081518154829060ff191660018381811115610c0257610c02612d97565b02179055506020828101518254610100600160a81b0319166101006001600160a01b03928316021783556040808501516001850155606085015160028501556080909401516003909301805460ff19169315159390931790925560048501549091166000908152600d909152205460ff1615610c8e5760028054906000610c8883612f1a565b91905055505b60048201546001600160a01b03166000908152600b602052604090205460ff1615610cc95760018054906000610cc383612f1a565b91905055505b6004820180546001600160a01b039081166000908152601160209081526040808320805460018101825590845291909220018490559154915186929091169083907f5938baf0e87bb258c8f84cdfedaf69616db7fb30d86f1dd3b61aea99d773cf8f90610d399042815260200190565b60405180910390a460135460048301546001600160a01b031660009081526011602052604090205410610dc4576004820180546001600160a01b039081166000908152601260209081526040808320805460ff1916600117905593549092168082526011835290839020549251928352916000805160206130ea833981519152910160405180910390a25b5060019392505050565b50600092915050565b3360009081526012602052604090205460ff1615610e075760405162461bcd60e51b8152600401610ad390612f31565b33600090815260086020526040902054821115610e5b5760405162461bcd60e51b8152602060048201526012602482015271496e73756666696369656e742073746f636b60701b6044820152606401610ad3565b336000908152600d602052604090205460ff1680610e885750336000908152600b602052604090205460ff165b610ecc5760405162461bcd60e51b81526020600482015260156024820152742ab730baba3437b934bd32b2103a3930b739b332b960591b6044820152606401610ad3565b6001600160a01b0383166000908152600b602052604090205460ff16610f345760405162461bcd60e51b815260206004820152601860248201527f526563697069656e74206e6f7420617574686f72697a656400000000000000006044820152606401610ad3565b6001600160a01b03831660009081526012602052604090205460ff1615610fb25760405162461bcd60e51b815260206004820152602c60248201527f526563697069656e7420697320626c61636b6c697374656420666f722061627560448201526b736976652073746f7261676560a01b6064820152608401610ad3565b6000818152600760205260409020600401546001600160a01b0316331461101b5760405162461bcd60e51b815260206004820152601860248201527f596f7520646f6e2774206f776e207468697320626174636800000000000000006044820152606401610ad3565b60008181526007602052604090206002015482111561107c5760405162461bcd60e51b815260206004820152601e60248201527f496e73756666696369656e74207175616e7469747920696e20626174636800006044820152606401610ad3565b611087838383611aba565b61109081610b5d565b50600081815260076020526040902060020154820361110d57600081815260076020526040902060040180546001600160a01b0319166001600160a01b0385161790556110dd33826129bd565b6001600160a01b0383166000908152600960209081526040822080546001810182559083529120018190556112a8565b600580546000918261111e83612e11565b9190505590506040518060c001604052808281526020016007600085815260200190815260200160002060010160009054906101000a90046001600160a01b03166001600160a01b0316815260200184815260200160076000858152602001908152602001600020600301548152602001856001600160a01b0316815260200160001515815250600760008381526020019081526020016000206000820151816000015560208201518160010160006101000a8154816001600160a01b0302191690836001600160a01b03160217905550604082015181600201556060820151816003015560808201518160040160006101000a8154816001600160a01b0302191690836001600160a01b0316021790555060a08201518160040160146101000a81548160ff021916908315150217905550905050826007600084815260200190815260200160002060020160008282546112799190612e97565b90915550506001600160a01b038416600090815260096020908152604082208054600181018255908352912001555b33600090815260086020526040812080548492906112c7908490612e97565b90915550506001600160a01b038316600090815260086020526040812080548492906112f4908490612f07565b909155505060408051838152602081018390526001600160a01b0385169133917f18d62fb566bbc5565888ee7f280d21e62d398373f26d05401c3d6587fcc95c5c910160405180910390a3505050565b336000908152600a602052604090205460ff168061137b5750336113706000546001600160a01b031690565b6001600160a01b0316145b6113975760405162461bcd60e51b8152600401610ad390612eaa565b6001600160a01b0381166000908152600d602052604090205460ff16156114005760405162461bcd60e51b815260206004820152601d60248201527f4164647265737320697320616c726561647920612070726f64756365720000006044820152606401610ad3565b6001600160a01b03811660009081526012602052604090205460ff16156114395760405162461bcd60e51b8152600401610ad390612f7b565b6001600160a01b0381166000908152600d60205260408120805460ff19166001179055600280549161146a83612e11565b90915550506040516001600160a01b038216907f2977383b0207d39ef14220620b6cf3e6c9b6e78592af90baeef6614ed2fcd2c690600090a250565b336000908152600a602052604090205460ff166114d55760405162461bcd60e51b8152600401610ad390612ed0565b6001600160a01b0382166000908152600e602052604090206114f78282613013565b505050565b336000908152600a602052604090205460ff16806115335750336115286000546001600160a01b031690565b6001600160a01b0316145b61154f5760405162461bcd60e51b8152600401610ad390612eaa565b600680546000918261156083612e11565b9190505590506040518060a0016040528083600181111561158357611583612d97565b81526001600160a01b0386166020808301919091526040808301879052426060840152600060809093018390528483526010909152902081518154829060ff1916600183818111156115d7576115d7612d97565b02179055506020828101518254610100600160a81b0319166101006001600160a01b0392831602178355604080850151600180860191909155606086015160028601556080909501516003909401805460ff1916941515949094179093558716600081815260118352838120805495860181558152829020909301849055905142815285929184917f5938baf0e87bb258c8f84cdfedaf69616db7fb30d86f1dd3b61aea99d773cf8f910160405180910390a46013546001600160a01b038516600090815260116020526040902054108015906116cd57506001600160a01b03841660009081526012602052604090205460ff16155b15611720576001600160a01b0384166000818152601260209081526040808320805460ff1916600117905560118252918290205491519182526000805160206130ea833981519152910160405180910390a25b50505050565b336000908152600a602052604090205460ff168061175d5750336117526000546001600160a01b031690565b6001600160a01b0316145b6117795760405162461bcd60e51b8152600401610ad390612eaa565b6001600160a01b0381166000908152600d602052604090205460ff166117e15760405162461bcd60e51b815260206004820152601960248201527f41646472657373206973206e6f7420612070726f6475636572000000000000006044820152606401610ad3565b6001600160a01b0381166000908152600d60205260408120805460ff19169055600280549161180f83612f1a565b90915550506040516001600160a01b038216907fb78e9906c5bae930ccf756a5214c9855b1782f0eb30f9566de2384f034af48f390600090a250565b6001600160a01b0381166000908152600960209081526040918290208054835181840281018401909452808452606093928301828280156118ab57602002820191906000526020600020905b815481526020019060010190808311611897575b50505050509050919050565b6009602052816000526040600020818154811061076757600080fd5b6001600160a01b0381166000908152600a602052604090205460609060ff161561191857505060408051808201909152600581526430b236b4b760d91b602082015290565b6001600160a01b0382166000908152600d602052604090205460ff161561195d575050604080518082019091526008815267383937b23ab1b2b960c11b602082015290565b6001600160a01b0382166000908152600b602052604090205460ff16156119a25750506040805180820190915260088152673932b9b2b63632b960c11b602082015290565b50506040805180820190915260078152663ab735b737bbb760c91b602082015290565b336000908152600a602052604090205460ff16806119fc5750336119f16000546001600160a01b031690565b6001600160a01b0316145b611a185760405162461bcd60e51b8152600401610ad390612eaa565b60008111611a745760405162461bcd60e51b815260206004820152602360248201527f5468726573686f6c64206d7573742062652067726561746572207468616e207a60448201526265726f60e81b6064820152608401610ad3565b601380549082905560408051828152602081018490527f640cb28dc00b63a4925f69fcfaa2182169d71f10d3adfef82155d9f711025ac191015b60405180910390a15050565b60008181526007602090815260408083206001600160a01b0387168452600c8352818420546008909352922054611af2908590612f07565b1115611720576006805460009182611b0983612e11565b909155506040805160a08101909152909150806001815260048401546001600160a01b03166020808301919091526040808301879052426060840152600060809093018390528483526010909152902081518154829060ff191660018381811115611b7657611b76612d97565b02179055506020828101518254610100600160a81b0319166101006001600160a01b0392831602178355604080850151600180860191909155606086015160028601556080909501516003909401805460ff1916941515949094179093556004860180548216600090815260118452848120805496870181558152839020909401859055925491514281528693929092169184917f5938baf0e87bb258c8f84cdfedaf69616db7fb30d86f1dd3b61aea99d773cf8f910160405180910390a460135460048301546001600160a01b031660009081526011602052604090205410611d0f576004820180546001600160a01b039081166000908152601260209081526040808320805460ff1916600117905593549092168082526011835290839020549251928352916000805160206130ea833981519152910160405180910390a260405162461bcd60e51b815260206004820152602760248201527f526563697069656e742065786365656473206d6178696d756d20616c6c6f7765604482015266642073746f636b60c81b6064820152608401610ad3565b5050505050565b336000908152600a602052604090205460ff1680611d4d575033611d426000546001600160a01b031690565b6001600160a01b0316145b611d695760405162461bcd60e51b8152600401610ad390612eaa565b6001600160a01b03811660009081526012602052604090205460ff16611dd15760405162461bcd60e51b815260206004820152601a60248201527f41646472657373206973206e6f7420626c61636b6c69737465640000000000006044820152606401610ad3565b6001600160a01b038116600081815260126020526040808220805460ff19169055517f39ad9dd6d571557e581ef3c963032dba2db232f21ebe529f1331d2d66c2d797c9190a250565b336000908152600d602052604090205460ff16611e795760405162461bcd60e51b815260206004820152601a60248201527f4e6f7420616e20617574686f72697a65642070726f64756365720000000000006044820152606401610ad3565b3360009081526012602052604090205460ff1615611ea95760405162461bcd60e51b8152600401610ad390612f31565b6005805460009182611eba83612e11565b909155506040805160c081018252828152336020808301828152838501888152426060860190815260808601858152600060a088018181528a8252600787528982209851895594516001890180546001600160a01b039283166001600160a01b03199091161790559351600289015591516003880155516004909601805493511515600160a01b026001600160a81b031990941696909216959095179190911790559082526008905290812080549293508492909190611f7b908490612f07565b90915550503360008181526009602090815260408083208054600181018255908452928290209092018490558151848152908101859052428183015290517fd09d9a38e02ab127d6f42579d59f78264b59ad00e810b512d320c788a64b2f0d9181900360600190a25050565b336000908152600a602052604090205460ff166120165760405162461bcd60e51b8152600401610ad390612ed0565b6001600160a01b039092166000908152600f6020526040902090815560010155565b336000908152600a602052604090205460ff168061206f5750336120646000546001600160a01b031690565b6001600160a01b0316145b61208b5760405162461bcd60e51b8152600401610ad390612eaa565b6001600160a01b0381166000908152600a602052604090205460ff16156120f45760405162461bcd60e51b815260206004820152601b60248201527f4164647265737320697320616c726561647920616e2061646d696e00000000006044820152606401610ad3565b6001600160a01b0381166000818152600a6020526040808220805460ff19166001179055517f44d6d25963f097ad14f29f06854a01f575648a1ef82f30e562ccd3889717e3399190a250565b612148612a8b565b6121526000612ae5565b565b6001600160a01b0381166000908152601160205260408120606091805b82548110156121d6576010600084838154811061219057612190612e2a565b6000918252602080832090910154835282019290925260400190206003015460ff166121c457816121c081612e11565b9250505b806121ce81612e11565b915050612171565b5060008167ffffffffffffffff8111156121f2576121f2612c7b565b60405190808252806020026020018201604052801561221b578160200160208202803683370190505b5090506000805b8454811015610a75576010600086838154811061224157612241612e2a565b6000918252602080832090910154835282019290925260400190206003015460ff166122af5784818154811061227957612279612e2a565b906000526020600020015483838151811061229657612296612e2a565b6020908102919091010152816122ab81612e11565b9250505b806122b981612e11565b915050612222565b336000908152600a602052604090205460ff16806122f85750336122ed6000546001600160a01b031690565b6001600160a01b0316145b6123145760405162461bcd60e51b8152600401610ad390612eaa565b6001600160a01b0381166000908152600b602052604090205460ff166123785760405162461bcd60e51b815260206004820152601960248201527820b2323932b9b99034b9903737ba1030903932b9b2b63632b960391b6044820152606401610ad3565b6001600160a01b0381166000908152600b60205260408120805460ff1916905560018054916123a683612f1a565b90915550506040516001600160a01b038216907f74317ab44bd96a4b18c5f1eee4104ecd55c3eb0a69795f59fb4b3ebe550a860090600090a250565b336000908152600a602052604090205460ff168061241957503361240e6000546001600160a01b031690565b6001600160a01b0316145b6124355760405162461bcd60e51b8152600401610ad390612eaa565b60065481106124865760405162461bcd60e51b815260206004820152601860248201527f56696f6c6174696f6e20646f6573206e6f7420657869737400000000000000006044820152606401610ad3565b60008181526010602052604090206003015460ff16156124e85760405162461bcd60e51b815260206004820152601a60248201527f56696f6c6174696f6e20616c7265616479207265736f6c7665640000000000006044820152606401610ad3565b600081815260106020526040808220600301805460ff1916600117905551339183917fd00492650098d7f8856b4cfd50132f3c69ef3d6463f1869cfbd0ccfabf64ea9d9190a350565b336000908152600a602052604090205460ff168061256857503361255d6000546001600160a01b031690565b6001600160a01b0316145b6125845760405162461bcd60e51b8152600401610ad390612eaa565b600480549082905560408051828152602081018490527f3f48365421b6fd89f4702c341b2977602f921c96f606ab41254abab5fb79ab159101611aae565b336000908152600a602052604090205460ff16806125f95750336125ee6000546001600160a01b031690565b6001600160a01b0316145b6126155760405162461bcd60e51b8152600401610ad390612eaa565b6001600160a01b0382166000908152600b602052604090205460ff166126795760405162461bcd60e51b815260206004820152601960248201527820b2323932b9b99034b9903737ba1030903932b9b2b63632b960391b6044820152606401610ad3565b6001600160a01b0382166000818152600c602052604090819020839055513391907f60f99d53b11182f64116ffb8b46848a60b4ba4321be11d873e8e03ea42741d68906126d29085904290918252602082015260400190565b60405180910390a35050565b336000908152600a602052604090205460ff168061271557503361270a6000546001600160a01b031690565b6001600160a01b0316145b6127315760405162461bcd60e51b8152600401610ad390612eaa565b6001600160a01b03811660009081526012602052604090205460ff16156127905760405162461bcd60e51b8152602060048201526013602482015272105b1c9958591e48189b1858dadb1a5cdd1959606a1b6044820152606401610ad3565b6001600160a01b0381166000818152601260209081526040808320805460ff1916600117905560118252918290205491519182526000805160206130ea833981519152910160405180910390a250565b336000908152600a602052604090205460ff168061281757503361280c6000546001600160a01b031690565b6001600160a01b0316145b6128335760405162461bcd60e51b8152600401610ad390612eaa565b6001600160a01b0382166000908152600b602052604090205460ff161561289c5760405162461bcd60e51b815260206004820152601d60248201527f4164647265737320697320616c7265616479206120726573656c6c65720000006044820152606401610ad3565b6001600160a01b03821660009081526012602052604090205460ff16156128d55760405162461bcd60e51b8152600401610ad390612f7b565b600180549060006128e583612e11565b90915550506001600160a01b0382166000818152600b60209081526040808320805460ff19166001179055600c909152808220849055517ffb8f232b7a1d3d51060d32be9d6cf6808aa8f7dd043c8c20c4cfaf929ca9d4849190a25050565b61294c612a8b565b6001600160a01b0381166129b15760405162461bcd60e51b815260206004820152602660248201527f4f776e61626c653a206e6577206f776e657220697320746865207a65726f206160448201526564647265737360d01b6064820152608401610ad3565b6129ba81612ae5565b50565b6001600160a01b0382166000908152600960205260408120905b815481101561172057828282815481106129f3576129f3612e2a565b906000526020600020015403612a795781548290612a1390600190612e97565b81548110612a2357612a23612e2a565b9060005260206000200154828281548110612a4057612a40612e2a565b906000526020600020018190555081805480612a5e57612a5e6130d3565b60019003818190600052602060002001600090559055611720565b80612a8381612e11565b9150506129d7565b6000546001600160a01b031633146121525760405162461bcd60e51b815260206004820181905260248201527f4f776e61626c653a2063616c6c6572206973206e6f7420746865206f776e65726044820152606401610ad3565b600080546001600160a01b038381166001600160a01b0319831681178455604051919092169283917f8be0079c531659141344cd1fd0a4f28419497f9722a3daafe3b4186f6b6457e09190a35050565b80356001600160a01b0381168114612b4c57600080fd5b919050565b60008060408385031215612b6457600080fd5b612b6d83612b35565b946020939093013593505050565b600060208284031215612b8d57600080fd5b612b9682612b35565b9392505050565b600060208083528351808285015260005b81811015612bca57858101830151858201604001528201612bae565b506000604082860101526040601f19601f8301168501019250505092915050565b600060208284031215612bfd57600080fd5b5035919050565b6020808252825182820181905260009190848201906040850190845b81811015612c3c57835183529284019291840191600101612c20565b50909695505050505050565b600080600060608486031215612c5d57600080fd5b612c6684612b35565b95602085013595506040909401359392505050565b634e487b7160e01b600052604160045260246000fd5b60008060408385031215612ca457600080fd5b612cad83612b35565b9150602083013567ffffffffffffffff80821115612cca57600080fd5b818501915085601f830112612cde57600080fd5b813581811115612cf057612cf0612c7b565b604051601f8201601f19908116603f01168101908382118183101715612d1857612d18612c7b565b81604052828152886020848701011115612d3157600080fd5b8260208601602083013760006020848301015280955050505050509250929050565b600080600060608486031215612d6857600080fd5b612d7184612b35565b925060208401359150604084013560028110612d8c57600080fd5b809150509250925092565b634e487b7160e01b600052602160045260246000fd5b60a0810160028710612dcf57634e487b7160e01b600052602160045260246000fd5b9581526001600160a01b0394909416602085015260408401929092526060830152151560809091015290565b634e487b7160e01b600052601160045260246000fd5b600060018201612e2357612e23612dfb565b5060010190565b634e487b7160e01b600052603260045260246000fd5b600181811c90821680612e5457607f821691505b602082108103612e7457634e487b7160e01b600052602260045260246000fd5b50919050565b8082028115828204841417612e9157612e91612dfb565b92915050565b81810381811115612e9157612e91612dfb565b6020808252600c908201526b2737ba1030b71030b236b4b760a11b604082015260600190565b60208082526017908201527f41646472657373206973206e6f7420616e2061646d696e000000000000000000604082015260600190565b80820180821115612e9157612e91612dfb565b600081612f2957612f29612dfb565b506000190190565b6020808252602a908201527f4163636f756e7420697320626c61636b6c697374656420666f7220616275736960408201526976652073746f7261676560b01b606082015260800190565b6020808252602a908201527f4164647265737320697320626c61636b6c697374656420666f7220616275736960408201526976652073746f7261676560b01b606082015260800190565b601f8211156114f757600081815260208120601f850160051c81016020861015612fec5750805b601f850160051c820191505b8181101561300b57828155600101612ff8565b505050505050565b815167ffffffffffffffff81111561302d5761302d612c7b565b6130418161303b8454612e40565b84612fc5565b602080601f831160018114613076576000841561305e5750858301515b600019600386901b1c1916600185901b17855561300b565b600085815260208120601f198616915b828110156130a557888601518255948401946001909101908401613086565b50858210156130c35787850151600019600388901b60f8161c191681555b5050505050600190811b01905550565b634e487b7160e01b600052603160045260246000fdfeab696c3448aca400f4d94156b35a98ac357eab949326d87e98ae9fa2b8e1a714a26469706673582212202db32e001038c9d00c5cdf2a3d87130776f9ac4e40fbe594e2517ec7251f11ce64736f6c63430008130033",
  "immutableReferences": {},
  "source": "// SPDX-License-Identifier: MIT\r\npragma solidity ^0.8.19;\r\n\r\nimport \"@openzeppelin/contracts/access/Ownable.sol\";\r\n\r\n\r\ncontract MilkSupplyChain is Ownable {\r\n    struct Batch {\r\n        uint256 id;\r\n        address producer;\r\n        uint256 quantity;\r\n        uint256 timestamp;\r\n        address currentOwner;\r\n        bool expired;\r\n    }\r\n    enum ViolationType {\r\n    ExcessiveStorage,\r\n    QuantityOverflow\r\n}\r\n\r\n    struct StorageViolation {\r\n        ViolationType violationType;\r\n        address holder;\r\n        uint256 batchId;\r\n        uint256 detectionTime;\r\n        bool resolved;\r\n    }\r\n    struct Position{\r\n        uint256 latitude;\r\n        uint256 longitude;\r\n    }\r\n\r\n    uint256 public totalResellers=0;\r\n    uint256 public totalProducers=0;\r\n    uint256 public totalViolations=0;\r\n    uint256 public maxStorageDuration = 30 days;\r\n    uint256 public nextBatchId;\r\n    uint256 public nextViolationId;\r\n    \r\n    mapping(uint256 => Batch) public batches;\r\n    mapping(address => uint256) public stockBalance;\r\n    mapping(address => uint256[]) public batchesByOwner;\r\n    \r\n    // Role management\r\n    mapping(address => bool) public isAdmin;\r\n    mapping(address => bool) public isReseller;\r\n    mapping(address => uint256) public maxQuantityPerReseller;\r\n    mapping(address => bool) public isProducer;\r\n    mapping(address => string) public addressName;\r\n    mapping(address=> Position) public addressPosition;\r\n    // mappings mtaa violations\r\n    mapping(uint256 => StorageViolation) public violations;\r\n    mapping(address => uint256[]) public violationsByHolder;\r\n    mapping(address => bool) public blacklistedHolders;\r\n    uint256 public violationThreshold = 3; // 9d'h men violation 9bal me yetbanna\r\n    \r\n    // Events\r\n    event Produced(uint256 batchId, address indexed producer, uint256 quantity, uint256 timestamp);\r\n    event ResellerChanged(address indexed reseller, address indexed admin, uint256 maxQuantity, uint256 timestamp);\r\n    event Transferred(address indexed from, address indexed to, uint256 quantity, uint256 batchId);\r\n    event AdminAdded(address indexed admin);\r\n    event AdminRemoved(address indexed admin);\r\n    event ResellerAdded(address indexed reseller);\r\n    event ProducerAdded(address indexed producer);\r\n    event ResellerRemoved(address indexed reseller);\r\n    event ProducerRemoved(address indexed producer);\r\n    event BatchExpired(uint256 indexed batchId, address indexed owner, uint256 expiryTime);\r\n    event MaxStorageDurationChanged(uint256 oldDuration, uint256 newDuration);\r\n    event AbusiveStorageDetected(uint256 indexed violationId, address indexed holder, uint256 indexed batchId, uint256 detectionTime);\r\n    event ViolationResolved(uint256 indexed violationId, address indexed resolver);\r\n    event HolderBlacklisted(address indexed holder, uint256 violationCount);\r\n    event HolderRemovedFromBlacklist(address indexed holder);\r\n    event ViolationThresholdChanged(uint256 oldThreshold, uint256 newThreshold);\r\n    \r\n    modifier onlyAdmin() {\r\n        require(isAdmin[msg.sender] || owner() == msg.sender, \"Not an admin\");\r\n        _;\r\n    }\r\n    \r\n    modifier onlyProducer() {\r\n        require(isProducer[msg.sender], \"Not an authorized producer\");\r\n        _;\r\n    }\r\n    \r\n    modifier onlyReseller() {\r\n        require(isReseller[msg.sender], \"Not an authorized reseller\");\r\n        _;\r\n    }\r\n    \r\n    modifier notBlacklisted() {\r\n        require(!blacklistedHolders[msg.sender], \"Account is blacklisted for abusive storage\");\r\n        _;\r\n\r\n    }\r\n    constructor() {\r\n    _transferOwnership(msg.sender);\r\n    isAdmin[msg.sender] = true;\r\n    emit AdminAdded(msg.sender);\r\n}\r\n\r\n    \r\n    function addAdmin(address account) external onlyAdmin {\r\n        require(!isAdmin[account], \"Address is already an admin\");\r\n        isAdmin[account] = true;\r\n        emit AdminAdded(account);\r\n    }\r\n    \r\n    function removeAdmin(address account) external onlyAdmin {\r\n        require(isAdmin[account], \"Address is not an admin\");\r\n        isAdmin[account] = false;\r\n        emit AdminRemoved(account);\r\n    }\r\n    \r\n    function setReseller(address account, uint256 maxQuantity) external onlyAdmin {\r\n        require(!isReseller[account], \"Address is already a reseller\");\r\n        require(!blacklistedHolders[account], \"Address is blacklisted for abusive storage\");\r\n        totalResellers++;\r\n        isReseller[account] = true;\r\n        maxQuantityPerReseller[account] = maxQuantity;\r\n        emit ResellerAdded(account);\r\n    }\r\n    \r\n    function changeMaxQuantityReseller(address account, uint256 maxQuantity) external onlyAdmin {\r\n        require(isReseller[account], \"Address is not a reseller\");\r\n        maxQuantityPerReseller[account] = maxQuantity;\r\n        emit ResellerChanged(account, msg.sender, maxQuantity, block.timestamp);\r\n    }\r\n    \r\n    function removeReseller(address account) external onlyAdmin {\r\n        require(isReseller[account], \"Address is not a reseller\");\r\n        isReseller[account] = false;\r\n        totalResellers--;\r\n        emit ResellerRemoved(account);\r\n    }\r\n    \r\n    function setProducer(address account) external onlyAdmin {\r\n        require(!isProducer[account], \"Address is already a producer\");\r\n        require(!blacklistedHolders[account], \"Address is blacklisted for abusive storage\");\r\n        isProducer[account] = true;\r\n        totalProducers++;\r\n        emit ProducerAdded(account);\r\n    }\r\n    \r\n    function removeProducer(address account) external onlyAdmin {\r\n        require(isProducer[account], \"Address is not a producer\");\r\n        isProducer[account] = false;\r\n        totalProducers--;\r\n        emit ProducerRemoved(account);\r\n    }\r\n    \r\n    function setMaxStorageDuration(uint256 newDuration) external onlyAdmin {\r\n        uint256 oldDuration = maxStorageDuration;\r\n        maxStorageDuration = newDuration;\r\n        emit MaxStorageDurationChanged(oldDuration, newDuration);\r\n    }\r\n    \r\n    function setViolationThreshold(uint256 newThreshold) external onlyAdmin {\r\n        require(newThreshold > 0, \"Threshold must be greater than zero\");\r\n        uint256 oldThreshold = violationThreshold;\r\n        violationThreshold = newThreshold;\r\n        emit ViolationThresholdChanged(oldThreshold, newThreshold);\r\n    }\r\n    \r\n    function produce(uint256 quantity) external onlyProducer notBlacklisted {\r\n        uint256 batchId = nextBatchId++;\r\n        batches[batchId] = Batch({\r\n            id: batchId,\r\n            producer: msg.sender,\r\n            quantity: quantity,\r\n            timestamp: block.timestamp,\r\n            currentOwner: msg.sender,\r\n            expired: false\r\n        });\r\n        \r\n        stockBalance[msg.sender] += quantity;\r\n        batchesByOwner[msg.sender].push(batchId);\r\n        \r\n        emit Produced(batchId, msg.sender, quantity, block.timestamp);\r\n    }\r\n    \r\n    function transferStock(address to, uint256 amount, uint256 batchId) external notBlacklisted {\r\n        require(stockBalance[msg.sender] >= amount, \"Insufficient stock\");\r\n        require(isProducer[msg.sender] || isReseller[msg.sender], \"Unauthorized transfer\");\r\n        require(isReseller[to], \"Recipient not authorized\");\r\n        require(!blacklistedHolders[to], \"Recipient is blacklisted for abusive storage\");\r\n        require(batches[batchId].currentOwner == msg.sender, \"You don't own this batch\");\r\n        require(batches[batchId].quantity >= amount, \"Insufficient quantity in batch\");\r\n        //check for quantity\r\n        checkForQuantity(to,amount,batchId);\r\n        \r\n        // Check for abusive storage\r\n        checkForAbusiveStorage(batchId);\r\n        \r\n        if (amount == batches[batchId].quantity) {\r\n            // ken kad eli talbou kad fil batch aatih elbatch\r\n            batches[batchId].currentOwner = to;\r\n            removeBatchFromOwner(msg.sender, batchId);\r\n            batchesByOwner[to].push(batchId);\r\n        } else {\r\n            // snn aamel batch jdid nafs eldonnee\r\n            //quantite kad eli tablou\r\n            uint256 newBatchId = nextBatchId++;\r\n            batches[newBatchId] = Batch({\r\n                id: newBatchId,\r\n                producer: batches[batchId].producer,\r\n                quantity: amount,\r\n                timestamp: batches[batchId].timestamp, \r\n                currentOwner: to,\r\n                expired: false\r\n            });\r\n            \r\n            // mise ajour batch original\r\n            batches[batchId].quantity -= amount;\r\n            \r\n            // aatih lil jdid\r\n            batchesByOwner[to].push(newBatchId);\r\n        }\r\n        \r\n        stockBalance[msg.sender] -= amount;\r\n        stockBalance[to] += amount;\r\n        \r\n        emit Transferred(msg.sender, to, amount, batchId);\r\n    }\r\n\r\n    \r\n    function checkForAbusiveStorage(uint256 batchId) public returns (bool) {\r\n        Batch storage batch = batches[batchId];\r\n        \r\n        if (block.timestamp > batch.timestamp + maxStorageDuration) {\r\n            // Report violation\r\n            uint256 violationId = nextViolationId++;\r\n            violations[violationId] = StorageViolation({\r\n                violationType:ViolationType.ExcessiveStorage,\r\n                holder: batch.currentOwner,\r\n                batchId: batchId,\r\n                detectionTime: block.timestamp,\r\n                resolved: false\r\n            });\r\n            if(isProducer[batch.currentOwner]){\r\n                totalProducers--;\r\n            }\r\n            if(isReseller[batch.currentOwner]){\r\n                totalResellers--;\r\n            }\r\n            violationsByHolder[batch.currentOwner].push(violationId);\r\n            \r\n            emit AbusiveStorageDetected(violationId, batch.currentOwner, batchId, block.timestamp);\r\n            \r\n            // holder  blacklisted??\r\n            if (violationsByHolder[batch.currentOwner].length >= violationThreshold) {\r\n                blacklistedHolders[batch.currentOwner] = true;\r\n                emit HolderBlacklisted(batch.currentOwner, violationsByHolder[batch.currentOwner].length);\r\n            }\r\n            \r\n            return true;\r\n        }\r\n        \r\n        return false;\r\n    }\r\n    \r\n    function resolveViolation(uint256 violationId) external onlyAdmin {\r\n        require(violationId < nextViolationId, \"Violation does not exist\");\r\n        require(!violations[violationId].resolved, \"Violation already resolved\");\r\n        \r\n        violations[violationId].resolved = true;\r\n        emit ViolationResolved(violationId, msg.sender);\r\n    }\r\n    \r\n    function removeFromBlacklist(address holder) external onlyAdmin {\r\n        require(blacklistedHolders[holder], \"Address is not blacklisted\");\r\n        blacklistedHolders[holder] = false;\r\n        emit HolderRemovedFromBlacklist(holder);\r\n    }\r\n    \r\n    function checkAllBatchesForAbusiveStorage() external {\r\n        uint256 violationCount = 0;\r\n        \r\n        for (uint256 i = 0; i < nextBatchId; i++) {\r\n            if (batches[i].quantity > 0) {\r\n                if (checkForAbusiveStorage(i)) {\r\n                    violationCount++;\r\n                }\r\n            }\r\n        }\r\n        \r\n        totalViolations=violationCount;\r\n    }\r\n    \r\n    function getActiveViolationsByHolder(address holder) external view returns (uint256[] memory) {\r\n        uint256[] storage allViolations = violationsByHolder[holder];\r\n        uint256 activeCount = 0;\r\n        \r\n        // Count active violations\r\n        for (uint256 i = 0; i < allViolations.length; i++) {\r\n            if (!violations[allViolations[i]].resolved) {\r\n                activeCount++;\r\n            }\r\n        }\r\n        \r\n        // Create result array\r\n        uint256[] memory activeViolations = new uint256[](activeCount);\r\n        uint256 index = 0;\r\n        \r\n        // Populate result array\r\n        for (uint256 i = 0; i < allViolations.length; i++) {\r\n            if (!violations[allViolations[i]].resolved) {\r\n                activeViolations[index] = allViolations[i];\r\n                index++;\r\n            }\r\n        }\r\n        \r\n        return activeViolations;\r\n    }\r\n    \r\n    function getBatchesNearingViolation(uint256 daysThreshold) external view returns (uint256[] memory) {\r\n        uint256 warningTime = maxStorageDuration - (daysThreshold * 1 days);\r\n        uint256 count = 0;\r\n        \r\n        // Count qualifying batches\r\n        for (uint256 i = 0; i < nextBatchId; i++) {\r\n            if (batches[i].quantity > 0) {\r\n                uint256 batchAge = block.timestamp - batches[i].timestamp;\r\n                if (batchAge > warningTime && batchAge <= maxStorageDuration) {\r\n                    count++;\r\n                }\r\n            }\r\n        }\r\n        \r\n        // Create result array\r\n        uint256[] memory warningBatches = new uint256[](count);\r\n        uint256 index = 0;\r\n        \r\n        // Populate result array\r\n        for (uint256 i = 0; i < nextBatchId; i++) {\r\n            if (batches[i].quantity > 0) {\r\n                uint256 batchAge = block.timestamp - batches[i].timestamp;\r\n                if (batchAge > warningTime && batchAge <= maxStorageDuration) {\r\n                    warningBatches[index] = i;\r\n                    index++;\r\n                }\r\n            }\r\n        }\r\n        \r\n        return warningBatches;\r\n    }\r\n    \r\n    function getBatchesByOwner(address owner) external view returns (uint256[] memory) {\r\n        return batchesByOwner[owner];\r\n    }\r\n    \r\n    function removeBatchFromOwner(address owner, uint256 batchId) private {\r\n        uint256[] storage ownerBatches = batchesByOwner[owner];\r\n        for (uint256 i = 0; i < ownerBatches.length; i++) {\r\n            if (ownerBatches[i] == batchId) {\r\n                // Replace with last element and pop\r\n                ownerBatches[i] = ownerBatches[ownerBatches.length - 1];\r\n                ownerBatches.pop();\r\n                break;\r\n            }\r\n        }\r\n    }\r\n    \r\n    function isHolderViolatingStorageRules(address holder) external view returns (bool) {\r\n        uint256[] storage holderViolations = violationsByHolder[holder];\r\n        uint256 activeViolations = 0;\r\n        \r\n        for (uint256 i = 0; i < holderViolations.length; i++) {\r\n            if (!violations[holderViolations[i]].resolved) {\r\n                activeViolations++;\r\n            }\r\n        }\r\n        \r\n        return activeViolations > 0;\r\n    }\r\n\r\n    function getRole(address account) external view returns (string memory) {\r\n        if (isAdmin[account]) return \"admin\";\r\n        if (isProducer[account]) return \"producer\";\r\n        if (isReseller[account]) return \"reseller\";\r\n        return \"unknown\";\r\n    }\r\n    function setPosition(address account,uint256 latitude,uint256 longitude) external {\r\n        require(isAdmin[msg.sender], \"Address is not an admin\");\r\n        addressPosition[account].latitude=latitude;\r\n        addressPosition[account].longitude=longitude;\r\n    }\r\n    function setName(address account, string memory name)public {\r\n        require(isAdmin[msg.sender], \"Address is not an admin\");\r\n        addressName[account]=name;\r\n    }\r\n    function triggerFakeViolation(address holder, uint256 batchId, ViolationType vType) external onlyAdmin {\r\n    uint256 violationId = nextViolationId++;\r\n    violations[violationId] = StorageViolation({\r\n        violationType: vType,\r\n        holder: holder,\r\n        batchId: batchId,\r\n        detectionTime: block.timestamp,\r\n        resolved: false\r\n    });\r\n\r\n    violationsByHolder[holder].push(violationId);\r\n\r\n    emit AbusiveStorageDetected(violationId, holder, batchId, block.timestamp);\r\n\r\n    if (violationsByHolder[holder].length >= violationThreshold && !blacklistedHolders[holder]) {\r\n        blacklistedHolders[holder] = true;\r\n        emit HolderBlacklisted(holder, violationsByHolder[holder].length);\r\n    }\r\n}\r\nfunction checkForQuantity(address to,uint256 amount,uint256 batchId) public{\r\n        Batch storage batch = batches[batchId];\r\n        if (stockBalance[to]+amount>maxQuantityPerReseller[to]){\r\n            uint256 violationId = nextViolationId++;\r\n            violations[violationId] = StorageViolation({\r\n                violationType: ViolationType.QuantityOverflow,\r\n                holder: batch.currentOwner,\r\n                batchId: batchId,\r\n                detectionTime: block.timestamp,\r\n                resolved: false\r\n            });\r\n            \r\n            violationsByHolder[batch.currentOwner].push(violationId);\r\n            \r\n            emit AbusiveStorageDetected(violationId, batch.currentOwner, batchId, block.timestamp);\r\n            \r\n            // holder  blacklisted??\r\n            if (violationsByHolder[batch.currentOwner].length >= violationThreshold) {\r\n                blacklistedHolders[batch.currentOwner] = true;\r\n                emit HolderBlacklisted(batch.currentOwner, violationsByHolder[batch.currentOwner].length);\r\n                revert(\"Recipient exceeds maximum allowed stock\");\r\n        }\r\n        }}\r\n\r\n function blacklistManually(address holder) external onlyAdmin {\r\n    require(!blacklistedHolders[holder], \"Already blacklisted\");\r\n    blacklistedHolders[holder] = true;\r\n    emit HolderBlacklisted(holder, violationsByHolder[holder].length);\r\n}\r\n\r\n}",
  "sourcePath": "C:\\Users\\USER\\Documents\\GitHub\\abusive-storage-detection\\contracts\\MilkSupplyChain.sol",
  "compiler": {
    "name": "solc",
    "version": "0.8.19+commit.7dd6d404.Emscripten.clang"
  },
  "schemaVersion": "3.4.16",
  "updatedAt": "2025-05-05T13:41:56.994Z",
  "devdoc": {
    "kind": "dev",
    "methods": {
      "owner()": {
        "details": "Returns the address of the current owner."
      },
      "renounceOwnership()": {
        "details": "Leaves the contract without owner. It will not be possible to call `onlyOwner` functions. Can only be called by the current owner. NOTE: Renouncing ownership will leave the contract without an owner, thereby disabling any functionality that is only available to the owner."
      },
      "transferOwnership(address)": {
        "details": "Transfers ownership of the contract to a new account (`newOwner`). Can only be called by the current owner."
      }
    },
    "version": 1
  },
  "userdoc": {
    "kind": "user",
    "methods": {},
    "version": 1
  }
}