{
  "contractName": "MilkSupplyChain",
  "abi": [
    {
      "inputs": [],
      "stateMutability": "nonpayable",
      "type": "constructor"
    },
    {
      "anonymous": false,
      "inputs": [
        {
          "indexed": true,
          "internalType": "uint256",
          "name": "violationId",
          "type": "uint256"
        },
        {
          "indexed": true,
          "internalType": "address",
          "name": "holder",
          "type": "address"
        },
        {
          "indexed": true,
          "internalType": "uint256",
          "name": "batchId",
          "type": "uint256"
        },
        {
          "indexed": false,
          "internalType": "uint256",
          "name": "detectionTime",
          "type": "uint256"
        }
      ],
      "name": "AbusiveStorageDetected",
      "type": "event"
    },
    {
      "anonymous": false,
      "inputs": [
        {
          "indexed": true,
          "internalType": "address",
          "name": "admin",
          "type": "address"
        }
      ],
      "name": "AdminAdded",
      "type": "event"
    },
    {
      "anonymous": false,
      "inputs": [
        {
          "indexed": true,
          "internalType": "address",
          "name": "admin",
          "type": "address"
        }
      ],
      "name": "AdminRemoved",
      "type": "event"
    },
    {
      "anonymous": false,
      "inputs": [
        {
          "indexed": true,
          "internalType": "uint256",
          "name": "batchId",
          "type": "uint256"
        },
        {
          "indexed": true,
          "internalType": "address",
          "name": "owner",
          "type": "address"
        },
        {
          "indexed": false,
          "internalType": "uint256",
          "name": "expiryTime",
          "type": "uint256"
        }
      ],
      "name": "BatchExpired",
      "type": "event"
    },
    {
      "anonymous": false,
      "inputs": [
        {
          "indexed": true,
          "internalType": "address",
          "name": "holder",
          "type": "address"
        },
        {
          "indexed": false,
          "internalType": "uint256",
          "name": "violationCount",
          "type": "uint256"
        }
      ],
      "name": "HolderBlacklisted",
      "type": "event"
    },
    {
      "anonymous": false,
      "inputs": [
        {
          "indexed": true,
          "internalType": "address",
          "name": "holder",
          "type": "address"
        }
      ],
      "name": "HolderRemovedFromBlacklist",
      "type": "event"
    },
    {
      "anonymous": false,
      "inputs": [
        {
          "indexed": false,
          "internalType": "uint256",
          "name": "oldDuration",
          "type": "uint256"
        },
        {
          "indexed": false,
          "internalType": "uint256",
          "name": "newDuration",
          "type": "uint256"
        }
      ],
      "name": "MaxStorageDurationChanged",
      "type": "event"
    },
    {
      "anonymous": false,
      "inputs": [
        {
          "indexed": true,
          "internalType": "address",
          "name": "previousOwner",
          "type": "address"
        },
        {
          "indexed": true,
          "internalType": "address",
          "name": "newOwner",
          "type": "address"
        }
      ],
      "name": "OwnershipTransferred",
      "type": "event"
    },
    {
      "anonymous": false,
      "inputs": [
        {
          "indexed": false,
          "internalType": "uint256",
          "name": "batchId",
          "type": "uint256"
        },
        {
          "indexed": true,
          "internalType": "address",
          "name": "producer",
          "type": "address"
        },
        {
          "indexed": false,
          "internalType": "uint256",
          "name": "quantity",
          "type": "uint256"
        },
        {
          "indexed": false,
          "internalType": "uint256",
          "name": "timestamp",
          "type": "uint256"
        }
      ],
      "name": "Produced",
      "type": "event"
    },
    {
      "anonymous": false,
      "inputs": [
        {
          "indexed": true,
          "internalType": "address",
          "name": "producer",
          "type": "address"
        }
      ],
      "name": "ProducerAdded",
      "type": "event"
    },
    {
      "anonymous": false,
      "inputs": [
        {
          "indexed": true,
          "internalType": "address",
          "name": "producer",
          "type": "address"
        }
      ],
      "name": "ProducerRemoved",
      "type": "event"
    },
    {
      "anonymous": false,
      "inputs": [
        {
          "indexed": true,
          "internalType": "address",
          "name": "reseller",
          "type": "address"
        }
      ],
      "name": "ResellerAdded",
      "type": "event"
    },
    {
      "anonymous": false,
      "inputs": [
        {
          "indexed": true,
          "internalType": "address",
          "name": "reseller",
          "type": "address"
        },
        {
          "indexed": true,
          "internalType": "address",
          "name": "admin",
          "type": "address"
        },
        {
          "indexed": false,
          "internalType": "uint256",
          "name": "maxQuantity",
          "type": "uint256"
        },
        {
          "indexed": false,
          "internalType": "uint256",
          "name": "timestamp",
          "type": "uint256"
        }
      ],
      "name": "ResellerChanged",
      "type": "event"
    },
    {
      "anonymous": false,
      "inputs": [
        {
          "indexed": true,
          "internalType": "address",
          "name": "reseller",
          "type": "address"
        }
      ],
      "name": "ResellerRemoved",
      "type": "event"
    },
    {
      "anonymous": false,
      "inputs": [
        {
          "indexed": true,
          "internalType": "address",
          "name": "from",
          "type": "address"
        },
        {
          "indexed": true,
          "internalType": "address",
          "name": "to",
          "type": "address"
        },
        {
          "indexed": false,
          "internalType": "uint256",
          "name": "quantity",
          "type": "uint256"
        },
        {
          "indexed": false,
          "internalType": "uint256",
          "name": "batchId",
          "type": "uint256"
        }
      ],
      "name": "Transferred",
      "type": "event"
    },
    {
      "anonymous": false,
      "inputs": [
        {
          "indexed": true,
          "internalType": "uint256",
          "name": "violationId",
          "type": "uint256"
        },
        {
          "indexed": true,
          "internalType": "address",
          "name": "resolver",
          "type": "address"
        }
      ],
      "name": "ViolationResolved",
      "type": "event"
    },
    {
      "anonymous": false,
      "inputs": [
        {
          "indexed": false,
          "internalType": "uint256",
          "name": "oldThreshold",
          "type": "uint256"
        },
        {
          "indexed": false,
          "internalType": "uint256",
          "name": "newThreshold",
          "type": "uint256"
        }
      ],
      "name": "ViolationThresholdChanged",
      "type": "event"
    },
    {
      "inputs": [
        {
          "internalType": "uint256",
          "name": "",
          "type": "uint256"
        }
      ],
      "name": "batches",
      "outputs": [
        {
          "internalType": "uint256",
          "name": "id",
          "type": "uint256"
        },
        {
          "internalType": "address",
          "name": "producer",
          "type": "address"
        },
        {
          "internalType": "uint256",
          "name": "quantity",
          "type": "uint256"
        },
        {
          "internalType": "uint256",
          "name": "timestamp",
          "type": "uint256"
        },
        {
          "internalType": "address",
          "name": "currentOwner",
          "type": "address"
        },
        {
          "internalType": "bool",
          "name": "expired",
          "type": "bool"
        }
      ],
      "stateMutability": "view",
      "type": "function",
      "constant": true
    },
    {
      "inputs": [
        {
          "internalType": "address",
          "name": "",
          "type": "address"
        },
        {
          "internalType": "uint256",
          "name": "",
          "type": "uint256"
        }
      ],
      "name": "batchesByOwner",
      "outputs": [
        {
          "internalType": "uint256",
          "name": "",
          "type": "uint256"
        }
      ],
      "stateMutability": "view",
      "type": "function",
      "constant": true
    },
    {
      "inputs": [
        {
          "internalType": "address",
          "name": "",
          "type": "address"
        }
      ],
      "name": "blacklistedHolders",
      "outputs": [
        {
          "internalType": "bool",
          "name": "",
          "type": "bool"
        }
      ],
      "stateMutability": "view",
      "type": "function",
      "constant": true
    },
    {
      "inputs": [
        {
          "internalType": "address",
          "name": "",
          "type": "address"
        }
      ],
      "name": "isAdmin",
      "outputs": [
        {
          "internalType": "bool",
          "name": "",
          "type": "bool"
        }
      ],
      "stateMutability": "view",
      "type": "function",
      "constant": true
    },
    {
      "inputs": [
        {
          "internalType": "address",
          "name": "",
          "type": "address"
        }
      ],
      "name": "isProducer",
      "outputs": [
        {
          "internalType": "bool",
          "name": "",
          "type": "bool"
        }
      ],
      "stateMutability": "view",
      "type": "function",
      "constant": true
    },
    {
      "inputs": [
        {
          "internalType": "address",
          "name": "",
          "type": "address"
        }
      ],
      "name": "isReseller",
      "outputs": [
        {
          "internalType": "bool",
          "name": "",
          "type": "bool"
        }
      ],
      "stateMutability": "view",
      "type": "function",
      "constant": true
    },
    {
      "inputs": [
        {
          "internalType": "address",
          "name": "",
          "type": "address"
        }
      ],
      "name": "maxQuantityPerReseller",
      "outputs": [
        {
          "internalType": "uint256",
          "name": "",
          "type": "uint256"
        }
      ],
      "stateMutability": "view",
      "type": "function",
      "constant": true
    },
    {
      "inputs": [],
      "name": "maxStorageDuration",
      "outputs": [
        {
          "internalType": "uint256",
          "name": "",
          "type": "uint256"
        }
      ],
      "stateMutability": "view",
      "type": "function",
      "constant": true
    },
    {
      "inputs": [],
      "name": "nextBatchId",
      "outputs": [
        {
          "internalType": "uint256",
          "name": "",
          "type": "uint256"
        }
      ],
      "stateMutability": "view",
      "type": "function",
      "constant": true
    },
    {
      "inputs": [],
      "name": "nextViolationId",
      "outputs": [
        {
          "internalType": "uint256",
          "name": "",
          "type": "uint256"
        }
      ],
      "stateMutability": "view",
      "type": "function",
      "constant": true
    },
    {
      "inputs": [],
      "name": "owner",
      "outputs": [
        {
          "internalType": "address",
          "name": "",
          "type": "address"
        }
      ],
      "stateMutability": "view",
      "type": "function",
      "constant": true
    },
    {
      "inputs": [],
      "name": "renounceOwnership",
      "outputs": [],
      "stateMutability": "nonpayable",
      "type": "function"
    },
    {
      "inputs": [
        {
          "internalType": "address",
          "name": "",
          "type": "address"
        }
      ],
      "name": "stockBalance",
      "outputs": [
        {
          "internalType": "uint256",
          "name": "",
          "type": "uint256"
        }
      ],
      "stateMutability": "view",
      "type": "function",
      "constant": true
    },
    {
      "inputs": [
        {
          "internalType": "address",
          "name": "newOwner",
          "type": "address"
        }
      ],
      "name": "transferOwnership",
      "outputs": [],
      "stateMutability": "nonpayable",
      "type": "function"
    },
    {
      "inputs": [],
      "name": "violationThreshold",
      "outputs": [
        {
          "internalType": "uint256",
          "name": "",
          "type": "uint256"
        }
      ],
      "stateMutability": "view",
      "type": "function",
      "constant": true
    },
    {
      "inputs": [
        {
          "internalType": "uint256",
          "name": "",
          "type": "uint256"
        }
      ],
      "name": "violations",
      "outputs": [
        {
          "internalType": "address",
          "name": "holder",
          "type": "address"
        },
        {
          "internalType": "uint256",
          "name": "batchId",
          "type": "uint256"
        },
        {
          "internalType": "uint256",
          "name": "detectionTime",
          "type": "uint256"
        },
        {
          "internalType": "bool",
          "name": "resolved",
          "type": "bool"
        }
      ],
      "stateMutability": "view",
      "type": "function",
      "constant": true
    },
    {
      "inputs": [
        {
          "internalType": "address",
          "name": "",
          "type": "address"
        },
        {
          "internalType": "uint256",
          "name": "",
          "type": "uint256"
        }
      ],
      "name": "violationsByHolder",
      "outputs": [
        {
          "internalType": "uint256",
          "name": "",
          "type": "uint256"
        }
      ],
      "stateMutability": "view",
      "type": "function",
      "constant": true
    },
    {
      "inputs": [
        {
          "internalType": "address",
          "name": "account",
          "type": "address"
        }
      ],
      "name": "addAdmin",
      "outputs": [],
      "stateMutability": "nonpayable",
      "type": "function"
    },
    {
      "inputs": [
        {
          "internalType": "address",
          "name": "account",
          "type": "address"
        }
      ],
      "name": "removeAdmin",
      "outputs": [],
      "stateMutability": "nonpayable",
      "type": "function"
    },
    {
      "inputs": [
        {
          "internalType": "address",
          "name": "account",
          "type": "address"
        },
        {
          "internalType": "uint256",
          "name": "maxQuantity",
          "type": "uint256"
        }
      ],
      "name": "setReseller",
      "outputs": [],
      "stateMutability": "nonpayable",
      "type": "function"
    },
    {
      "inputs": [
        {
          "internalType": "address",
          "name": "account",
          "type": "address"
        },
        {
          "internalType": "uint256",
          "name": "maxQuantity",
          "type": "uint256"
        }
      ],
      "name": "changeMaxQuantityReseller",
      "outputs": [],
      "stateMutability": "nonpayable",
      "type": "function"
    },
    {
      "inputs": [
        {
          "internalType": "address",
          "name": "account",
          "type": "address"
        }
      ],
      "name": "removeReseller",
      "outputs": [],
      "stateMutability": "nonpayable",
      "type": "function"
    },
    {
      "inputs": [
        {
          "internalType": "address",
          "name": "account",
          "type": "address"
        }
      ],
      "name": "setProducer",
      "outputs": [],
      "stateMutability": "nonpayable",
      "type": "function"
    },
    {
      "inputs": [
        {
          "internalType": "address",
          "name": "account",
          "type": "address"
        }
      ],
      "name": "removeProducer",
      "outputs": [],
      "stateMutability": "nonpayable",
      "type": "function"
    },
    {
      "inputs": [
        {
          "internalType": "uint256",
          "name": "newDuration",
          "type": "uint256"
        }
      ],
      "name": "setMaxStorageDuration",
      "outputs": [],
      "stateMutability": "nonpayable",
      "type": "function"
    },
    {
      "inputs": [
        {
          "internalType": "uint256",
          "name": "newThreshold",
          "type": "uint256"
        }
      ],
      "name": "setViolationThreshold",
      "outputs": [],
      "stateMutability": "nonpayable",
      "type": "function"
    },
    {
      "inputs": [
        {
          "internalType": "uint256",
          "name": "quantity",
          "type": "uint256"
        }
      ],
      "name": "produce",
      "outputs": [],
      "stateMutability": "nonpayable",
      "type": "function"
    },
    {
      "inputs": [
        {
          "internalType": "address",
          "name": "to",
          "type": "address"
        },
        {
          "internalType": "uint256",
          "name": "amount",
          "type": "uint256"
        },
        {
          "internalType": "uint256",
          "name": "batchId",
          "type": "uint256"
        }
      ],
      "name": "transferStock",
      "outputs": [],
      "stateMutability": "nonpayable",
      "type": "function"
    },
    {
      "inputs": [
        {
          "internalType": "uint256",
          "name": "batchId",
          "type": "uint256"
        }
      ],
      "name": "checkForAbusiveStorage",
      "outputs": [
        {
          "internalType": "bool",
          "name": "",
          "type": "bool"
        }
      ],
      "stateMutability": "nonpayable",
      "type": "function"
    },
    {
      "inputs": [
        {
          "internalType": "uint256",
          "name": "violationId",
          "type": "uint256"
        }
      ],
      "name": "resolveViolation",
      "outputs": [],
      "stateMutability": "nonpayable",
      "type": "function"
    },
    {
      "inputs": [
        {
          "internalType": "address",
          "name": "holder",
          "type": "address"
        }
      ],
      "name": "removeFromBlacklist",
      "outputs": [],
      "stateMutability": "nonpayable",
      "type": "function"
    },
    {
      "inputs": [],
      "name": "checkAllBatchesForAbusiveStorage",
      "outputs": [
        {
          "internalType": "uint256",
          "name": "",
          "type": "uint256"
        }
      ],
      "stateMutability": "nonpayable",
      "type": "function"
    },
    {
      "inputs": [
        {
          "internalType": "address",
          "name": "holder",
          "type": "address"
        }
      ],
      "name": "getActiveViolationsByHolder",
      "outputs": [
        {
          "internalType": "uint256[]",
          "name": "",
          "type": "uint256[]"
        }
      ],
      "stateMutability": "view",
      "type": "function",
      "constant": true
    },
    {
      "inputs": [
        {
          "internalType": "uint256",
          "name": "daysThreshold",
          "type": "uint256"
        }
      ],
      "name": "getBatchesNearingViolation",
      "outputs": [
        {
          "internalType": "uint256[]",
          "name": "",
          "type": "uint256[]"
        }
      ],
      "stateMutability": "view",
      "type": "function",
      "constant": true
    },
    {
      "inputs": [
        {
          "internalType": "address",
          "name": "owner",
          "type": "address"
        }
      ],
      "name": "getBatchesByOwner",
      "outputs": [
        {
          "internalType": "uint256[]",
          "name": "",
          "type": "uint256[]"
        }
      ],
      "stateMutability": "view",
      "type": "function",
      "constant": true
    },
    {
      "inputs": [
        {
          "internalType": "address",
          "name": "holder",
          "type": "address"
        }
      ],
      "name": "isHolderViolatingStorageRules",
      "outputs": [
        {
          "internalType": "bool",
          "name": "",
          "type": "bool"
        }
      ],
      "stateMutability": "view",
      "type": "function",
      "constant": true
    },
    {
      "inputs": [
        {
          "internalType": "address",
          "name": "account",
          "type": "address"
        }
      ],
      "name": "getRole",
      "outputs": [
        {
          "internalType": "string",
          "name": "",
          "type": "string"
        }
      ],
      "stateMutability": "view",
      "type": "function",
      "constant": true
    }
  ],
  "bytecode": "0x608060405262278d006001556003600e553480156200001d57600080fd5b506200003e62000032620000f060201b60201c565b620000f860201b60201c565b6200004f33620000f860201b60201c565b6001600760003373ffffffffffffffffffffffffffffffffffffffff1673ffffffffffffffffffffffffffffffffffffffff16815260200190815260200160002060006101000a81548160ff0219169083151502179055503373ffffffffffffffffffffffffffffffffffffffff167f44d6d25963f097ad14f29f06854a01f575648a1ef82f30e562ccd3889717e33960405160405180910390a2620001bc565b600033905090565b60008060009054906101000a900473ffffffffffffffffffffffffffffffffffffffff169050816000806101000a81548173ffffffffffffffffffffffffffffffffffffffff021916908373ffffffffffffffffffffffffffffffffffffffff1602179055508173ffffffffffffffffffffffffffffffffffffffff168173ffffffffffffffffffffffffffffffffffffffff167f8be0079c531659141344cd1fd0a4f28419497f9722a3daafe3b4186f6b6457e060405160405180910390a35050565b6149a780620001cc6000396000f3fe608060405234801561001057600080fd5b50600436106102275760003560e01c80637048027511610130578063a10d9c9e116100b8578063b515eab31161007c578063b515eab3146106c3578063b995bb95146106df578063ee76d5b014610712578063f2fde38b1461072e578063f55210221461074a57610227565b8063a10d9c9e146105f6578063a20a2c0014610626578063a7223e3d14610642578063ad87dd2614610672578063b32c4d8d1461068e57610227565b80638462a7f8116100ff5780638462a7f8146105505780638d8657cf1461056e5780638da5cb5b1461058c5780639af7825b146105aa5780639d064020146105da57610227565b806370480275146104dc578063715018a6146104f857806379c21def146105025780637d3d75f01461052057610227565b80632b38bafc116101b357806342ae291b1161018257806342ae291b146104285780634427673314610458578063493cccde14610488578063537df3b6146104a457806365da5603146104c057610227565b80632b38bafc1461039057806338cf8821146103ac5780633f185b6c146103dc578063416dd31a146103f857610227565b80631785f53c116101fa5780631785f53c146102da5780631de0e480146102f65780632221e6671461032657806324d7806c146103425780632a7afa0d1461037257610227565b806301e820a91461022c57806305f817631461025c5780630ad6c4691461027a57806310c4d2d4146102aa575b600080fd5b610246600480360381019061024191906139ae565b61077a565b60405161025391906139fd565b60405180910390f35b6102646107ab565b60405161027191906139fd565b60405180910390f35b610294600480360381019061028f9190613a18565b610817565b6040516102a19190613a60565b60405180910390f35b6102c460048036038101906102bf9190613a7b565b6108e0565b6040516102d19190613b66565b60405180910390f35b6102f460048036038101906102ef9190613a18565b610a97565b005b610310600480360381019061030b9190613a7b565b610c8a565b60405161031d9190613a60565b60405180910390f35b610340600480360381019061033b9190613b88565b61109d565b005b61035c60048036038101906103579190613a18565b6118e5565b6040516103699190613a60565b60405180910390f35b61037a611905565b60405161038791906139fd565b60405180910390f35b6103aa60048036038101906103a59190613a18565b61190b565b005b6103c660048036038101906103c19190613a18565b611b8c565b6040516103d391906139fd565b60405180910390f35b6103f660048036038101906103f19190613a18565b611ba4565b005b610412600480360381019061040d9190613a18565b611d97565b60405161041f9190613b66565b60405180910390f35b610442600480360381019061043d91906139ae565b611e2e565b60405161044f91906139fd565b60405180910390f35b610472600480360381019061046d9190613a18565b611e5f565b60405161047f9190613c6b565b60405180910390f35b6104a2600480360381019061049d9190613a7b565b61204c565b005b6104be60048036038101906104b99190613a18565b6121a3565b005b6104da60048036038101906104d59190613a7b565b612396565b005b6104f660048036038101906104f19190613a18565b61271a565b005b61050061290e565b005b61050a612922565b60405161051791906139fd565b60405180910390f35b61053a60048036038101906105359190613a18565b612928565b60405161054791906139fd565b60405180910390f35b610558612940565b60405161056591906139fd565b60405180910390f35b610576612946565b60405161058391906139fd565b60405180910390f35b61059461294c565b6040516105a19190613c9c565b60405180910390f35b6105c460048036038101906105bf9190613a18565b612975565b6040516105d19190613b66565b60405180910390f35b6105f460048036038101906105ef9190613a18565b612b40565b005b610610600480360381019061060b9190613a18565b612d33565b60405161061d9190613a60565b60405180910390f35b610640600480360381019061063b9190613a7b565b612d53565b005b61065c60048036038101906106579190613a18565b612f3a565b6040516106699190613a60565b60405180910390f35b61068c60048036038101906106879190613a7b565b612f5a565b005b6106a860048036038101906106a39190613a7b565b61306e565b6040516106ba96959493929190613cb7565b60405180910390f35b6106dd60048036038101906106d891906139ae565b6130f7565b005b6106f960048036038101906106f49190613a7b565b6132fb565b6040516107099493929190613d18565b60405180910390f35b61072c600480360381019061072791906139ae565b613358565b005b61074860048036038101906107439190613a18565b61361e565b005b610764600480360381019061075f9190613a18565b6136a1565b6040516107719190613a60565b60405180910390f35b600c602052816000526040600020818154811061079657600080fd5b90600052602060002001600091509150505481565b6000806000905060005b60025481101561080f576000600460008381526020019081526020016000206002015411156107fc576107e781610c8a565b156107fb5781806107f790613d8c565b9250505b5b808061080790613d8c565b9150506107b5565b508091505090565b600080600c60008473ffffffffffffffffffffffffffffffffffffffff1673ffffffffffffffffffffffffffffffffffffffff16815260200190815260200160002090506000805b82805490508110156108d257600b600084838154811061088257610881613dd4565b5b9060005260206000200154815260200190815260200160002060030160009054906101000a900460ff166108bf5781806108bb90613d8c565b9250505b80806108ca90613d8c565b91505061085f565b506000811192505050919050565b6060600062015180836108f39190613e03565b6001546109009190613e45565b90506000805b60025481101561098f5760006004600083815260200190815260200160002060020154111561097c5760006004600083815260200190815260200160002060030154426109539190613e45565b9050838111801561096657506001548111155b1561097a57828061097690613d8c565b9350505b505b808061098790613d8c565b915050610906565b5060008167ffffffffffffffff8111156109ac576109ab613e79565b5b6040519080825280602002602001820160405280156109da5781602001602082028036833780820191505090505b5090506000805b600254811015610a8a57600060046000838152602001908152602001600020600201541115610a77576000600460008381526020019081526020016000206003015442610a2e9190613e45565b90508581118015610a4157506001548111155b15610a755781848481518110610a5a57610a59613dd4565b5b6020026020010181815250508280610a7190613d8c565b9350505b505b8080610a8290613d8c565b9150506109e1565b5081945050505050919050565b600760003373ffffffffffffffffffffffffffffffffffffffff1673ffffffffffffffffffffffffffffffffffffffff16815260200190815260200160002060009054906101000a900460ff1680610b2157503373ffffffffffffffffffffffffffffffffffffffff16610b0961294c565b73ffffffffffffffffffffffffffffffffffffffff16145b610b60576040517f08c379a0000000000000000000000000000000000000000000000000000000008152600401610b5790613ef4565b60405180910390fd5b600760008273ffffffffffffffffffffffffffffffffffffffff1673ffffffffffffffffffffffffffffffffffffffff16815260200190815260200160002060009054906101000a900460ff16610bec576040517f08c379a0000000000000000000000000000000000000000000000000000000008152600401610be390613f60565b60405180910390fd5b6000600760008373ffffffffffffffffffffffffffffffffffffffff1673ffffffffffffffffffffffffffffffffffffffff16815260200190815260200160002060006101000a81548160ff0219169083151502179055508073ffffffffffffffffffffffffffffffffffffffff167fa3b62bc36326052d97ea62d63c3d60308ed4c3ea8ac079dd8499f1e9c4f80c0f60405160405180910390a250565b6000806004600084815260200190815260200160002090506001548160030154610cb49190613f80565b42111561109257600060036000815480929190610cd090613d8c565b91905055905060405180608001604052808360040160009054906101000a900473ffffffffffffffffffffffffffffffffffffffff1673ffffffffffffffffffffffffffffffffffffffff16815260200185815260200142815260200160001515815250600b600083815260200190815260200160002060008201518160000160006101000a81548173ffffffffffffffffffffffffffffffffffffffff021916908373ffffffffffffffffffffffffffffffffffffffff160217905550602082015181600101556040820151816002015560608201518160030160006101000a81548160ff021916908315150217905550905050600c60008360040160009054906101000a900473ffffffffffffffffffffffffffffffffffffffff1673ffffffffffffffffffffffffffffffffffffffff1673ffffffffffffffffffffffffffffffffffffffff168152602001908152602001600020819080600181540180825580915050600190039060005260206000200160009091909190915055838260040160009054906101000a900473ffffffffffffffffffffffffffffffffffffffff1673ffffffffffffffffffffffffffffffffffffffff16827f5938baf0e87bb258c8f84cdfedaf69616db7fb30d86f1dd3b61aea99d773cf8f42604051610ebb91906139fd565b60405180910390a4600e54600c60008460040160009054906101000a900473ffffffffffffffffffffffffffffffffffffffff1673ffffffffffffffffffffffffffffffffffffffff1673ffffffffffffffffffffffffffffffffffffffff1681526020019081526020016000208054905010611087576001600d60008460040160009054906101000a900473ffffffffffffffffffffffffffffffffffffffff1673ffffffffffffffffffffffffffffffffffffffff1673ffffffffffffffffffffffffffffffffffffffff16815260200190815260200160002060006101000a81548160ff0219169083151502179055508160040160009054906101000a900473ffffffffffffffffffffffffffffffffffffffff1673ffffffffffffffffffffffffffffffffffffffff167fab696c3448aca400f4d94156b35a98ac357eab949326d87e98ae9fa2b8e1a714600c60008560040160009054906101000a900473ffffffffffffffffffffffffffffffffffffffff1673ffffffffffffffffffffffffffffffffffffffff1673ffffffffffffffffffffffffffffffffffffffff1681526020019081526020016000208054905060405161107e91906139fd565b60405180910390a25b600192505050611098565b60009150505b919050565b600d60003373ffffffffffffffffffffffffffffffffffffffff1673ffffffffffffffffffffffffffffffffffffffff16815260200190815260200160002060009054906101000a900460ff161561112a576040517f08c379a000000000000000000000000000000000000000000000000000000000815260040161112190614026565b60405180910390fd5b81600560003373ffffffffffffffffffffffffffffffffffffffff1673ffffffffffffffffffffffffffffffffffffffff1681526020019081526020016000205410156111ac576040517f08c379a00000000000000000000000000000000000000000000000000000000081526004016111a390614092565b60405180910390fd5b600a60003373ffffffffffffffffffffffffffffffffffffffff1673ffffffffffffffffffffffffffffffffffffffff16815260200190815260200160002060009054906101000a900460ff168061124d5750600860003373ffffffffffffffffffffffffffffffffffffffff1673ffffffffffffffffffffffffffffffffffffffff16815260200190815260200160002060009054906101000a900460ff165b61128c576040517f08c379a0000000000000000000000000000000000000000000000000000000008152600401611283906140fe565b60405180910390fd5b600860008473ffffffffffffffffffffffffffffffffffffffff1673ffffffffffffffffffffffffffffffffffffffff16815260200190815260200160002060009054906101000a900460ff16611318576040517f08c379a000000000000000000000000000000000000000000000000000000000815260040161130f9061416a565b60405180910390fd5b600d60008473ffffffffffffffffffffffffffffffffffffffff1673ffffffffffffffffffffffffffffffffffffffff16815260200190815260200160002060009054906101000a900460ff16156113a5576040517f08c379a000000000000000000000000000000000000000000000000000000000815260040161139c906141fc565b60405180910390fd5b3373ffffffffffffffffffffffffffffffffffffffff166004600083815260200190815260200160002060040160009054906101000a900473ffffffffffffffffffffffffffffffffffffffff1673ffffffffffffffffffffffffffffffffffffffff1614611449576040517f08c379a000000000000000000000000000000000000000000000000000000000815260040161144090614268565b60405180910390fd5b81600460008381526020019081526020016000206002015410156114a2576040517f08c379a0000000000000000000000000000000000000000000000000000000008152600401611499906142d4565b60405180910390fd5b6114ab81610c8a565b506004600082815260200190815260200160002060020154820361159357826004600083815260200190815260200160002060040160006101000a81548173ffffffffffffffffffffffffffffffffffffffff021916908373ffffffffffffffffffffffffffffffffffffffff16021790555061152833826136c1565b600660008473ffffffffffffffffffffffffffffffffffffffff1673ffffffffffffffffffffffffffffffffffffffff1681526020019081526020016000208190806001815401808255809150506001900390600052602060002001600090919091909150556117cd565b6000600260008154809291906115a890613d8c565b9190505590506040518060c001604052808281526020016004600085815260200190815260200160002060010160009054906101000a900473ffffffffffffffffffffffffffffffffffffffff1673ffffffffffffffffffffffffffffffffffffffff168152602001848152602001600460008581526020019081526020016000206003015481526020018573ffffffffffffffffffffffffffffffffffffffff16815260200160001515815250600460008381526020019081526020016000206000820151816000015560208201518160010160006101000a81548173ffffffffffffffffffffffffffffffffffffffff021916908373ffffffffffffffffffffffffffffffffffffffff160217905550604082015181600201556060820151816003015560808201518160040160006101000a81548173ffffffffffffffffffffffffffffffffffffffff021916908373ffffffffffffffffffffffffffffffffffffffff16021790555060a08201518160040160146101000a81548160ff0219169083151502179055509050508260046000848152602001908152602001600020600201600082825461175e9190613e45565b92505081905550600660008573ffffffffffffffffffffffffffffffffffffffff1673ffffffffffffffffffffffffffffffffffffffff168152602001908152602001600020819080600181540180825580915050600190039060005260206000200160009091909190915055505b81600560003373ffffffffffffffffffffffffffffffffffffffff1673ffffffffffffffffffffffffffffffffffffffff168152602001908152602001600020600082825461181c9190613e45565b9250508190555081600560008573ffffffffffffffffffffffffffffffffffffffff1673ffffffffffffffffffffffffffffffffffffffff16815260200190815260200160002060008282546118729190613f80565b925050819055508273ffffffffffffffffffffffffffffffffffffffff163373ffffffffffffffffffffffffffffffffffffffff167f18d62fb566bbc5565888ee7f280d21e62d398373f26d05401c3d6587fcc95c5c84846040516118d89291906142f4565b60405180910390a3505050565b60076020528060005260406000206000915054906101000a900460ff1681565b600e5481565b600760003373ffffffffffffffffffffffffffffffffffffffff1673ffffffffffffffffffffffffffffffffffffffff16815260200190815260200160002060009054906101000a900460ff168061199557503373ffffffffffffffffffffffffffffffffffffffff1661197d61294c565b73ffffffffffffffffffffffffffffffffffffffff16145b6119d4576040517f08c379a00000000000000000000000000000000000000000000000000000000081526004016119cb90613ef4565b60405180910390fd5b600a60008273ffffffffffffffffffffffffffffffffffffffff1673ffffffffffffffffffffffffffffffffffffffff16815260200190815260200160002060009054906101000a900460ff1615611a61576040517f08c379a0000000000000000000000000000000000000000000000000000000008152600401611a5890614369565b60405180910390fd5b600d60008273ffffffffffffffffffffffffffffffffffffffff1673ffffffffffffffffffffffffffffffffffffffff16815260200190815260200160002060009054906101000a900460ff1615611aee576040517f08c379a0000000000000000000000000000000000000000000000000000000008152600401611ae5906143fb565b60405180910390fd5b6001600a60008373ffffffffffffffffffffffffffffffffffffffff1673ffffffffffffffffffffffffffffffffffffffff16815260200190815260200160002060006101000a81548160ff0219169083151502179055508073ffffffffffffffffffffffffffffffffffffffff167f2977383b0207d39ef14220620b6cf3e6c9b6e78592af90baeef6614ed2fcd2c660405160405180910390a250565b60056020528060005260406000206000915090505481565b600760003373ffffffffffffffffffffffffffffffffffffffff1673ffffffffffffffffffffffffffffffffffffffff16815260200190815260200160002060009054906101000a900460ff1680611c2e57503373ffffffffffffffffffffffffffffffffffffffff16611c1661294c565b73ffffffffffffffffffffffffffffffffffffffff16145b611c6d576040517f08c379a0000000000000000000000000000000000000000000000000000000008152600401611c6490613ef4565b60405180910390fd5b600a60008273ffffffffffffffffffffffffffffffffffffffff1673ffffffffffffffffffffffffffffffffffffffff16815260200190815260200160002060009054906101000a900460ff16611cf9576040517f08c379a0000000000000000000000000000000000000000000000000000000008152600401611cf090614467565b60405180910390fd5b6000600a60008373ffffffffffffffffffffffffffffffffffffffff1673ffffffffffffffffffffffffffffffffffffffff16815260200190815260200160002060006101000a81548160ff0219169083151502179055508073ffffffffffffffffffffffffffffffffffffffff167fb78e9906c5bae930ccf756a5214c9855b1782f0eb30f9566de2384f034af48f360405160405180910390a250565b6060600660008373ffffffffffffffffffffffffffffffffffffffff1673ffffffffffffffffffffffffffffffffffffffff168152602001908152602001600020805480602002602001604051908101604052809291908181526020018280548015611e2257602002820191906000526020600020905b815481526020019060010190808311611e0e575b50505050509050919050565b60066020528160005260406000208181548110611e4a57600080fd5b90600052602060002001600091509150505481565b6060600760008373ffffffffffffffffffffffffffffffffffffffff1673ffffffffffffffffffffffffffffffffffffffff16815260200190815260200160002060009054906101000a900460ff1615611ef0576040518060400160405280600581526020017f61646d696e0000000000000000000000000000000000000000000000000000008152509050612047565b600a60008373ffffffffffffffffffffffffffffffffffffffff1673ffffffffffffffffffffffffffffffffffffffff16815260200190815260200160002060009054906101000a900460ff1615611f7f576040518060400160405280600881526020017f70726f64756365720000000000000000000000000000000000000000000000008152509050612047565b600860008373ffffffffffffffffffffffffffffffffffffffff1673ffffffffffffffffffffffffffffffffffffffff16815260200190815260200160002060009054906101000a900460ff161561200e576040518060400160405280600881526020017f726573656c6c65720000000000000000000000000000000000000000000000008152509050612047565b6040518060400160405280600781526020017f756e6b6e6f776e0000000000000000000000000000000000000000000000000081525090505b919050565b600760003373ffffffffffffffffffffffffffffffffffffffff1673ffffffffffffffffffffffffffffffffffffffff16815260200190815260200160002060009054906101000a900460ff16806120d657503373ffffffffffffffffffffffffffffffffffffffff166120be61294c565b73ffffffffffffffffffffffffffffffffffffffff16145b612115576040517f08c379a000000000000000000000000000000000000000000000000000000000815260040161210c90613ef4565b60405180910390fd5b60008111612158576040517f08c379a000000000000000000000000000000000000000000000000000000000815260040161214f906144f9565b60405180910390fd5b6000600e54905081600e819055507f640cb28dc00b63a4925f69fcfaa2182169d71f10d3adfef82155d9f711025ac181836040516121979291906142f4565b60405180910390a15050565b600760003373ffffffffffffffffffffffffffffffffffffffff1673ffffffffffffffffffffffffffffffffffffffff16815260200190815260200160002060009054906101000a900460ff168061222d57503373ffffffffffffffffffffffffffffffffffffffff1661221561294c565b73ffffffffffffffffffffffffffffffffffffffff16145b61226c576040517f08c379a000000000000000000000000000000000000000000000000000000000815260040161226390613ef4565b60405180910390fd5b600d60008273ffffffffffffffffffffffffffffffffffffffff1673ffffffffffffffffffffffffffffffffffffffff16815260200190815260200160002060009054906101000a900460ff166122f8576040517f08c379a00000000000000000000000000000000000000000000000000000000081526004016122ef90614565565b60405180910390fd5b6000600d60008373ffffffffffffffffffffffffffffffffffffffff1673ffffffffffffffffffffffffffffffffffffffff16815260200190815260200160002060006101000a81548160ff0219169083151502179055508073ffffffffffffffffffffffffffffffffffffffff167f39ad9dd6d571557e581ef3c963032dba2db232f21ebe529f1331d2d66c2d797c60405160405180910390a250565b600a60003373ffffffffffffffffffffffffffffffffffffffff1673ffffffffffffffffffffffffffffffffffffffff16815260200190815260200160002060009054906101000a900460ff16612422576040517f08c379a0000000000000000000000000000000000000000000000000000000008152600401612419906145d1565b60405180910390fd5b600d60003373ffffffffffffffffffffffffffffffffffffffff1673ffffffffffffffffffffffffffffffffffffffff16815260200190815260200160002060009054906101000a900460ff16156124af576040517f08c379a00000000000000000000000000000000000000000000000000000000081526004016124a690614026565b60405180910390fd5b6000600260008154809291906124c490613d8c565b9190505590506040518060c001604052808281526020013373ffffffffffffffffffffffffffffffffffffffff1681526020018381526020014281526020013373ffffffffffffffffffffffffffffffffffffffff16815260200160001515815250600460008381526020019081526020016000206000820151816000015560208201518160010160006101000a81548173ffffffffffffffffffffffffffffffffffffffff021916908373ffffffffffffffffffffffffffffffffffffffff160217905550604082015181600201556060820151816003015560808201518160040160006101000a81548173ffffffffffffffffffffffffffffffffffffffff021916908373ffffffffffffffffffffffffffffffffffffffff16021790555060a08201518160040160146101000a81548160ff02191690831515021790555090505081600560003373ffffffffffffffffffffffffffffffffffffffff1673ffffffffffffffffffffffffffffffffffffffff16815260200190815260200160002060008282546126579190613f80565b92505081905550600660003373ffffffffffffffffffffffffffffffffffffffff1673ffffffffffffffffffffffffffffffffffffffff1681526020019081526020016000208190806001815401808255809150506001900390600052602060002001600090919091909150553373ffffffffffffffffffffffffffffffffffffffff167fd09d9a38e02ab127d6f42579d59f78264b59ad00e810b512d320c788a64b2f0d82844260405161270e939291906145f1565b60405180910390a25050565b600760003373ffffffffffffffffffffffffffffffffffffffff1673ffffffffffffffffffffffffffffffffffffffff16815260200190815260200160002060009054906101000a900460ff16806127a457503373ffffffffffffffffffffffffffffffffffffffff1661278c61294c565b73ffffffffffffffffffffffffffffffffffffffff16145b6127e3576040517f08c379a00000000000000000000000000000000000000000000000000000000081526004016127da90613ef4565b60405180910390fd5b600760008273ffffffffffffffffffffffffffffffffffffffff1673ffffffffffffffffffffffffffffffffffffffff16815260200190815260200160002060009054906101000a900460ff1615612870576040517f08c379a000000000000000000000000000000000000000000000000000000000815260040161286790614674565b60405180910390fd5b6001600760008373ffffffffffffffffffffffffffffffffffffffff1673ffffffffffffffffffffffffffffffffffffffff16815260200190815260200160002060006101000a81548160ff0219169083151502179055508073ffffffffffffffffffffffffffffffffffffffff167f44d6d25963f097ad14f29f06854a01f575648a1ef82f30e562ccd3889717e33960405160405180910390a250565b6129166137cb565b6129206000613849565b565b60015481565b60096020528060005260406000206000915090505481565b60025481565b60035481565b60008060009054906101000a900473ffffffffffffffffffffffffffffffffffffffff16905090565b60606000600c60008473ffffffffffffffffffffffffffffffffffffffff1673ffffffffffffffffffffffffffffffffffffffff16815260200190815260200160002090506000805b8280549050811015612a3157600b60008483815481106129e1576129e0613dd4565b5b9060005260206000200154815260200190815260200160002060030160009054906101000a900460ff16612a1e578180612a1a90613d8c565b9250505b8080612a2990613d8c565b9150506129be565b5060008167ffffffffffffffff811115612a4e57612a4d613e79565b5b604051908082528060200260200182016040528015612a7c5781602001602082028036833780820191505090505b5090506000805b8480549050811015612b3357600b6000868381548110612aa657612aa5613dd4565b5b9060005260206000200154815260200190815260200160002060030160009054906101000a900460ff16612b2057848181548110612ae757612ae6613dd4565b5b9060005260206000200154838381518110612b0557612b04613dd4565b5b6020026020010181815250508180612b1c90613d8c565b9250505b8080612b2b90613d8c565b915050612a83565b5081945050505050919050565b600760003373ffffffffffffffffffffffffffffffffffffffff1673ffffffffffffffffffffffffffffffffffffffff16815260200190815260200160002060009054906101000a900460ff1680612bca57503373ffffffffffffffffffffffffffffffffffffffff16612bb261294c565b73ffffffffffffffffffffffffffffffffffffffff16145b612c09576040517f08c379a0000000000000000000000000000000000000000000000000000000008152600401612c0090613ef4565b60405180910390fd5b600860008273ffffffffffffffffffffffffffffffffffffffff1673ffffffffffffffffffffffffffffffffffffffff16815260200190815260200160002060009054906101000a900460ff16612c95576040517f08c379a0000000000000000000000000000000000000000000000000000000008152600401612c8c906146e0565b60405180910390fd5b6000600860008373ffffffffffffffffffffffffffffffffffffffff1673ffffffffffffffffffffffffffffffffffffffff16815260200190815260200160002060006101000a81548160ff0219169083151502179055508073ffffffffffffffffffffffffffffffffffffffff167f74317ab44bd96a4b18c5f1eee4104ecd55c3eb0a69795f59fb4b3ebe550a860060405160405180910390a250565b60086020528060005260406000206000915054906101000a900460ff1681565b600760003373ffffffffffffffffffffffffffffffffffffffff1673ffffffffffffffffffffffffffffffffffffffff16815260200190815260200160002060009054906101000a900460ff1680612ddd57503373ffffffffffffffffffffffffffffffffffffffff16612dc561294c565b73ffffffffffffffffffffffffffffffffffffffff16145b612e1c576040517f08c379a0000000000000000000000000000000000000000000000000000000008152600401612e1390613ef4565b60405180910390fd5b6003548110612e60576040517f08c379a0000000000000000000000000000000000000000000000000000000008152600401612e579061474c565b60405180910390fd5b600b600082815260200190815260200160002060030160009054906101000a900460ff1615612ec4576040517f08c379a0000000000000000000000000000000000000000000000000000000008152600401612ebb906147b8565b60405180910390fd5b6001600b600083815260200190815260200160002060030160006101000a81548160ff0219169083151502179055503373ffffffffffffffffffffffffffffffffffffffff16817fd00492650098d7f8856b4cfd50132f3c69ef3d6463f1869cfbd0ccfabf64ea9d60405160405180910390a350565b600d6020528060005260406000206000915054906101000a900460ff1681565b600760003373ffffffffffffffffffffffffffffffffffffffff1673ffffffffffffffffffffffffffffffffffffffff16815260200190815260200160002060009054906101000a900460ff1680612fe457503373ffffffffffffffffffffffffffffffffffffffff16612fcc61294c565b73ffffffffffffffffffffffffffffffffffffffff16145b613023576040517f08c379a000000000000000000000000000000000000000000000000000000000815260040161301a90613ef4565b60405180910390fd5b60006001549050816001819055507f3f48365421b6fd89f4702c341b2977602f921c96f606ab41254abab5fb79ab1581836040516130629291906142f4565b60405180910390a15050565b60046020528060005260406000206000915090508060000154908060010160009054906101000a900473ffffffffffffffffffffffffffffffffffffffff16908060020154908060030154908060040160009054906101000a900473ffffffffffffffffffffffffffffffffffffffff16908060040160149054906101000a900460ff16905086565b600760003373ffffffffffffffffffffffffffffffffffffffff1673ffffffffffffffffffffffffffffffffffffffff16815260200190815260200160002060009054906101000a900460ff168061318157503373ffffffffffffffffffffffffffffffffffffffff1661316961294c565b73ffffffffffffffffffffffffffffffffffffffff16145b6131c0576040517f08c379a00000000000000000000000000000000000000000000000000000000081526004016131b790613ef4565b60405180910390fd5b600860008373ffffffffffffffffffffffffffffffffffffffff1673ffffffffffffffffffffffffffffffffffffffff16815260200190815260200160002060009054906101000a900460ff1661324c576040517f08c379a0000000000000000000000000000000000000000000000000000000008152600401613243906146e0565b60405180910390fd5b80600960008473ffffffffffffffffffffffffffffffffffffffff1673ffffffffffffffffffffffffffffffffffffffff168152602001908152602001600020819055503373ffffffffffffffffffffffffffffffffffffffff168273ffffffffffffffffffffffffffffffffffffffff167f60f99d53b11182f64116ffb8b46848a60b4ba4321be11d873e8e03ea42741d6883426040516132ef9291906142f4565b60405180910390a35050565b600b6020528060005260406000206000915090508060000160009054906101000a900473ffffffffffffffffffffffffffffffffffffffff16908060010154908060020154908060030160009054906101000a900460ff16905084565b600760003373ffffffffffffffffffffffffffffffffffffffff1673ffffffffffffffffffffffffffffffffffffffff16815260200190815260200160002060009054906101000a900460ff16806133e257503373ffffffffffffffffffffffffffffffffffffffff166133ca61294c565b73ffffffffffffffffffffffffffffffffffffffff16145b613421576040517f08c379a000000000000000000000000000000000000000000000000000000000815260040161341890613ef4565b60405180910390fd5b600860008373ffffffffffffffffffffffffffffffffffffffff1673ffffffffffffffffffffffffffffffffffffffff16815260200190815260200160002060009054906101000a900460ff16156134ae576040517f08c379a00000000000000000000000000000000000000000000000000000000081526004016134a590614824565b60405180910390fd5b600d60008373ffffffffffffffffffffffffffffffffffffffff1673ffffffffffffffffffffffffffffffffffffffff16815260200190815260200160002060009054906101000a900460ff161561353b576040517f08c379a0000000000000000000000000000000000000000000000000000000008152600401613532906143fb565b60405180910390fd5b6001600860008473ffffffffffffffffffffffffffffffffffffffff1673ffffffffffffffffffffffffffffffffffffffff16815260200190815260200160002060006101000a81548160ff02191690831515021790555080600960008473ffffffffffffffffffffffffffffffffffffffff1673ffffffffffffffffffffffffffffffffffffffff168152602001908152602001600020819055508173ffffffffffffffffffffffffffffffffffffffff167ffb8f232b7a1d3d51060d32be9d6cf6808aa8f7dd043c8c20c4cfaf929ca9d48460405160405180910390a25050565b6136266137cb565b600073ffffffffffffffffffffffffffffffffffffffff168173ffffffffffffffffffffffffffffffffffffffff1603613695576040517f08c379a000000000000000000000000000000000000000000000000000000000815260040161368c906148b6565b60405180910390fd5b61369e81613849565b50565b600a6020528060005260406000206000915054906101000a900460ff1681565b6000600660008473ffffffffffffffffffffffffffffffffffffffff1673ffffffffffffffffffffffffffffffffffffffff168152602001908152602001600020905060005b81805490508110156137c5578282828154811061372757613726613dd4565b5b9060005260206000200154036137b25781600183805490506137499190613e45565b8154811061375a57613759613dd4565b5b906000526020600020015482828154811061377857613777613dd4565b5b906000526020600020018190555081805480613797576137966148d6565b5b600190038181906000526020600020016000905590556137c5565b80806137bd90613d8c565b915050613707565b50505050565b6137d361390d565b73ffffffffffffffffffffffffffffffffffffffff166137f161294c565b73ffffffffffffffffffffffffffffffffffffffff1614613847576040517f08c379a000000000000000000000000000000000000000000000000000000000815260040161383e90614951565b60405180910390fd5b565b60008060009054906101000a900473ffffffffffffffffffffffffffffffffffffffff169050816000806101000a81548173ffffffffffffffffffffffffffffffffffffffff021916908373ffffffffffffffffffffffffffffffffffffffff1602179055508173ffffffffffffffffffffffffffffffffffffffff168173ffffffffffffffffffffffffffffffffffffffff167f8be0079c531659141344cd1fd0a4f28419497f9722a3daafe3b4186f6b6457e060405160405180910390a35050565b600033905090565b600080fd5b600073ffffffffffffffffffffffffffffffffffffffff82169050919050565b60006139458261391a565b9050919050565b6139558161393a565b811461396057600080fd5b50565b6000813590506139728161394c565b92915050565b6000819050919050565b61398b81613978565b811461399657600080fd5b50565b6000813590506139a881613982565b92915050565b600080604083850312156139c5576139c4613915565b5b60006139d385828601613963565b92505060206139e485828601613999565b9150509250929050565b6139f781613978565b82525050565b6000602082019050613a1260008301846139ee565b92915050565b600060208284031215613a2e57613a2d613915565b5b6000613a3c84828501613963565b91505092915050565b60008115159050919050565b613a5a81613a45565b82525050565b6000602082019050613a756000830184613a51565b92915050565b600060208284031215613a9157613a90613915565b5b6000613a9f84828501613999565b91505092915050565b600081519050919050565b600082825260208201905092915050565b6000819050602082019050919050565b613add81613978565b82525050565b6000613aef8383613ad4565b60208301905092915050565b6000602082019050919050565b6000613b1382613aa8565b613b1d8185613ab3565b9350613b2883613ac4565b8060005b83811015613b59578151613b408882613ae3565b9750613b4b83613afb565b925050600181019050613b2c565b5085935050505092915050565b60006020820190508181036000830152613b808184613b08565b905092915050565b600080600060608486031215613ba157613ba0613915565b5b6000613baf86828701613963565b9350506020613bc086828701613999565b9250506040613bd186828701613999565b9150509250925092565b600081519050919050565b600082825260208201905092915050565b60005b83811015613c15578082015181840152602081019050613bfa565b60008484015250505050565b6000601f19601f8301169050919050565b6000613c3d82613bdb565b613c478185613be6565b9350613c57818560208601613bf7565b613c6081613c21565b840191505092915050565b60006020820190508181036000830152613c858184613c32565b905092915050565b613c968161393a565b82525050565b6000602082019050613cb16000830184613c8d565b92915050565b600060c082019050613ccc60008301896139ee565b613cd96020830188613c8d565b613ce660408301876139ee565b613cf360608301866139ee565b613d006080830185613c8d565b613d0d60a0830184613a51565b979650505050505050565b6000608082019050613d2d6000830187613c8d565b613d3a60208301866139ee565b613d4760408301856139ee565b613d546060830184613a51565b95945050505050565b7f4e487b7100000000000000000000000000000000000000000000000000000000600052601160045260246000fd5b6000613d9782613978565b91507fffffffffffffffffffffffffffffffffffffffffffffffffffffffffffffffff8203613dc957613dc8613d5d565b5b600182019050919050565b7f4e487b7100000000000000000000000000000000000000000000000000000000600052603260045260246000fd5b6000613e0e82613978565b9150613e1983613978565b9250828202613e2781613978565b91508282048414831517613e3e57613e3d613d5d565b5b5092915050565b6000613e5082613978565b9150613e5b83613978565b9250828203905081811115613e7357613e72613d5d565b5b92915050565b7f4e487b7100000000000000000000000000000000000000000000000000000000600052604160045260246000fd5b7f4e6f7420616e2061646d696e0000000000000000000000000000000000000000600082015250565b6000613ede600c83613be6565b9150613ee982613ea8565b602082019050919050565b60006020820190508181036000830152613f0d81613ed1565b9050919050565b7f41646472657373206973206e6f7420616e2061646d696e000000000000000000600082015250565b6000613f4a601783613be6565b9150613f5582613f14565b602082019050919050565b60006020820190508181036000830152613f7981613f3d565b9050919050565b6000613f8b82613978565b9150613f9683613978565b9250828201905080821115613fae57613fad613d5d565b5b92915050565b7f4163636f756e7420697320626c61636b6c697374656420666f7220616275736960008201527f76652073746f7261676500000000000000000000000000000000000000000000602082015250565b6000614010602a83613be6565b915061401b82613fb4565b604082019050919050565b6000602082019050818103600083015261403f81614003565b9050919050565b7f496e73756666696369656e742073746f636b0000000000000000000000000000600082015250565b600061407c601283613be6565b915061408782614046565b602082019050919050565b600060208201905081810360008301526140ab8161406f565b9050919050565b7f556e617574686f72697a6564207472616e736665720000000000000000000000600082015250565b60006140e8601583613be6565b91506140f3826140b2565b602082019050919050565b60006020820190508181036000830152614117816140db565b9050919050565b7f526563697069656e74206e6f7420617574686f72697a65640000000000000000600082015250565b6000614154601883613be6565b915061415f8261411e565b602082019050919050565b6000602082019050818103600083015261418381614147565b9050919050565b7f526563697069656e7420697320626c61636b6c697374656420666f722061627560008201527f736976652073746f726167650000000000000000000000000000000000000000602082015250565b60006141e6602c83613be6565b91506141f18261418a565b604082019050919050565b60006020820190508181036000830152614215816141d9565b9050919050565b7f596f7520646f6e2774206f776e20746869732062617463680000000000000000600082015250565b6000614252601883613be6565b915061425d8261421c565b602082019050919050565b6000602082019050818103600083015261428181614245565b9050919050565b7f496e73756666696369656e74207175616e7469747920696e2062617463680000600082015250565b60006142be601e83613be6565b91506142c982614288565b602082019050919050565b600060208201905081810360008301526142ed816142b1565b9050919050565b600060408201905061430960008301856139ee565b61431660208301846139ee565b9392505050565b7f4164647265737320697320616c726561647920612070726f6475636572000000600082015250565b6000614353601d83613be6565b915061435e8261431d565b602082019050919050565b6000602082019050818103600083015261438281614346565b9050919050565b7f4164647265737320697320626c61636b6c697374656420666f7220616275736960008201527f76652073746f7261676500000000000000000000000000000000000000000000602082015250565b60006143e5602a83613be6565b91506143f082614389565b604082019050919050565b60006020820190508181036000830152614414816143d8565b9050919050565b7f41646472657373206973206e6f7420612070726f647563657200000000000000600082015250565b6000614451601983613be6565b915061445c8261441b565b602082019050919050565b6000602082019050818103600083015261448081614444565b9050919050565b7f5468726573686f6c64206d7573742062652067726561746572207468616e207a60008201527f65726f0000000000000000000000000000000000000000000000000000000000602082015250565b60006144e3602383613be6565b91506144ee82614487565b604082019050919050565b60006020820190508181036000830152614512816144d6565b9050919050565b7f41646472657373206973206e6f7420626c61636b6c6973746564000000000000600082015250565b600061454f601a83613be6565b915061455a82614519565b602082019050919050565b6000602082019050818103600083015261457e81614542565b9050919050565b7f4e6f7420616e20617574686f72697a65642070726f6475636572000000000000600082015250565b60006145bb601a83613be6565b91506145c682614585565b602082019050919050565b600060208201905081810360008301526145ea816145ae565b9050919050565b600060608201905061460660008301866139ee565b61461360208301856139ee565b61462060408301846139ee565b949350505050565b7f4164647265737320697320616c726561647920616e2061646d696e0000000000600082015250565b600061465e601b83613be6565b915061466982614628565b602082019050919050565b6000602082019050818103600083015261468d81614651565b9050919050565b7f41646472657373206973206e6f74206120726573656c6c657200000000000000600082015250565b60006146ca601983613be6565b91506146d582614694565b602082019050919050565b600060208201905081810360008301526146f9816146bd565b9050919050565b7f56696f6c6174696f6e20646f6573206e6f742065786973740000000000000000600082015250565b6000614736601883613be6565b915061474182614700565b602082019050919050565b6000602082019050818103600083015261476581614729565b9050919050565b7f56696f6c6174696f6e20616c7265616479207265736f6c766564000000000000600082015250565b60006147a2601a83613be6565b91506147ad8261476c565b602082019050919050565b600060208201905081810360008301526147d181614795565b9050919050565b7f4164647265737320697320616c7265616479206120726573656c6c6572000000600082015250565b600061480e601d83613be6565b9150614819826147d8565b602082019050919050565b6000602082019050818103600083015261483d81614801565b9050919050565b7f4f776e61626c653a206e6577206f776e657220697320746865207a65726f206160008201527f6464726573730000000000000000000000000000000000000000000000000000602082015250565b60006148a0602683613be6565b91506148ab82614844565b604082019050919050565b600060208201905081810360008301526148cf81614893565b9050919050565b7f4e487b7100000000000000000000000000000000000000000000000000000000600052603160045260246000fd5b7f4f776e61626c653a2063616c6c6572206973206e6f7420746865206f776e6572600082015250565b600061493b602083613be6565b915061494682614905565b602082019050919050565b6000602082019050818103600083015261496a8161492e565b905091905056fea2646970667358221220f900e0a33130f2b661e0ce58799799657782868fcbdc815a24034b38d77cec1d64736f6c63430008130033",
  "immutableReferences": {},
  "source": "// SPDX-License-Identifier: MIT\r\npragma solidity ^0.8.19;\r\n\r\nimport \"@openzeppelin/contracts/access/Ownable.sol\";\r\n\r\n\r\ncontract MilkSupplyChain is Ownable {\r\n    struct Batch {\r\n        uint256 id;\r\n        address producer;\r\n        uint256 quantity;\r\n        uint256 timestamp;\r\n        address currentOwner;\r\n        bool expired;\r\n    }\r\n    \r\n    struct StorageViolation {\r\n        address holder;\r\n        uint256 batchId;\r\n        uint256 detectionTime;\r\n        bool resolved;\r\n    }\r\n    \r\n    uint256 public maxStorageDuration = 30 days;\r\n    uint256 public nextBatchId;\r\n    uint256 public nextViolationId;\r\n    \r\n    mapping(uint256 => Batch) public batches;\r\n    mapping(address => uint256) public stockBalance;\r\n    mapping(address => uint256[]) public batchesByOwner;\r\n    \r\n    // Role management\r\n    mapping(address => bool) public isAdmin;\r\n    mapping(address => bool) public isReseller;\r\n    mapping(address => uint256) public maxQuantityPerReseller;\r\n    mapping(address => bool) public isProducer;\r\n    \r\n    // mappings mtaa violations\r\n    mapping(uint256 => StorageViolation) public violations;\r\n    mapping(address => uint256[]) public violationsByHolder;\r\n    mapping(address => bool) public blacklistedHolders;\r\n    uint256 public violationThreshold = 3; // 9d'h men violation 9bal me yetbanna\r\n    \r\n    // Events\r\n    event Produced(uint256 batchId, address indexed producer, uint256 quantity, uint256 timestamp);\r\n    event ResellerChanged(address indexed reseller, address indexed admin, uint256 maxQuantity, uint256 timestamp);\r\n    event Transferred(address indexed from, address indexed to, uint256 quantity, uint256 batchId);\r\n    event AdminAdded(address indexed admin);\r\n    event AdminRemoved(address indexed admin);\r\n    event ResellerAdded(address indexed reseller);\r\n    event ProducerAdded(address indexed producer);\r\n    event ResellerRemoved(address indexed reseller);\r\n    event ProducerRemoved(address indexed producer);\r\n    event BatchExpired(uint256 indexed batchId, address indexed owner, uint256 expiryTime);\r\n    event MaxStorageDurationChanged(uint256 oldDuration, uint256 newDuration);\r\n    event AbusiveStorageDetected(uint256 indexed violationId, address indexed holder, uint256 indexed batchId, uint256 detectionTime);\r\n    event ViolationResolved(uint256 indexed violationId, address indexed resolver);\r\n    event HolderBlacklisted(address indexed holder, uint256 violationCount);\r\n    event HolderRemovedFromBlacklist(address indexed holder);\r\n    event ViolationThresholdChanged(uint256 oldThreshold, uint256 newThreshold);\r\n    \r\n    modifier onlyAdmin() {\r\n        require(isAdmin[msg.sender] || owner() == msg.sender, \"Not an admin\");\r\n        _;\r\n    }\r\n    \r\n    modifier onlyProducer() {\r\n        require(isProducer[msg.sender], \"Not an authorized producer\");\r\n        _;\r\n    }\r\n    \r\n    modifier onlyReseller() {\r\n        require(isReseller[msg.sender], \"Not an authorized reseller\");\r\n        _;\r\n    }\r\n    \r\n    modifier notBlacklisted() {\r\n        require(!blacklistedHolders[msg.sender], \"Account is blacklisted for abusive storage\");\r\n        _;\r\n\r\n    }\r\n    constructor() {\r\n    _transferOwnership(msg.sender);\r\n    isAdmin[msg.sender] = true;\r\n    emit AdminAdded(msg.sender);\r\n}\r\n\r\n    \r\n    function addAdmin(address account) external onlyAdmin {\r\n        require(!isAdmin[account], \"Address is already an admin\");\r\n        isAdmin[account] = true;\r\n        emit AdminAdded(account);\r\n    }\r\n    \r\n    function removeAdmin(address account) external onlyAdmin {\r\n        require(isAdmin[account], \"Address is not an admin\");\r\n        isAdmin[account] = false;\r\n        emit AdminRemoved(account);\r\n    }\r\n    \r\n    function setReseller(address account, uint256 maxQuantity) external onlyAdmin {\r\n        require(!isReseller[account], \"Address is already a reseller\");\r\n        require(!blacklistedHolders[account], \"Address is blacklisted for abusive storage\");\r\n        isReseller[account] = true;\r\n        maxQuantityPerReseller[account] = maxQuantity;\r\n        emit ResellerAdded(account);\r\n    }\r\n    \r\n    function changeMaxQuantityReseller(address account, uint256 maxQuantity) external onlyAdmin {\r\n        require(isReseller[account], \"Address is not a reseller\");\r\n        maxQuantityPerReseller[account] = maxQuantity;\r\n        emit ResellerChanged(account, msg.sender, maxQuantity, block.timestamp);\r\n    }\r\n    \r\n    function removeReseller(address account) external onlyAdmin {\r\n        require(isReseller[account], \"Address is not a reseller\");\r\n        isReseller[account] = false;\r\n        emit ResellerRemoved(account);\r\n    }\r\n    \r\n    function setProducer(address account) external onlyAdmin {\r\n        require(!isProducer[account], \"Address is already a producer\");\r\n        require(!blacklistedHolders[account], \"Address is blacklisted for abusive storage\");\r\n        isProducer[account] = true;\r\n        emit ProducerAdded(account);\r\n    }\r\n    \r\n    function removeProducer(address account) external onlyAdmin {\r\n        require(isProducer[account], \"Address is not a producer\");\r\n        isProducer[account] = false;\r\n        emit ProducerRemoved(account);\r\n    }\r\n    \r\n    function setMaxStorageDuration(uint256 newDuration) external onlyAdmin {\r\n        uint256 oldDuration = maxStorageDuration;\r\n        maxStorageDuration = newDuration;\r\n        emit MaxStorageDurationChanged(oldDuration, newDuration);\r\n    }\r\n    \r\n    function setViolationThreshold(uint256 newThreshold) external onlyAdmin {\r\n        require(newThreshold > 0, \"Threshold must be greater than zero\");\r\n        uint256 oldThreshold = violationThreshold;\r\n        violationThreshold = newThreshold;\r\n        emit ViolationThresholdChanged(oldThreshold, newThreshold);\r\n    }\r\n    \r\n    function produce(uint256 quantity) external onlyProducer notBlacklisted {\r\n        uint256 batchId = nextBatchId++;\r\n        batches[batchId] = Batch({\r\n            id: batchId,\r\n            producer: msg.sender,\r\n            quantity: quantity,\r\n            timestamp: block.timestamp,\r\n            currentOwner: msg.sender,\r\n            expired: false\r\n        });\r\n        \r\n        stockBalance[msg.sender] += quantity;\r\n        batchesByOwner[msg.sender].push(batchId);\r\n        \r\n        emit Produced(batchId, msg.sender, quantity, block.timestamp);\r\n    }\r\n    \r\n    function transferStock(address to, uint256 amount, uint256 batchId) external notBlacklisted {\r\n        require(stockBalance[msg.sender] >= amount, \"Insufficient stock\");\r\n        require(isProducer[msg.sender] || isReseller[msg.sender], \"Unauthorized transfer\");\r\n        require(isReseller[to], \"Recipient not authorized\");\r\n        require(!blacklistedHolders[to], \"Recipient is blacklisted for abusive storage\");\r\n        require(batches[batchId].currentOwner == msg.sender, \"You don't own this batch\");\r\n        require(batches[batchId].quantity >= amount, \"Insufficient quantity in batch\");\r\n        \r\n        // Check for abusive storage\r\n        checkForAbusiveStorage(batchId);\r\n        \r\n        if (amount == batches[batchId].quantity) {\r\n            // ken kad eli talbou kad fil batch aatih elbatch\r\n            batches[batchId].currentOwner = to;\r\n            removeBatchFromOwner(msg.sender, batchId);\r\n            batchesByOwner[to].push(batchId);\r\n        } else {\r\n            // snn aamel batch jdid nafs eldonnee\r\n            //quantite kad eli tablou\r\n            uint256 newBatchId = nextBatchId++;\r\n            batches[newBatchId] = Batch({\r\n                id: newBatchId,\r\n                producer: batches[batchId].producer,\r\n                quantity: amount,\r\n                timestamp: batches[batchId].timestamp, \r\n                currentOwner: to,\r\n                expired: false\r\n            });\r\n            \r\n            // mise ajour batch original\r\n            batches[batchId].quantity -= amount;\r\n            \r\n            // aatih lil jdid\r\n            batchesByOwner[to].push(newBatchId);\r\n        }\r\n        \r\n        stockBalance[msg.sender] -= amount;\r\n        stockBalance[to] += amount;\r\n        \r\n        emit Transferred(msg.sender, to, amount, batchId);\r\n    }\r\n    \r\n    function checkForAbusiveStorage(uint256 batchId) public returns (bool) {\r\n        Batch storage batch = batches[batchId];\r\n        \r\n        if (block.timestamp > batch.timestamp + maxStorageDuration) {\r\n            // Report violation\r\n            uint256 violationId = nextViolationId++;\r\n            violations[violationId] = StorageViolation({\r\n                holder: batch.currentOwner,\r\n                batchId: batchId,\r\n                detectionTime: block.timestamp,\r\n                resolved: false\r\n            });\r\n            \r\n            violationsByHolder[batch.currentOwner].push(violationId);\r\n            \r\n            emit AbusiveStorageDetected(violationId, batch.currentOwner, batchId, block.timestamp);\r\n            \r\n            // holder  blacklisted??\r\n            if (violationsByHolder[batch.currentOwner].length >= violationThreshold) {\r\n                blacklistedHolders[batch.currentOwner] = true;\r\n                emit HolderBlacklisted(batch.currentOwner, violationsByHolder[batch.currentOwner].length);\r\n            }\r\n            \r\n            return true;\r\n        }\r\n        \r\n        return false;\r\n    }\r\n    \r\n    function resolveViolation(uint256 violationId) external onlyAdmin {\r\n        require(violationId < nextViolationId, \"Violation does not exist\");\r\n        require(!violations[violationId].resolved, \"Violation already resolved\");\r\n        \r\n        violations[violationId].resolved = true;\r\n        emit ViolationResolved(violationId, msg.sender);\r\n    }\r\n    \r\n    function removeFromBlacklist(address holder) external onlyAdmin {\r\n        require(blacklistedHolders[holder], \"Address is not blacklisted\");\r\n        blacklistedHolders[holder] = false;\r\n        emit HolderRemovedFromBlacklist(holder);\r\n    }\r\n    \r\n    function checkAllBatchesForAbusiveStorage() external returns (uint256) {\r\n        uint256 violationCount = 0;\r\n        \r\n        for (uint256 i = 0; i < nextBatchId; i++) {\r\n            if (batches[i].quantity > 0) {\r\n                if (checkForAbusiveStorage(i)) {\r\n                    violationCount++;\r\n                }\r\n            }\r\n        }\r\n        \r\n        return violationCount;\r\n    }\r\n    \r\n    function getActiveViolationsByHolder(address holder) external view returns (uint256[] memory) {\r\n        uint256[] storage allViolations = violationsByHolder[holder];\r\n        uint256 activeCount = 0;\r\n        \r\n        // Count active violations\r\n        for (uint256 i = 0; i < allViolations.length; i++) {\r\n            if (!violations[allViolations[i]].resolved) {\r\n                activeCount++;\r\n            }\r\n        }\r\n        \r\n        // Create result array\r\n        uint256[] memory activeViolations = new uint256[](activeCount);\r\n        uint256 index = 0;\r\n        \r\n        // Populate result array\r\n        for (uint256 i = 0; i < allViolations.length; i++) {\r\n            if (!violations[allViolations[i]].resolved) {\r\n                activeViolations[index] = allViolations[i];\r\n                index++;\r\n            }\r\n        }\r\n        \r\n        return activeViolations;\r\n    }\r\n    \r\n    function getBatchesNearingViolation(uint256 daysThreshold) external view returns (uint256[] memory) {\r\n        uint256 warningTime = maxStorageDuration - (daysThreshold * 1 days);\r\n        uint256 count = 0;\r\n        \r\n        // Count qualifying batches\r\n        for (uint256 i = 0; i < nextBatchId; i++) {\r\n            if (batches[i].quantity > 0) {\r\n                uint256 batchAge = block.timestamp - batches[i].timestamp;\r\n                if (batchAge > warningTime && batchAge <= maxStorageDuration) {\r\n                    count++;\r\n                }\r\n            }\r\n        }\r\n        \r\n        // Create result array\r\n        uint256[] memory warningBatches = new uint256[](count);\r\n        uint256 index = 0;\r\n        \r\n        // Populate result array\r\n        for (uint256 i = 0; i < nextBatchId; i++) {\r\n            if (batches[i].quantity > 0) {\r\n                uint256 batchAge = block.timestamp - batches[i].timestamp;\r\n                if (batchAge > warningTime && batchAge <= maxStorageDuration) {\r\n                    warningBatches[index] = i;\r\n                    index++;\r\n                }\r\n            }\r\n        }\r\n        \r\n        return warningBatches;\r\n    }\r\n    \r\n    function getBatchesByOwner(address owner) external view returns (uint256[] memory) {\r\n        return batchesByOwner[owner];\r\n    }\r\n    \r\n    function removeBatchFromOwner(address owner, uint256 batchId) private {\r\n        uint256[] storage ownerBatches = batchesByOwner[owner];\r\n        for (uint256 i = 0; i < ownerBatches.length; i++) {\r\n            if (ownerBatches[i] == batchId) {\r\n                // Replace with last element and pop\r\n                ownerBatches[i] = ownerBatches[ownerBatches.length - 1];\r\n                ownerBatches.pop();\r\n                break;\r\n            }\r\n        }\r\n    }\r\n    \r\n    function isHolderViolatingStorageRules(address holder) external view returns (bool) {\r\n        uint256[] storage holderViolations = violationsByHolder[holder];\r\n        uint256 activeViolations = 0;\r\n        \r\n        for (uint256 i = 0; i < holderViolations.length; i++) {\r\n            if (!violations[holderViolations[i]].resolved) {\r\n                activeViolations++;\r\n            }\r\n        }\r\n        \r\n        return activeViolations > 0;\r\n    }\r\n\r\n    function getRole(address account) external view returns (string memory) {\r\n        if (isAdmin[account]) return \"admin\";\r\n        if (isProducer[account]) return \"producer\";\r\n        if (isReseller[account]) return \"reseller\";\r\n        return \"unknown\";\r\n    }\r\n}",
  "sourcePath": "C:\\Users\\USER\\abusive-storage-detection\\contracts\\MilkSupplyChain.sol",
  "compiler": {
    "name": "solc",
    "version": "0.8.19+commit.7dd6d404.Emscripten.clang"
  },
  "schemaVersion": "3.4.16",
  "updatedAt": "2025-04-23T08:19:08.828Z",
  "networkType": "ethereum",
  "devdoc": {
    "kind": "dev",
    "methods": {
      "owner()": {
        "details": "Returns the address of the current owner."
      },
      "renounceOwnership()": {
        "details": "Leaves the contract without owner. It will not be possible to call `onlyOwner` functions. Can only be called by the current owner. NOTE: Renouncing ownership will leave the contract without an owner, thereby disabling any functionality that is only available to the owner."
      },
      "transferOwnership(address)": {
        "details": "Transfers ownership of the contract to a new account (`newOwner`). Can only be called by the current owner."
      }
    },
    "version": 1
  },
  "userdoc": {
    "kind": "user",
    "methods": {},
    "version": 1
  }
}