{
  "contractName": "AbusiveStorage",
  "abi": [
    {
      "inputs": [],
      "stateMutability": "nonpayable",
      "type": "constructor"
    },
    {
      "anonymous": false,
      "inputs": [
        {
          "indexed": true,
          "internalType": "address",
          "name": "user",
          "type": "address"
        },
        {
          "indexed": false,
          "internalType": "uint256",
          "name": "amount",
          "type": "uint256"
        }
      ],
      "name": "AbusiveStorageDetected",
      "type": "event"
    },
    {
      "anonymous": false,
      "inputs": [
        {
          "indexed": true,
          "internalType": "address",
          "name": "user",
          "type": "address"
        },
        {
          "indexed": false,
          "internalType": "uint256",
          "name": "amount",
          "type": "uint256"
        }
      ],
      "name": "StorageUsed",
      "type": "event"
    },
    {
      "inputs": [],
      "name": "admin",
      "outputs": [
        {
          "internalType": "address",
          "name": "",
          "type": "address"
        }
      ],
      "stateMutability": "view",
      "type": "function",
      "constant": true
    },
    {
      "inputs": [],
      "name": "storageLimit",
      "outputs": [
        {
          "internalType": "uint256",
          "name": "",
          "type": "uint256"
        }
      ],
      "stateMutability": "view",
      "type": "function",
      "constant": true
    },
    {
      "inputs": [
        {
          "internalType": "address",
          "name": "",
          "type": "address"
        }
      ],
      "name": "userStorage",
      "outputs": [
        {
          "internalType": "uint256",
          "name": "",
          "type": "uint256"
        }
      ],
      "stateMutability": "view",
      "type": "function",
      "constant": true
    },
    {
      "inputs": [
        {
          "internalType": "uint256",
          "name": "amount",
          "type": "uint256"
        }
      ],
      "name": "storeData",
      "outputs": [],
      "stateMutability": "nonpayable",
      "type": "function"
    },
    {
      "inputs": [
        {
          "internalType": "uint256",
          "name": "newLimit",
          "type": "uint256"
        }
      ],
      "name": "setStorageLimit",
      "outputs": [],
      "stateMutability": "nonpayable",
      "type": "function"
    },
    {
      "inputs": [
        {
          "internalType": "address",
          "name": "user",
          "type": "address"
        }
      ],
      "name": "getUserStorage",
      "outputs": [
        {
          "internalType": "uint256",
          "name": "",
          "type": "uint256"
        }
      ],
      "stateMutability": "view",
      "type": "function",
      "constant": true
    }
  ],
  "bytecode": "0x60806040526103e860025534801561001657600080fd5b50336000806101000a81548173ffffffffffffffffffffffffffffffffffffffff021916908373ffffffffffffffffffffffffffffffffffffffff160217905550610639806100666000396000f3fe608060405234801561001057600080fd5b50600436106100625760003560e01c806306e671a11461006757806316b9517614610085578063b3c156da146100a1578063b6ae9be8146100bd578063e655dfca146100ed578063f851a4401461011d575b600080fd5b61006f61013b565b60405161007c91906103f5565b60405180910390f35b61009f600480360381019061009a9190610441565b610141565b005b6100bb60048036038101906100b69190610441565b6102bf565b005b6100d760048036038101906100d291906104cc565b610357565b6040516100e491906103f5565b60405180910390f35b610107600480360381019061010291906104cc565b6103a0565b60405161011491906103f5565b60405180910390f35b6101256103b8565b6040516101329190610508565b60405180910390f35b60025481565b80600160003373ffffffffffffffffffffffffffffffffffffffff1673ffffffffffffffffffffffffffffffffffffffff16815260200190815260200160002060008282546101909190610552565b925050819055503373ffffffffffffffffffffffffffffffffffffffff167faea1568af7c021f94532afee75e7c13d16d14cea4f8314d076eb33bb93461c80826040516101dd91906103f5565b60405180910390a2600254600160003373ffffffffffffffffffffffffffffffffffffffff1673ffffffffffffffffffffffffffffffffffffffff1681526020019081526020016000205411156102bc573373ffffffffffffffffffffffffffffffffffffffff167f82f4601f8446e24f242e0a2e5b0379499d8907b6e8f32b94e0469093199b8a09600160003373ffffffffffffffffffffffffffffffffffffffff1673ffffffffffffffffffffffffffffffffffffffff168152602001908152602001600020546040516102b391906103f5565b60405180910390a25b50565b60008054906101000a900473ffffffffffffffffffffffffffffffffffffffff1673ffffffffffffffffffffffffffffffffffffffff163373ffffffffffffffffffffffffffffffffffffffff161461034d576040517f08c379a0000000000000000000000000000000000000000000000000000000008152600401610344906105e3565b60405180910390fd5b8060028190555050565b6000600160008373ffffffffffffffffffffffffffffffffffffffff1673ffffffffffffffffffffffffffffffffffffffff168152602001908152602001600020549050919050565b60016020528060005260406000206000915090505481565b60008054906101000a900473ffffffffffffffffffffffffffffffffffffffff1681565b6000819050919050565b6103ef816103dc565b82525050565b600060208201905061040a60008301846103e6565b92915050565b600080fd5b61041e816103dc565b811461042957600080fd5b50565b60008135905061043b81610415565b92915050565b60006020828403121561045757610456610410565b5b60006104658482850161042c565b91505092915050565b600073ffffffffffffffffffffffffffffffffffffffff82169050919050565b60006104998261046e565b9050919050565b6104a98161048e565b81146104b457600080fd5b50565b6000813590506104c6816104a0565b92915050565b6000602082840312156104e2576104e1610410565b5b60006104f0848285016104b7565b91505092915050565b6105028161048e565b82525050565b600060208201905061051d60008301846104f9565b92915050565b7f4e487b7100000000000000000000000000000000000000000000000000000000600052601160045260246000fd5b600061055d826103dc565b9150610568836103dc565b92508282019050808211156105805761057f610523565b5b92915050565b600082825260208201905092915050565b7f4f6e6c792061646d696e2063616e20736574206c696d69740000000000000000600082015250565b60006105cd601883610586565b91506105d882610597565b602082019050919050565b600060208201905081810360008301526105fc816105c0565b905091905056fea2646970667358221220b54e6e1ea8a360024f638d613b14632d9b112dd529a23dcb7ec5a7d65d6a3ca164736f6c63430008110033",
  "immutableReferences": {},
  "source": "// SPDX-License-Identifier: MIT\r\npragma solidity ^0.8.0;\r\n\r\ncontract AbusiveStorage {\r\n    address public admin;\r\n    mapping(address => uint256) public userStorage;\r\n    uint256 public storageLimit = 1000;\r\n\r\n    event StorageUsed(address indexed user, uint256 amount);\r\n    event AbusiveStorageDetected(address indexed user, uint256 amount);\r\n\r\n    constructor() {\r\n        admin = msg.sender;\r\n    }\r\n\r\n    function storeData(uint256 amount) public {\r\n        userStorage[msg.sender] += amount;\r\n        emit StorageUsed(msg.sender, amount);\r\n\r\n        if (userStorage[msg.sender] > storageLimit) {\r\n            emit AbusiveStorageDetected(msg.sender, userStorage[msg.sender]);\r\n        }\r\n    }\r\n\r\n    function setStorageLimit(uint256 newLimit) public {\r\n        require(msg.sender == admin, \"Only admin can set limit\");\r\n        storageLimit = newLimit;\r\n    }\r\n\r\n    function getUserStorage(address user) public view returns (uint256) {\r\n        return userStorage[user];\r\n    }\r\n}\r\n",
  "sourcePath": "C:\\Users\\USER\\abusive-storage-detection\\contracts\\AbusiveStorage.sol",
  "compiler": {
    "name": "solc",
    "version": "0.8.17+commit.8df45f5f.Emscripten.clang"
  },
  "schemaVersion": "3.4.16",
  "updatedAt": "2025-03-28T21:38:46.617Z",
  "networkType": "ethereum",
  "devdoc": {
    "kind": "dev",
    "methods": {},
    "version": 1
  },
  "userdoc": {
    "kind": "user",
    "methods": {},
    "version": 1
  }
}