{
  "contractName": "MilkSupplyChain",
  "abi": [
    {
      "inputs": [],
      "stateMutability": "nonpayable",
      "type": "constructor"
    },
    {
      "anonymous": false,
      "inputs": [
        {
          "indexed": true,
          "internalType": "uint256",
          "name": "violationId",
          "type": "uint256"
        },
        {
          "indexed": true,
          "internalType": "address",
          "name": "holder",
          "type": "address"
        },
        {
          "indexed": true,
          "internalType": "uint256",
          "name": "batchId",
          "type": "uint256"
        },
        {
          "indexed": false,
          "internalType": "uint256",
          "name": "detectionTime",
          "type": "uint256"
        }
      ],
      "name": "AbusiveStorageDetected",
      "type": "event"
    },
    {
      "anonymous": false,
      "inputs": [
        {
          "indexed": true,
          "internalType": "address",
          "name": "admin",
          "type": "address"
        }
      ],
      "name": "AdminAdded",
      "type": "event"
    },
    {
      "anonymous": false,
      "inputs": [
        {
          "indexed": true,
          "internalType": "address",
          "name": "admin",
          "type": "address"
        }
      ],
      "name": "AdminRemoved",
      "type": "event"
    },
    {
      "anonymous": false,
      "inputs": [
        {
          "indexed": true,
          "internalType": "uint256",
          "name": "batchId",
          "type": "uint256"
        },
        {
          "indexed": true,
          "internalType": "address",
          "name": "owner",
          "type": "address"
        },
        {
          "indexed": false,
          "internalType": "uint256",
          "name": "expiryTime",
          "type": "uint256"
        }
      ],
      "name": "BatchExpired",
      "type": "event"
    },
    {
      "anonymous": false,
      "inputs": [
        {
          "indexed": true,
          "internalType": "address",
          "name": "holder",
          "type": "address"
        },
        {
          "indexed": false,
          "internalType": "uint256",
          "name": "violationCount",
          "type": "uint256"
        }
      ],
      "name": "HolderBlacklisted",
      "type": "event"
    },
    {
      "anonymous": false,
      "inputs": [
        {
          "indexed": true,
          "internalType": "address",
          "name": "holder",
          "type": "address"
        }
      ],
      "name": "HolderRemovedFromBlacklist",
      "type": "event"
    },
    {
      "anonymous": false,
      "inputs": [
        {
          "indexed": false,
          "internalType": "uint256",
          "name": "oldDuration",
          "type": "uint256"
        },
        {
          "indexed": false,
          "internalType": "uint256",
          "name": "newDuration",
          "type": "uint256"
        }
      ],
      "name": "MaxStorageDurationChanged",
      "type": "event"
    },
    {
      "anonymous": false,
      "inputs": [
        {
          "indexed": true,
          "internalType": "address",
          "name": "previousOwner",
          "type": "address"
        },
        {
          "indexed": true,
          "internalType": "address",
          "name": "newOwner",
          "type": "address"
        }
      ],
      "name": "OwnershipTransferred",
      "type": "event"
    },
    {
      "anonymous": false,
      "inputs": [
        {
          "indexed": false,
          "internalType": "uint256",
          "name": "batchId",
          "type": "uint256"
        },
        {
          "indexed": true,
          "internalType": "address",
          "name": "producer",
          "type": "address"
        },
        {
          "indexed": false,
          "internalType": "uint256",
          "name": "quantity",
          "type": "uint256"
        },
        {
          "indexed": false,
          "internalType": "uint256",
          "name": "timestamp",
          "type": "uint256"
        }
      ],
      "name": "Produced",
      "type": "event"
    },
    {
      "anonymous": false,
      "inputs": [
        {
          "indexed": true,
          "internalType": "address",
          "name": "producer",
          "type": "address"
        }
      ],
      "name": "ProducerAdded",
      "type": "event"
    },
    {
      "anonymous": false,
      "inputs": [
        {
          "indexed": true,
          "internalType": "address",
          "name": "producer",
          "type": "address"
        }
      ],
      "name": "ProducerRemoved",
      "type": "event"
    },
    {
      "anonymous": false,
      "inputs": [
        {
          "indexed": true,
          "internalType": "address",
          "name": "reseller",
          "type": "address"
        }
      ],
      "name": "ResellerAdded",
      "type": "event"
    },
    {
      "anonymous": false,
      "inputs": [
        {
          "indexed": true,
          "internalType": "address",
          "name": "reseller",
          "type": "address"
        },
        {
          "indexed": true,
          "internalType": "address",
          "name": "admin",
          "type": "address"
        },
        {
          "indexed": false,
          "internalType": "uint256",
          "name": "maxQuantity",
          "type": "uint256"
        },
        {
          "indexed": false,
          "internalType": "uint256",
          "name": "timestamp",
          "type": "uint256"
        }
      ],
      "name": "ResellerChanged",
      "type": "event"
    },
    {
      "anonymous": false,
      "inputs": [
        {
          "indexed": true,
          "internalType": "address",
          "name": "reseller",
          "type": "address"
        }
      ],
      "name": "ResellerRemoved",
      "type": "event"
    },
    {
      "anonymous": false,
      "inputs": [
        {
          "indexed": true,
          "internalType": "address",
          "name": "from",
          "type": "address"
        },
        {
          "indexed": true,
          "internalType": "address",
          "name": "to",
          "type": "address"
        },
        {
          "indexed": false,
          "internalType": "uint256",
          "name": "quantity",
          "type": "uint256"
        },
        {
          "indexed": false,
          "internalType": "uint256",
          "name": "batchId",
          "type": "uint256"
        }
      ],
      "name": "Transferred",
      "type": "event"
    },
    {
      "anonymous": false,
      "inputs": [
        {
          "indexed": true,
          "internalType": "uint256",
          "name": "violationId",
          "type": "uint256"
        },
        {
          "indexed": true,
          "internalType": "address",
          "name": "resolver",
          "type": "address"
        }
      ],
      "name": "ViolationResolved",
      "type": "event"
    },
    {
      "anonymous": false,
      "inputs": [
        {
          "indexed": false,
          "internalType": "uint256",
          "name": "oldThreshold",
          "type": "uint256"
        },
        {
          "indexed": false,
          "internalType": "uint256",
          "name": "newThreshold",
          "type": "uint256"
        }
      ],
      "name": "ViolationThresholdChanged",
      "type": "event"
    },
    {
      "inputs": [
        {
          "internalType": "address",
          "name": "",
          "type": "address"
        }
      ],
      "name": "addressName",
      "outputs": [
        {
          "internalType": "string",
          "name": "",
          "type": "string"
        }
      ],
      "stateMutability": "view",
      "type": "function"
    },
    {
      "inputs": [
        {
          "internalType": "address",
          "name": "",
          "type": "address"
        }
      ],
      "name": "addressPosition",
      "outputs": [
        {
          "internalType": "uint256",
          "name": "latitude",
          "type": "uint256"
        },
        {
          "internalType": "uint256",
          "name": "longitude",
          "type": "uint256"
        }
      ],
      "stateMutability": "view",
      "type": "function"
    },
    {
      "inputs": [
        {
          "internalType": "uint256",
          "name": "",
          "type": "uint256"
        }
      ],
      "name": "batches",
      "outputs": [
        {
          "internalType": "uint256",
          "name": "id",
          "type": "uint256"
        },
        {
          "internalType": "address",
          "name": "producer",
          "type": "address"
        },
        {
          "internalType": "uint256",
          "name": "quantity",
          "type": "uint256"
        },
        {
          "internalType": "uint256",
          "name": "timestamp",
          "type": "uint256"
        },
        {
          "internalType": "address",
          "name": "currentOwner",
          "type": "address"
        },
        {
          "internalType": "bool",
          "name": "expired",
          "type": "bool"
        }
      ],
      "stateMutability": "view",
      "type": "function"
    },
    {
      "inputs": [
        {
          "internalType": "address",
          "name": "",
          "type": "address"
        },
        {
          "internalType": "uint256",
          "name": "",
          "type": "uint256"
        }
      ],
      "name": "batchesByOwner",
      "outputs": [
        {
          "internalType": "uint256",
          "name": "",
          "type": "uint256"
        }
      ],
      "stateMutability": "view",
      "type": "function"
    },
    {
      "inputs": [
        {
          "internalType": "address",
          "name": "",
          "type": "address"
        }
      ],
      "name": "blacklistedHolders",
      "outputs": [
        {
          "internalType": "bool",
          "name": "",
          "type": "bool"
        }
      ],
      "stateMutability": "view",
      "type": "function"
    },
    {
      "inputs": [
        {
          "internalType": "address",
          "name": "",
          "type": "address"
        }
      ],
      "name": "isAdmin",
      "outputs": [
        {
          "internalType": "bool",
          "name": "",
          "type": "bool"
        }
      ],
      "stateMutability": "view",
      "type": "function"
    },
    {
      "inputs": [
        {
          "internalType": "address",
          "name": "",
          "type": "address"
        }
      ],
      "name": "isProducer",
      "outputs": [
        {
          "internalType": "bool",
          "name": "",
          "type": "bool"
        }
      ],
      "stateMutability": "view",
      "type": "function"
    },
    {
      "inputs": [
        {
          "internalType": "address",
          "name": "",
          "type": "address"
        }
      ],
      "name": "isReseller",
      "outputs": [
        {
          "internalType": "bool",
          "name": "",
          "type": "bool"
        }
      ],
      "stateMutability": "view",
      "type": "function"
    },
    {
      "inputs": [
        {
          "internalType": "address",
          "name": "",
          "type": "address"
        }
      ],
      "name": "maxQuantityPerReseller",
      "outputs": [
        {
          "internalType": "uint256",
          "name": "",
          "type": "uint256"
        }
      ],
      "stateMutability": "view",
      "type": "function"
    },
    {
      "inputs": [],
      "name": "maxStorageDuration",
      "outputs": [
        {
          "internalType": "uint256",
          "name": "",
          "type": "uint256"
        }
      ],
      "stateMutability": "view",
      "type": "function"
    },
    {
      "inputs": [],
      "name": "nextBatchId",
      "outputs": [
        {
          "internalType": "uint256",
          "name": "",
          "type": "uint256"
        }
      ],
      "stateMutability": "view",
      "type": "function"
    },
    {
      "inputs": [],
      "name": "nextViolationId",
      "outputs": [
        {
          "internalType": "uint256",
          "name": "",
          "type": "uint256"
        }
      ],
      "stateMutability": "view",
      "type": "function"
    },
    {
      "inputs": [],
      "name": "owner",
      "outputs": [
        {
          "internalType": "address",
          "name": "",
          "type": "address"
        }
      ],
      "stateMutability": "view",
      "type": "function"
    },
    {
      "inputs": [],
      "name": "renounceOwnership",
      "outputs": [],
      "stateMutability": "nonpayable",
      "type": "function"
    },
    {
      "inputs": [
        {
          "internalType": "address",
          "name": "",
          "type": "address"
        }
      ],
      "name": "stockBalance",
      "outputs": [
        {
          "internalType": "uint256",
          "name": "",
          "type": "uint256"
        }
      ],
      "stateMutability": "view",
      "type": "function"
    },
    {
      "inputs": [],
      "name": "totalProducers",
      "outputs": [
        {
          "internalType": "uint256",
          "name": "",
          "type": "uint256"
        }
      ],
      "stateMutability": "view",
      "type": "function"
    },
    {
      "inputs": [],
      "name": "totalResellers",
      "outputs": [
        {
          "internalType": "uint256",
          "name": "",
          "type": "uint256"
        }
      ],
      "stateMutability": "view",
      "type": "function"
    },
    {
      "inputs": [],
      "name": "totalViolations",
      "outputs": [
        {
          "internalType": "uint256",
          "name": "",
          "type": "uint256"
        }
      ],
      "stateMutability": "view",
      "type": "function"
    },
    {
      "inputs": [
        {
          "internalType": "address",
          "name": "newOwner",
          "type": "address"
        }
      ],
      "name": "transferOwnership",
      "outputs": [],
      "stateMutability": "nonpayable",
      "type": "function"
    },
    {
      "inputs": [],
      "name": "violationThreshold",
      "outputs": [
        {
          "internalType": "uint256",
          "name": "",
          "type": "uint256"
        }
      ],
      "stateMutability": "view",
      "type": "function"
    },
    {
      "inputs": [
        {
          "internalType": "uint256",
          "name": "",
          "type": "uint256"
        }
      ],
      "name": "violations",
      "outputs": [
        {
          "internalType": "enum MilkSupplyChain.ViolationType",
          "name": "violationType",
          "type": "uint8"
        },
        {
          "internalType": "address",
          "name": "holder",
          "type": "address"
        },
        {
          "internalType": "uint256",
          "name": "batchId",
          "type": "uint256"
        },
        {
          "internalType": "uint256",
          "name": "detectionTime",
          "type": "uint256"
        },
        {
          "internalType": "bool",
          "name": "resolved",
          "type": "bool"
        }
      ],
      "stateMutability": "view",
      "type": "function"
    },
    {
      "inputs": [
        {
          "internalType": "address",
          "name": "",
          "type": "address"
        },
        {
          "internalType": "uint256",
          "name": "",
          "type": "uint256"
        }
      ],
      "name": "violationsByHolder",
      "outputs": [
        {
          "internalType": "uint256",
          "name": "",
          "type": "uint256"
        }
      ],
      "stateMutability": "view",
      "type": "function"
    },
    {
      "inputs": [
        {
          "internalType": "address",
          "name": "account",
          "type": "address"
        }
      ],
      "name": "addAdmin",
      "outputs": [],
      "stateMutability": "nonpayable",
      "type": "function"
    },
    {
      "inputs": [
        {
          "internalType": "address",
          "name": "account",
          "type": "address"
        }
      ],
      "name": "removeAdmin",
      "outputs": [],
      "stateMutability": "nonpayable",
      "type": "function"
    },
    {
      "inputs": [
        {
          "internalType": "address",
          "name": "account",
          "type": "address"
        },
        {
          "internalType": "uint256",
          "name": "maxQuantity",
          "type": "uint256"
        }
      ],
      "name": "setReseller",
      "outputs": [],
      "stateMutability": "nonpayable",
      "type": "function"
    },
    {
      "inputs": [
        {
          "internalType": "address",
          "name": "account",
          "type": "address"
        },
        {
          "internalType": "uint256",
          "name": "maxQuantity",
          "type": "uint256"
        }
      ],
      "name": "changeMaxQuantityReseller",
      "outputs": [],
      "stateMutability": "nonpayable",
      "type": "function"
    },
    {
      "inputs": [
        {
          "internalType": "address",
          "name": "account",
          "type": "address"
        }
      ],
      "name": "removeReseller",
      "outputs": [],
      "stateMutability": "nonpayable",
      "type": "function"
    },
    {
      "inputs": [
        {
          "internalType": "address",
          "name": "account",
          "type": "address"
        }
      ],
      "name": "setProducer",
      "outputs": [],
      "stateMutability": "nonpayable",
      "type": "function"
    },
    {
      "inputs": [
        {
          "internalType": "address",
          "name": "account",
          "type": "address"
        }
      ],
      "name": "removeProducer",
      "outputs": [],
      "stateMutability": "nonpayable",
      "type": "function"
    },
    {
      "inputs": [
        {
          "internalType": "uint256",
          "name": "newDuration",
          "type": "uint256"
        }
      ],
      "name": "setMaxStorageDuration",
      "outputs": [],
      "stateMutability": "nonpayable",
      "type": "function"
    },
    {
      "inputs": [
        {
          "internalType": "uint256",
          "name": "newThreshold",
          "type": "uint256"
        }
      ],
      "name": "setViolationThreshold",
      "outputs": [],
      "stateMutability": "nonpayable",
      "type": "function"
    },
    {
      "inputs": [
        {
          "internalType": "uint256",
          "name": "quantity",
          "type": "uint256"
        }
      ],
      "name": "produce",
      "outputs": [],
      "stateMutability": "nonpayable",
      "type": "function"
    },
    {
      "inputs": [
        {
          "internalType": "address",
          "name": "to",
          "type": "address"
        },
        {
          "internalType": "uint256",
          "name": "amount",
          "type": "uint256"
        },
        {
          "internalType": "uint256",
          "name": "batchId",
          "type": "uint256"
        }
      ],
      "name": "transferStock",
      "outputs": [],
      "stateMutability": "nonpayable",
      "type": "function"
    },
    {
      "inputs": [
        {
          "internalType": "uint256",
          "name": "batchId",
          "type": "uint256"
        }
      ],
      "name": "checkForAbusiveStorage",
      "outputs": [
        {
          "internalType": "bool",
          "name": "",
          "type": "bool"
        }
      ],
      "stateMutability": "nonpayable",
      "type": "function"
    },
    {
      "inputs": [
        {
          "internalType": "uint256",
          "name": "violationId",
          "type": "uint256"
        }
      ],
      "name": "resolveViolation",
      "outputs": [],
      "stateMutability": "nonpayable",
      "type": "function"
    },
    {
      "inputs": [
        {
          "internalType": "address",
          "name": "holder",
          "type": "address"
        }
      ],
      "name": "removeFromBlacklist",
      "outputs": [],
      "stateMutability": "nonpayable",
      "type": "function"
    },
    {
      "inputs": [],
      "name": "checkAllBatchesForAbusiveStorage",
      "outputs": [],
      "stateMutability": "nonpayable",
      "type": "function"
    },
    {
      "inputs": [
        {
          "internalType": "address",
          "name": "holder",
          "type": "address"
        }
      ],
      "name": "getActiveViolationsByHolder",
      "outputs": [
        {
          "internalType": "uint256[]",
          "name": "",
          "type": "uint256[]"
        }
      ],
      "stateMutability": "view",
      "type": "function"
    },
    {
      "inputs": [
        {
          "internalType": "uint256",
          "name": "daysThreshold",
          "type": "uint256"
        }
      ],
      "name": "getBatchesNearingViolation",
      "outputs": [
        {
          "internalType": "uint256[]",
          "name": "",
          "type": "uint256[]"
        }
      ],
      "stateMutability": "view",
      "type": "function"
    },
    {
      "inputs": [
        {
          "internalType": "address",
          "name": "owner",
          "type": "address"
        }
      ],
      "name": "getBatchesByOwner",
      "outputs": [
        {
          "internalType": "uint256[]",
          "name": "",
          "type": "uint256[]"
        }
      ],
      "stateMutability": "view",
      "type": "function"
    },
    {
      "inputs": [
        {
          "internalType": "address",
          "name": "holder",
          "type": "address"
        }
      ],
      "name": "isHolderViolatingStorageRules",
      "outputs": [
        {
          "internalType": "bool",
          "name": "",
          "type": "bool"
        }
      ],
      "stateMutability": "view",
      "type": "function"
    },
    {
      "inputs": [
        {
          "internalType": "address",
          "name": "account",
          "type": "address"
        }
      ],
      "name": "getRole",
      "outputs": [
        {
          "internalType": "string",
          "name": "",
          "type": "string"
        }
      ],
      "stateMutability": "view",
      "type": "function"
    },
    {
      "inputs": [
        {
          "internalType": "address",
          "name": "account",
          "type": "address"
        },
        {
          "internalType": "uint256",
          "name": "latitude",
          "type": "uint256"
        },
        {
          "internalType": "uint256",
          "name": "longitude",
          "type": "uint256"
        }
      ],
      "name": "setPosition",
      "outputs": [],
      "stateMutability": "nonpayable",
      "type": "function"
    },
    {
      "inputs": [
        {
          "internalType": "address",
          "name": "account",
          "type": "address"
        },
        {
          "internalType": "string",
          "name": "name",
          "type": "string"
        }
      ],
      "name": "setName",
      "outputs": [],
      "stateMutability": "nonpayable",
      "type": "function"
    },
    {
      "inputs": [
        {
          "internalType": "address",
          "name": "holder",
          "type": "address"
        },
        {
          "internalType": "uint256",
          "name": "batchId",
          "type": "uint256"
        },
        {
          "internalType": "enum MilkSupplyChain.ViolationType",
          "name": "vType",
          "type": "uint8"
        }
      ],
      "name": "triggerFakeViolation",
      "outputs": [],
      "stateMutability": "nonpayable",
      "type": "function"
    },
    {
      "inputs": [
        {
          "internalType": "address",
          "name": "to",
          "type": "address"
        },
        {
          "internalType": "uint256",
          "name": "amount",
          "type": "uint256"
        },
        {
          "internalType": "uint256",
          "name": "batchId",
          "type": "uint256"
        }
      ],
      "name": "checkForQuantity",
      "outputs": [],
      "stateMutability": "nonpayable",
      "type": "function"
    },
    {
      "inputs": [
        {
          "internalType": "address",
          "name": "holder",
          "type": "address"
        }
      ],
      "name": "blacklistManually",
      "outputs": [],
      "stateMutability": "nonpayable",
      "type": "function"
    }
  ],
  "bytecode": "0x608060405260006001556000600255600060035562278d0060045560036013553480156200002c57600080fd5b506200004d62000041620000ff60201b60201c565b6200010760201b60201c565b6200005e336200010760201b60201c565b6001600a60003373ffffffffffffffffffffffffffffffffffffffff1673ffffffffffffffffffffffffffffffffffffffff16815260200190815260200160002060006101000a81548160ff0219169083151502179055503373ffffffffffffffffffffffffffffffffffffffff167f44d6d25963f097ad14f29f06854a01f575648a1ef82f30e562ccd3889717e33960405160405180910390a2620001cb565b600033905090565b60008060009054906101000a900473ffffffffffffffffffffffffffffffffffffffff169050816000806101000a81548173ffffffffffffffffffffffffffffffffffffffff021916908373ffffffffffffffffffffffffffffffffffffffff1602179055508173ffffffffffffffffffffffffffffffffffffffff168173ffffffffffffffffffffffffffffffffffffffff167f8be0079c531659141344cd1fd0a4f28419497f9722a3daafe3b4186f6b6457e060405160405180910390a35050565b6161ee80620001db6000396000f3fe608060405234801561001057600080fd5b50600436106102955760003560e01c80636d8ae74111610167578063a7223e3d116100ce578063d6fd623911610087578063d6fd62391461085c578063e5ed7c0a1461087a578063ee76d5b014610896578063f2fde38b146108b2578063f5521022146108ce578063fb8eb7c1146108fe57610295565b8063a7223e3d1461076d578063ad87dd261461079d578063b2db6140146107b9578063b32c4d8d146107d7578063b515eab31461080c578063b995bb951461082857610295565b80638d8657cf116101205780638d8657cf146106995780638da5cb5b146106b75780639af7825b146106d55780639d06402014610705578063a10d9c9e14610721578063a20a2c001461075157610295565b80636d8ae741146105eb5780637048027514610607578063715018a61461062357806379c21def1461062d5780637d3d75f01461064b5780638462a7f81461067b57610295565b80632b38bafc1161020b57806342ae291b116101c457806342ae291b1461051b578063442767331461054b578063493cccde1461057b578063500f8bc614610597578063537df3b6146105b357806365da5603146105cf57610295565b80632b38bafc1461044b5780633121db1c146104675780633156c3fd1461048357806338cf88211461049f5780633f185b6c146104cf578063416dd31a146104eb57610295565b806310c4d2d41161025d57806310c4d2d4146103655780631785f53c146103955780631de0e480146103b15780632221e667146103e157806324d7806c146103fd5780632a7afa0d1461042d57610295565b806301e820a91461029a57806305ece226146102ca57806305f81763146102fb5780630ad6c469146103055780630ff2d21214610335575b600080fd5b6102b460048036038101906102af9190614b91565b61091c565b6040516102c19190614be0565b60405180910390f35b6102e460048036038101906102df9190614bfb565b61094d565b6040516102f2929190614c28565b60405180910390f35b610303610971565b005b61031f600480360381019061031a9190614bfb565b6109da565b60405161032c9190614c6c565b60405180910390f35b61034f600480360381019061034a9190614bfb565b610aa3565b60405161035c9190614d17565b60405180910390f35b61037f600480360381019061037a9190614d39565b610b43565b60405161038c9190614e24565b60405180910390f35b6103af60048036038101906103aa9190614bfb565b610cfa565b005b6103cb60048036038101906103c69190614d39565b610eed565b6040516103d89190614c6c565b60405180910390f35b6103fb60048036038101906103f69190614e46565b611467565b005b61041760048036038101906104129190614bfb565b611cba565b6040516104249190614c6c565b60405180910390f35b610435611cda565b6040516104429190614be0565b60405180910390f35b61046560048036038101906104609190614bfb565b611ce0565b005b610481600480360381019061047c9190614fce565b611f79565b005b61049d6004803603810190610498919061504f565b612056565b005b6104b960048036038101906104b49190614bfb565b612495565b6040516104c69190614be0565b60405180910390f35b6104e960048036038101906104e49190614bfb565b6124ad565b005b61050560048036038101906105009190614bfb565b6126b8565b6040516105129190614e24565b60405180910390f35b61053560048036038101906105309190614b91565b61274f565b6040516105429190614be0565b60405180910390f35b61056560048036038101906105609190614bfb565b612780565b6040516105729190614d17565b60405180910390f35b61059560048036038101906105909190614d39565b61296d565b005b6105b160048036038101906105ac9190614e46565b612ac4565b005b6105cd60048036038101906105c89190614bfb565b612fc2565b005b6105e960048036038101906105e49190614d39565b6131b5565b005b61060560048036038101906106009190614e46565b613539565b005b610621600480360381019061061c9190614bfb565b613658565b005b61062b61384c565b005b610635613860565b6040516106429190614be0565b60405180910390f35b61066560048036038101906106609190614bfb565b613866565b6040516106729190614be0565b60405180910390f35b61068361387e565b6040516106909190614be0565b60405180910390f35b6106a1613884565b6040516106ae9190614be0565b60405180910390f35b6106bf61388a565b6040516106cc91906150b1565b60405180910390f35b6106ef60048036038101906106ea9190614bfb565b6138b3565b6040516106fc9190614e24565b60405180910390f35b61071f600480360381019061071a9190614bfb565b613a7e565b005b61073b60048036038101906107369190614bfb565b613c89565b6040516107489190614c6c565b60405180910390f35b61076b60048036038101906107669190614d39565b613ca9565b005b61078760048036038101906107829190614bfb565b613e90565b6040516107949190614c6c565b60405180910390f35b6107b760048036038101906107b29190614d39565b613eb0565b005b6107c1613fc4565b6040516107ce9190614be0565b60405180910390f35b6107f160048036038101906107ec9190614d39565b613fca565b604051610803969594939291906150cc565b60405180910390f35b61082660048036038101906108219190614b91565b614053565b005b610842600480360381019061083d9190614d39565b614257565b6040516108539594939291906151a4565b60405180910390f35b6108646142c7565b6040516108719190614be0565b60405180910390f35b610894600480360381019061088f9190614bfb565b6142cd565b005b6108b060048036038101906108ab9190614b91565b61450e565b005b6108cc60048036038101906108c79190614bfb565b6147ec565b005b6108e860048036038101906108e39190614bfb565b61486f565b6040516108f59190614c6c565b60405180910390f35b61090661488f565b6040516109139190614be0565b60405180910390f35b6011602052816000526040600020818154811061093857600080fd5b90600052602060002001600091509150505481565b600f6020528060005260406000206000915090508060000154908060010154905082565b6000805b6005548110156109cf576000600760008381526020019081526020016000206002015411156109bc576109a781610eed565b156109bb5781806109b790615226565b9250505b5b80806109c790615226565b915050610975565b508060038190555050565b600080601160008473ffffffffffffffffffffffffffffffffffffffff1673ffffffffffffffffffffffffffffffffffffffff16815260200190815260200160002090506000805b8280549050811015610a955760106000848381548110610a4557610a4461526e565b5b9060005260206000200154815260200190815260200160002060030160009054906101000a900460ff16610a82578180610a7e90615226565b9250505b8080610a8d90615226565b915050610a22565b506000811192505050919050565b600e6020528060005260406000206000915090508054610ac2906152cc565b80601f0160208091040260200160405190810160405280929190818152602001828054610aee906152cc565b8015610b3b5780601f10610b1057610100808354040283529160200191610b3b565b820191906000526020600020905b815481529060010190602001808311610b1e57829003601f168201915b505050505081565b606060006201518083610b5691906152fd565b600454610b63919061533f565b90506000805b600554811015610bf257600060076000838152602001908152602001600020600201541115610bdf576000600760008381526020019081526020016000206003015442610bb6919061533f565b90508381118015610bc957506004548111155b15610bdd578280610bd990615226565b9350505b505b8080610bea90615226565b915050610b69565b5060008167ffffffffffffffff811115610c0f57610c0e614ea3565b5b604051908082528060200260200182016040528015610c3d5781602001602082028036833780820191505090505b5090506000805b600554811015610ced57600060076000838152602001908152602001600020600201541115610cda576000600760008381526020019081526020016000206003015442610c91919061533f565b90508581118015610ca457506004548111155b15610cd85781848481518110610cbd57610cbc61526e565b5b6020026020010181815250508280610cd490615226565b9350505b505b8080610ce590615226565b915050610c44565b5081945050505050919050565b600a60003373ffffffffffffffffffffffffffffffffffffffff1673ffffffffffffffffffffffffffffffffffffffff16815260200190815260200160002060009054906101000a900460ff1680610d8457503373ffffffffffffffffffffffffffffffffffffffff16610d6c61388a565b73ffffffffffffffffffffffffffffffffffffffff16145b610dc3576040517f08c379a0000000000000000000000000000000000000000000000000000000008152600401610dba906153bf565b60405180910390fd5b600a60008273ffffffffffffffffffffffffffffffffffffffff1673ffffffffffffffffffffffffffffffffffffffff16815260200190815260200160002060009054906101000a900460ff16610e4f576040517f08c379a0000000000000000000000000000000000000000000000000000000008152600401610e469061542b565b60405180910390fd5b6000600a60008373ffffffffffffffffffffffffffffffffffffffff1673ffffffffffffffffffffffffffffffffffffffff16815260200190815260200160002060006101000a81548160ff0219169083151502179055508073ffffffffffffffffffffffffffffffffffffffff167fa3b62bc36326052d97ea62d63c3d60308ed4c3ea8ac079dd8499f1e9c4f80c0f60405160405180910390a250565b6000806007600084815260200190815260200160002090506004548160030154610f17919061544b565b42111561145c57600060066000815480929190610f3390615226565b9190505590506040518060a0016040528060006001811115610f5857610f5761512d565b5b81526020018360040160009054906101000a900473ffffffffffffffffffffffffffffffffffffffff1673ffffffffffffffffffffffffffffffffffffffff168152602001858152602001428152602001600015158152506010600083815260200190815260200160002060008201518160000160006101000a81548160ff02191690836001811115610fee57610fed61512d565b5b021790555060208201518160000160016101000a81548173ffffffffffffffffffffffffffffffffffffffff021916908373ffffffffffffffffffffffffffffffffffffffff160217905550604082015181600101556060820151816002015560808201518160030160006101000a81548160ff021916908315150217905550905050600d60008360040160009054906101000a900473ffffffffffffffffffffffffffffffffffffffff1673ffffffffffffffffffffffffffffffffffffffff1673ffffffffffffffffffffffffffffffffffffffff16815260200190815260200160002060009054906101000a900460ff161561110057600260008154809291906110fa9061547f565b91905055505b600b60008360040160009054906101000a900473ffffffffffffffffffffffffffffffffffffffff1673ffffffffffffffffffffffffffffffffffffffff1673ffffffffffffffffffffffffffffffffffffffff16815260200190815260200160002060009054906101000a900460ff161561118f57600160008154809291906111899061547f565b91905055505b601160008360040160009054906101000a900473ffffffffffffffffffffffffffffffffffffffff1673ffffffffffffffffffffffffffffffffffffffff1673ffffffffffffffffffffffffffffffffffffffff168152602001908152602001600020819080600181540180825580915050600190039060005260206000200160009091909190915055838260040160009054906101000a900473ffffffffffffffffffffffffffffffffffffffff1673ffffffffffffffffffffffffffffffffffffffff16827f5938baf0e87bb258c8f84cdfedaf69616db7fb30d86f1dd3b61aea99d773cf8f426040516112859190614be0565b60405180910390a4601354601160008460040160009054906101000a900473ffffffffffffffffffffffffffffffffffffffff1673ffffffffffffffffffffffffffffffffffffffff1673ffffffffffffffffffffffffffffffffffffffff1681526020019081526020016000208054905010611451576001601260008460040160009054906101000a900473ffffffffffffffffffffffffffffffffffffffff1673ffffffffffffffffffffffffffffffffffffffff1673ffffffffffffffffffffffffffffffffffffffff16815260200190815260200160002060006101000a81548160ff0219169083151502179055508160040160009054906101000a900473ffffffffffffffffffffffffffffffffffffffff1673ffffffffffffffffffffffffffffffffffffffff167fab696c3448aca400f4d94156b35a98ac357eab949326d87e98ae9fa2b8e1a714601160008560040160009054906101000a900473ffffffffffffffffffffffffffffffffffffffff1673ffffffffffffffffffffffffffffffffffffffff1673ffffffffffffffffffffffffffffffffffffffff168152602001908152602001600020805490506040516114489190614be0565b60405180910390a25b600192505050611462565b60009150505b919050565b601260003373ffffffffffffffffffffffffffffffffffffffff1673ffffffffffffffffffffffffffffffffffffffff16815260200190815260200160002060009054906101000a900460ff16156114f4576040517f08c379a00000000000000000000000000000000000000000000000000000000081526004016114eb9061551a565b60405180910390fd5b81600860003373ffffffffffffffffffffffffffffffffffffffff1673ffffffffffffffffffffffffffffffffffffffff168152602001908152602001600020541015611576576040517f08c379a000000000000000000000000000000000000000000000000000000000815260040161156d90615586565b60405180910390fd5b600d60003373ffffffffffffffffffffffffffffffffffffffff1673ffffffffffffffffffffffffffffffffffffffff16815260200190815260200160002060009054906101000a900460ff16806116175750600b60003373ffffffffffffffffffffffffffffffffffffffff1673ffffffffffffffffffffffffffffffffffffffff16815260200190815260200160002060009054906101000a900460ff165b611656576040517f08c379a000000000000000000000000000000000000000000000000000000000815260040161164d906155f2565b60405180910390fd5b600b60008473ffffffffffffffffffffffffffffffffffffffff1673ffffffffffffffffffffffffffffffffffffffff16815260200190815260200160002060009054906101000a900460ff166116e2576040517f08c379a00000000000000000000000000000000000000000000000000000000081526004016116d99061565e565b60405180910390fd5b601260008473ffffffffffffffffffffffffffffffffffffffff1673ffffffffffffffffffffffffffffffffffffffff16815260200190815260200160002060009054906101000a900460ff161561176f576040517f08c379a0000000000000000000000000000000000000000000000000000000008152600401611766906156f0565b60405180910390fd5b3373ffffffffffffffffffffffffffffffffffffffff166007600083815260200190815260200160002060040160009054906101000a900473ffffffffffffffffffffffffffffffffffffffff1673ffffffffffffffffffffffffffffffffffffffff1614611813576040517f08c379a000000000000000000000000000000000000000000000000000000000815260040161180a9061575c565b60405180910390fd5b816007600083815260200190815260200160002060020154101561186c576040517f08c379a0000000000000000000000000000000000000000000000000000000008152600401611863906157c8565b60405180910390fd5b611877838383612ac4565b61188081610eed565b506007600082815260200190815260200160002060020154820361196857826007600083815260200190815260200160002060040160006101000a81548173ffffffffffffffffffffffffffffffffffffffff021916908373ffffffffffffffffffffffffffffffffffffffff1602179055506118fd3382614895565b600960008473ffffffffffffffffffffffffffffffffffffffff1673ffffffffffffffffffffffffffffffffffffffff168152602001908152602001600020819080600181540180825580915050600190039060005260206000200160009091909190915055611ba2565b60006005600081548092919061197d90615226565b9190505590506040518060c001604052808281526020016007600085815260200190815260200160002060010160009054906101000a900473ffffffffffffffffffffffffffffffffffffffff1673ffffffffffffffffffffffffffffffffffffffff168152602001848152602001600760008581526020019081526020016000206003015481526020018573ffffffffffffffffffffffffffffffffffffffff16815260200160001515815250600760008381526020019081526020016000206000820151816000015560208201518160010160006101000a81548173ffffffffffffffffffffffffffffffffffffffff021916908373ffffffffffffffffffffffffffffffffffffffff160217905550604082015181600201556060820151816003015560808201518160040160006101000a81548173ffffffffffffffffffffffffffffffffffffffff021916908373ffffffffffffffffffffffffffffffffffffffff16021790555060a08201518160040160146101000a81548160ff02191690831515021790555090505082600760008481526020019081526020016000206002016000828254611b33919061533f565b92505081905550600960008573ffffffffffffffffffffffffffffffffffffffff1673ffffffffffffffffffffffffffffffffffffffff168152602001908152602001600020819080600181540180825580915050600190039060005260206000200160009091909190915055505b81600860003373ffffffffffffffffffffffffffffffffffffffff1673ffffffffffffffffffffffffffffffffffffffff1681526020019081526020016000206000828254611bf1919061533f565b9250508190555081600860008573ffffffffffffffffffffffffffffffffffffffff1673ffffffffffffffffffffffffffffffffffffffff1681526020019081526020016000206000828254611c47919061544b565b925050819055508273ffffffffffffffffffffffffffffffffffffffff163373ffffffffffffffffffffffffffffffffffffffff167f18d62fb566bbc5565888ee7f280d21e62d398373f26d05401c3d6587fcc95c5c8484604051611cad929190614c28565b60405180910390a3505050565b600a6020528060005260406000206000915054906101000a900460ff1681565b60135481565b600a60003373ffffffffffffffffffffffffffffffffffffffff1673ffffffffffffffffffffffffffffffffffffffff16815260200190815260200160002060009054906101000a900460ff1680611d6a57503373ffffffffffffffffffffffffffffffffffffffff16611d5261388a565b73ffffffffffffffffffffffffffffffffffffffff16145b611da9576040517f08c379a0000000000000000000000000000000000000000000000000000000008152600401611da0906153bf565b60405180910390fd5b600d60008273ffffffffffffffffffffffffffffffffffffffff1673ffffffffffffffffffffffffffffffffffffffff16815260200190815260200160002060009054906101000a900460ff1615611e36576040517f08c379a0000000000000000000000000000000000000000000000000000000008152600401611e2d90615834565b60405180910390fd5b601260008273ffffffffffffffffffffffffffffffffffffffff1673ffffffffffffffffffffffffffffffffffffffff16815260200190815260200160002060009054906101000a900460ff1615611ec3576040517f08c379a0000000000000000000000000000000000000000000000000000000008152600401611eba906158c6565b60405180910390fd5b6001600d60008373ffffffffffffffffffffffffffffffffffffffff1673ffffffffffffffffffffffffffffffffffffffff16815260200190815260200160002060006101000a81548160ff02191690831515021790555060026000815480929190611f2e90615226565b91905055508073ffffffffffffffffffffffffffffffffffffffff167f2977383b0207d39ef14220620b6cf3e6c9b6e78592af90baeef6614ed2fcd2c660405160405180910390a250565b600a60003373ffffffffffffffffffffffffffffffffffffffff1673ffffffffffffffffffffffffffffffffffffffff16815260200190815260200160002060009054906101000a900460ff16612005576040517f08c379a0000000000000000000000000000000000000000000000000000000008152600401611ffc9061542b565b60405180910390fd5b80600e60008473ffffffffffffffffffffffffffffffffffffffff1673ffffffffffffffffffffffffffffffffffffffff16815260200190815260200160002090816120519190615a92565b505050565b600a60003373ffffffffffffffffffffffffffffffffffffffff1673ffffffffffffffffffffffffffffffffffffffff16815260200190815260200160002060009054906101000a900460ff16806120e057503373ffffffffffffffffffffffffffffffffffffffff166120c861388a565b73ffffffffffffffffffffffffffffffffffffffff16145b61211f576040517f08c379a0000000000000000000000000000000000000000000000000000000008152600401612116906153bf565b60405180910390fd5b60006006600081548092919061213490615226565b9190505590506040518060a001604052808360018111156121585761215761512d565b5b81526020018573ffffffffffffffffffffffffffffffffffffffff168152602001848152602001428152602001600015158152506010600083815260200190815260200160002060008201518160000160006101000a81548160ff021916908360018111156121ca576121c961512d565b5b021790555060208201518160000160016101000a81548173ffffffffffffffffffffffffffffffffffffffff021916908373ffffffffffffffffffffffffffffffffffffffff160217905550604082015181600101556060820151816002015560808201518160030160006101000a81548160ff021916908315150217905550905050601160008573ffffffffffffffffffffffffffffffffffffffff1673ffffffffffffffffffffffffffffffffffffffff168152602001908152602001600020819080600181540180825580915050600190039060005260206000200160009091909190915055828473ffffffffffffffffffffffffffffffffffffffff16827f5938baf0e87bb258c8f84cdfedaf69616db7fb30d86f1dd3b61aea99d773cf8f426040516122fb9190614be0565b60405180910390a4601354601160008673ffffffffffffffffffffffffffffffffffffffff1673ffffffffffffffffffffffffffffffffffffffff16815260200190815260200160002080549050101580156123a15750601260008573ffffffffffffffffffffffffffffffffffffffff1673ffffffffffffffffffffffffffffffffffffffff16815260200190815260200160002060009054906101000a900460ff16155b1561248f576001601260008673ffffffffffffffffffffffffffffffffffffffff1673ffffffffffffffffffffffffffffffffffffffff16815260200190815260200160002060006101000a81548160ff0219169083151502179055508373ffffffffffffffffffffffffffffffffffffffff167fab696c3448aca400f4d94156b35a98ac357eab949326d87e98ae9fa2b8e1a714601160008773ffffffffffffffffffffffffffffffffffffffff1673ffffffffffffffffffffffffffffffffffffffff168152602001908152602001600020805490506040516124869190614be0565b60405180910390a25b50505050565b60086020528060005260406000206000915090505481565b600a60003373ffffffffffffffffffffffffffffffffffffffff1673ffffffffffffffffffffffffffffffffffffffff16815260200190815260200160002060009054906101000a900460ff168061253757503373ffffffffffffffffffffffffffffffffffffffff1661251f61388a565b73ffffffffffffffffffffffffffffffffffffffff16145b612576576040517f08c379a000000000000000000000000000000000000000000000000000000000815260040161256d906153bf565b60405180910390fd5b600d60008273ffffffffffffffffffffffffffffffffffffffff1673ffffffffffffffffffffffffffffffffffffffff16815260200190815260200160002060009054906101000a900460ff16612602576040517f08c379a00000000000000000000000000000000000000000000000000000000081526004016125f990615bb0565b60405180910390fd5b6000600d60008373ffffffffffffffffffffffffffffffffffffffff1673ffffffffffffffffffffffffffffffffffffffff16815260200190815260200160002060006101000a81548160ff0219169083151502179055506002600081548092919061266d9061547f565b91905055508073ffffffffffffffffffffffffffffffffffffffff167fb78e9906c5bae930ccf756a5214c9855b1782f0eb30f9566de2384f034af48f360405160405180910390a250565b6060600960008373ffffffffffffffffffffffffffffffffffffffff1673ffffffffffffffffffffffffffffffffffffffff16815260200190815260200160002080548060200260200160405190810160405280929190818152602001828054801561274357602002820191906000526020600020905b81548152602001906001019080831161272f575b50505050509050919050565b6009602052816000526040600020818154811061276b57600080fd5b90600052602060002001600091509150505481565b6060600a60008373ffffffffffffffffffffffffffffffffffffffff1673ffffffffffffffffffffffffffffffffffffffff16815260200190815260200160002060009054906101000a900460ff1615612811576040518060400160405280600581526020017f61646d696e0000000000000000000000000000000000000000000000000000008152509050612968565b600d60008373ffffffffffffffffffffffffffffffffffffffff1673ffffffffffffffffffffffffffffffffffffffff16815260200190815260200160002060009054906101000a900460ff16156128a0576040518060400160405280600881526020017f70726f64756365720000000000000000000000000000000000000000000000008152509050612968565b600b60008373ffffffffffffffffffffffffffffffffffffffff1673ffffffffffffffffffffffffffffffffffffffff16815260200190815260200160002060009054906101000a900460ff161561292f576040518060400160405280600881526020017f726573656c6c65720000000000000000000000000000000000000000000000008152509050612968565b6040518060400160405280600781526020017f756e6b6e6f776e0000000000000000000000000000000000000000000000000081525090505b919050565b600a60003373ffffffffffffffffffffffffffffffffffffffff1673ffffffffffffffffffffffffffffffffffffffff16815260200190815260200160002060009054906101000a900460ff16806129f757503373ffffffffffffffffffffffffffffffffffffffff166129df61388a565b73ffffffffffffffffffffffffffffffffffffffff16145b612a36576040517f08c379a0000000000000000000000000000000000000000000000000000000008152600401612a2d906153bf565b60405180910390fd5b60008111612a79576040517f08c379a0000000000000000000000000000000000000000000000000000000008152600401612a7090615c42565b60405180910390fd5b60006013549050816013819055507f640cb28dc00b63a4925f69fcfaa2182169d71f10d3adfef82155d9f711025ac18183604051612ab8929190614c28565b60405180910390a15050565b6000600760008381526020019081526020016000209050600c60008573ffffffffffffffffffffffffffffffffffffffff1673ffffffffffffffffffffffffffffffffffffffff1681526020019081526020016000205483600860008773ffffffffffffffffffffffffffffffffffffffff1673ffffffffffffffffffffffffffffffffffffffff16815260200190815260200160002054612b66919061544b565b1115612fbc57600060066000815480929190612b8190615226565b9190505590506040518060a00160405280600180811115612ba557612ba461512d565b5b81526020018360040160009054906101000a900473ffffffffffffffffffffffffffffffffffffffff1673ffffffffffffffffffffffffffffffffffffffff168152602001848152602001428152602001600015158152506010600083815260200190815260200160002060008201518160000160006101000a81548160ff02191690836001811115612c3b57612c3a61512d565b5b021790555060208201518160000160016101000a81548173ffffffffffffffffffffffffffffffffffffffff021916908373ffffffffffffffffffffffffffffffffffffffff160217905550604082015181600101556060820151816002015560808201518160030160006101000a81548160ff021916908315150217905550905050601160008360040160009054906101000a900473ffffffffffffffffffffffffffffffffffffffff1673ffffffffffffffffffffffffffffffffffffffff1673ffffffffffffffffffffffffffffffffffffffff168152602001908152602001600020819080600181540180825580915050600190039060005260206000200160009091909190915055828260040160009054906101000a900473ffffffffffffffffffffffffffffffffffffffff1673ffffffffffffffffffffffffffffffffffffffff16827f5938baf0e87bb258c8f84cdfedaf69616db7fb30d86f1dd3b61aea99d773cf8f42604051612db49190614be0565b60405180910390a4601354601160008460040160009054906101000a900473ffffffffffffffffffffffffffffffffffffffff1673ffffffffffffffffffffffffffffffffffffffff1673ffffffffffffffffffffffffffffffffffffffff1681526020019081526020016000208054905010612fba576001601260008460040160009054906101000a900473ffffffffffffffffffffffffffffffffffffffff1673ffffffffffffffffffffffffffffffffffffffff1673ffffffffffffffffffffffffffffffffffffffff16815260200190815260200160002060006101000a81548160ff0219169083151502179055508160040160009054906101000a900473ffffffffffffffffffffffffffffffffffffffff1673ffffffffffffffffffffffffffffffffffffffff167fab696c3448aca400f4d94156b35a98ac357eab949326d87e98ae9fa2b8e1a714601160008560040160009054906101000a900473ffffffffffffffffffffffffffffffffffffffff1673ffffffffffffffffffffffffffffffffffffffff1673ffffffffffffffffffffffffffffffffffffffff16815260200190815260200160002080549050604051612f779190614be0565b60405180910390a26040517f08c379a0000000000000000000000000000000000000000000000000000000008152600401612fb190615cd4565b60405180910390fd5b505b50505050565b600a60003373ffffffffffffffffffffffffffffffffffffffff1673ffffffffffffffffffffffffffffffffffffffff16815260200190815260200160002060009054906101000a900460ff168061304c57503373ffffffffffffffffffffffffffffffffffffffff1661303461388a565b73ffffffffffffffffffffffffffffffffffffffff16145b61308b576040517f08c379a0000000000000000000000000000000000000000000000000000000008152600401613082906153bf565b60405180910390fd5b601260008273ffffffffffffffffffffffffffffffffffffffff1673ffffffffffffffffffffffffffffffffffffffff16815260200190815260200160002060009054906101000a900460ff16613117576040517f08c379a000000000000000000000000000000000000000000000000000000000815260040161310e90615d40565b60405180910390fd5b6000601260008373ffffffffffffffffffffffffffffffffffffffff1673ffffffffffffffffffffffffffffffffffffffff16815260200190815260200160002060006101000a81548160ff0219169083151502179055508073ffffffffffffffffffffffffffffffffffffffff167f39ad9dd6d571557e581ef3c963032dba2db232f21ebe529f1331d2d66c2d797c60405160405180910390a250565b600d60003373ffffffffffffffffffffffffffffffffffffffff1673ffffffffffffffffffffffffffffffffffffffff16815260200190815260200160002060009054906101000a900460ff16613241576040517f08c379a000000000000000000000000000000000000000000000000000000000815260040161323890615dac565b60405180910390fd5b601260003373ffffffffffffffffffffffffffffffffffffffff1673ffffffffffffffffffffffffffffffffffffffff16815260200190815260200160002060009054906101000a900460ff16156132ce576040517f08c379a00000000000000000000000000000000000000000000000000000000081526004016132c59061551a565b60405180910390fd5b6000600560008154809291906132e390615226565b9190505590506040518060c001604052808281526020013373ffffffffffffffffffffffffffffffffffffffff1681526020018381526020014281526020013373ffffffffffffffffffffffffffffffffffffffff16815260200160001515815250600760008381526020019081526020016000206000820151816000015560208201518160010160006101000a81548173ffffffffffffffffffffffffffffffffffffffff021916908373ffffffffffffffffffffffffffffffffffffffff160217905550604082015181600201556060820151816003015560808201518160040160006101000a81548173ffffffffffffffffffffffffffffffffffffffff021916908373ffffffffffffffffffffffffffffffffffffffff16021790555060a08201518160040160146101000a81548160ff02191690831515021790555090505081600860003373ffffffffffffffffffffffffffffffffffffffff1673ffffffffffffffffffffffffffffffffffffffff1681526020019081526020016000206000828254613476919061544b565b92505081905550600960003373ffffffffffffffffffffffffffffffffffffffff1673ffffffffffffffffffffffffffffffffffffffff1681526020019081526020016000208190806001815401808255809150506001900390600052602060002001600090919091909150553373ffffffffffffffffffffffffffffffffffffffff167fd09d9a38e02ab127d6f42579d59f78264b59ad00e810b512d320c788a64b2f0d82844260405161352d93929190615dcc565b60405180910390a25050565b600a60003373ffffffffffffffffffffffffffffffffffffffff1673ffffffffffffffffffffffffffffffffffffffff16815260200190815260200160002060009054906101000a900460ff166135c5576040517f08c379a00000000000000000000000000000000000000000000000000000000081526004016135bc9061542b565b60405180910390fd5b81600f60008573ffffffffffffffffffffffffffffffffffffffff1673ffffffffffffffffffffffffffffffffffffffff1681526020019081526020016000206000018190555080600f60008573ffffffffffffffffffffffffffffffffffffffff1673ffffffffffffffffffffffffffffffffffffffff16815260200190815260200160002060010181905550505050565b600a60003373ffffffffffffffffffffffffffffffffffffffff1673ffffffffffffffffffffffffffffffffffffffff16815260200190815260200160002060009054906101000a900460ff16806136e257503373ffffffffffffffffffffffffffffffffffffffff166136ca61388a565b73ffffffffffffffffffffffffffffffffffffffff16145b613721576040517f08c379a0000000000000000000000000000000000000000000000000000000008152600401613718906153bf565b60405180910390fd5b600a60008273ffffffffffffffffffffffffffffffffffffffff1673ffffffffffffffffffffffffffffffffffffffff16815260200190815260200160002060009054906101000a900460ff16156137ae576040517f08c379a00000000000000000000000000000000000000000000000000000000081526004016137a590615e4f565b60405180910390fd5b6001600a60008373ffffffffffffffffffffffffffffffffffffffff1673ffffffffffffffffffffffffffffffffffffffff16815260200190815260200160002060006101000a81548160ff0219169083151502179055508073ffffffffffffffffffffffffffffffffffffffff167f44d6d25963f097ad14f29f06854a01f575648a1ef82f30e562ccd3889717e33960405160405180910390a250565b61385461499f565b61385e6000614a1d565b565b60045481565b600c6020528060005260406000206000915090505481565b60055481565b60065481565b60008060009054906101000a900473ffffffffffffffffffffffffffffffffffffffff16905090565b60606000601160008473ffffffffffffffffffffffffffffffffffffffff1673ffffffffffffffffffffffffffffffffffffffff16815260200190815260200160002090506000805b828054905081101561396f576010600084838154811061391f5761391e61526e565b5b9060005260206000200154815260200190815260200160002060030160009054906101000a900460ff1661395c57818061395890615226565b9250505b808061396790615226565b9150506138fc565b5060008167ffffffffffffffff81111561398c5761398b614ea3565b5b6040519080825280602002602001820160405280156139ba5781602001602082028036833780820191505090505b5090506000805b8480549050811015613a7157601060008683815481106139e4576139e361526e565b5b9060005260206000200154815260200190815260200160002060030160009054906101000a900460ff16613a5e57848181548110613a2557613a2461526e565b5b9060005260206000200154838381518110613a4357613a4261526e565b5b6020026020010181815250508180613a5a90615226565b9250505b8080613a6990615226565b9150506139c1565b5081945050505050919050565b600a60003373ffffffffffffffffffffffffffffffffffffffff1673ffffffffffffffffffffffffffffffffffffffff16815260200190815260200160002060009054906101000a900460ff1680613b0857503373ffffffffffffffffffffffffffffffffffffffff16613af061388a565b73ffffffffffffffffffffffffffffffffffffffff16145b613b47576040517f08c379a0000000000000000000000000000000000000000000000000000000008152600401613b3e906153bf565b60405180910390fd5b600b60008273ffffffffffffffffffffffffffffffffffffffff1673ffffffffffffffffffffffffffffffffffffffff16815260200190815260200160002060009054906101000a900460ff16613bd3576040517f08c379a0000000000000000000000000000000000000000000000000000000008152600401613bca90615ebb565b60405180910390fd5b6000600b60008373ffffffffffffffffffffffffffffffffffffffff1673ffffffffffffffffffffffffffffffffffffffff16815260200190815260200160002060006101000a81548160ff02191690831515021790555060016000815480929190613c3e9061547f565b91905055508073ffffffffffffffffffffffffffffffffffffffff167f74317ab44bd96a4b18c5f1eee4104ecd55c3eb0a69795f59fb4b3ebe550a860060405160405180910390a250565b600b6020528060005260406000206000915054906101000a900460ff1681565b600a60003373ffffffffffffffffffffffffffffffffffffffff1673ffffffffffffffffffffffffffffffffffffffff16815260200190815260200160002060009054906101000a900460ff1680613d3357503373ffffffffffffffffffffffffffffffffffffffff16613d1b61388a565b73ffffffffffffffffffffffffffffffffffffffff16145b613d72576040517f08c379a0000000000000000000000000000000000000000000000000000000008152600401613d69906153bf565b60405180910390fd5b6006548110613db6576040517f08c379a0000000000000000000000000000000000000000000000000000000008152600401613dad90615f27565b60405180910390fd5b6010600082815260200190815260200160002060030160009054906101000a900460ff1615613e1a576040517f08c379a0000000000000000000000000000000000000000000000000000000008152600401613e1190615f93565b60405180910390fd5b60016010600083815260200190815260200160002060030160006101000a81548160ff0219169083151502179055503373ffffffffffffffffffffffffffffffffffffffff16817fd00492650098d7f8856b4cfd50132f3c69ef3d6463f1869cfbd0ccfabf64ea9d60405160405180910390a350565b60126020528060005260406000206000915054906101000a900460ff1681565b600a60003373ffffffffffffffffffffffffffffffffffffffff1673ffffffffffffffffffffffffffffffffffffffff16815260200190815260200160002060009054906101000a900460ff1680613f3a57503373ffffffffffffffffffffffffffffffffffffffff16613f2261388a565b73ffffffffffffffffffffffffffffffffffffffff16145b613f79576040517f08c379a0000000000000000000000000000000000000000000000000000000008152600401613f70906153bf565b60405180910390fd5b60006004549050816004819055507f3f48365421b6fd89f4702c341b2977602f921c96f606ab41254abab5fb79ab158183604051613fb8929190614c28565b60405180910390a15050565b60025481565b60076020528060005260406000206000915090508060000154908060010160009054906101000a900473ffffffffffffffffffffffffffffffffffffffff16908060020154908060030154908060040160009054906101000a900473ffffffffffffffffffffffffffffffffffffffff16908060040160149054906101000a900460ff16905086565b600a60003373ffffffffffffffffffffffffffffffffffffffff1673ffffffffffffffffffffffffffffffffffffffff16815260200190815260200160002060009054906101000a900460ff16806140dd57503373ffffffffffffffffffffffffffffffffffffffff166140c561388a565b73ffffffffffffffffffffffffffffffffffffffff16145b61411c576040517f08c379a0000000000000000000000000000000000000000000000000000000008152600401614113906153bf565b60405180910390fd5b600b60008373ffffffffffffffffffffffffffffffffffffffff1673ffffffffffffffffffffffffffffffffffffffff16815260200190815260200160002060009054906101000a900460ff166141a8576040517f08c379a000000000000000000000000000000000000000000000000000000000815260040161419f90615ebb565b60405180910390fd5b80600c60008473ffffffffffffffffffffffffffffffffffffffff1673ffffffffffffffffffffffffffffffffffffffff168152602001908152602001600020819055503373ffffffffffffffffffffffffffffffffffffffff168273ffffffffffffffffffffffffffffffffffffffff167f60f99d53b11182f64116ffb8b46848a60b4ba4321be11d873e8e03ea42741d68834260405161424b929190614c28565b60405180910390a35050565b60106020528060005260406000206000915090508060000160009054906101000a900460ff16908060000160019054906101000a900473ffffffffffffffffffffffffffffffffffffffff16908060010154908060020154908060030160009054906101000a900460ff16905085565b60035481565b600a60003373ffffffffffffffffffffffffffffffffffffffff1673ffffffffffffffffffffffffffffffffffffffff16815260200190815260200160002060009054906101000a900460ff168061435757503373ffffffffffffffffffffffffffffffffffffffff1661433f61388a565b73ffffffffffffffffffffffffffffffffffffffff16145b614396576040517f08c379a000000000000000000000000000000000000000000000000000000000815260040161438d906153bf565b60405180910390fd5b601260008273ffffffffffffffffffffffffffffffffffffffff1673ffffffffffffffffffffffffffffffffffffffff16815260200190815260200160002060009054906101000a900460ff1615614423576040517f08c379a000000000000000000000000000000000000000000000000000000000815260040161441a90615fff565b60405180910390fd5b6001601260008373ffffffffffffffffffffffffffffffffffffffff1673ffffffffffffffffffffffffffffffffffffffff16815260200190815260200160002060006101000a81548160ff0219169083151502179055508073ffffffffffffffffffffffffffffffffffffffff167fab696c3448aca400f4d94156b35a98ac357eab949326d87e98ae9fa2b8e1a714601160008473ffffffffffffffffffffffffffffffffffffffff1673ffffffffffffffffffffffffffffffffffffffff168152602001908152602001600020805490506040516145039190614be0565b60405180910390a250565b600a60003373ffffffffffffffffffffffffffffffffffffffff1673ffffffffffffffffffffffffffffffffffffffff16815260200190815260200160002060009054906101000a900460ff168061459857503373ffffffffffffffffffffffffffffffffffffffff1661458061388a565b73ffffffffffffffffffffffffffffffffffffffff16145b6145d7576040517f08c379a00000000000000000000000000000000000000000000000000000000081526004016145ce906153bf565b60405180910390fd5b600b60008373ffffffffffffffffffffffffffffffffffffffff1673ffffffffffffffffffffffffffffffffffffffff16815260200190815260200160002060009054906101000a900460ff1615614664576040517f08c379a000000000000000000000000000000000000000000000000000000000815260040161465b9061606b565b60405180910390fd5b601260008373ffffffffffffffffffffffffffffffffffffffff1673ffffffffffffffffffffffffffffffffffffffff16815260200190815260200160002060009054906101000a900460ff16156146f1576040517f08c379a00000000000000000000000000000000000000000000000000000000081526004016146e8906158c6565b60405180910390fd5b6001600081548092919061470490615226565b91905055506001600b60008473ffffffffffffffffffffffffffffffffffffffff1673ffffffffffffffffffffffffffffffffffffffff16815260200190815260200160002060006101000a81548160ff02191690831515021790555080600c60008473ffffffffffffffffffffffffffffffffffffffff1673ffffffffffffffffffffffffffffffffffffffff168152602001908152602001600020819055508173ffffffffffffffffffffffffffffffffffffffff167ffb8f232b7a1d3d51060d32be9d6cf6808aa8f7dd043c8c20c4cfaf929ca9d48460405160405180910390a25050565b6147f461499f565b600073ffffffffffffffffffffffffffffffffffffffff168173ffffffffffffffffffffffffffffffffffffffff1603614863576040517f08c379a000000000000000000000000000000000000000000000000000000000815260040161485a906160fd565b60405180910390fd5b61486c81614a1d565b50565b600d6020528060005260406000206000915054906101000a900460ff1681565b60015481565b6000600960008473ffffffffffffffffffffffffffffffffffffffff1673ffffffffffffffffffffffffffffffffffffffff168152602001908152602001600020905060005b818054905081101561499957828282815481106148fb576148fa61526e565b5b90600052602060002001540361498657816001838054905061491d919061533f565b8154811061492e5761492d61526e565b5b906000526020600020015482828154811061494c5761494b61526e565b5b90600052602060002001819055508180548061496b5761496a61611d565b5b60019003818190600052602060002001600090559055614999565b808061499190615226565b9150506148db565b50505050565b6149a7614ae1565b73ffffffffffffffffffffffffffffffffffffffff166149c561388a565b73ffffffffffffffffffffffffffffffffffffffff1614614a1b576040517f08c379a0000000000000000000000000000000000000000000000000000000008152600401614a1290616198565b60405180910390fd5b565b60008060009054906101000a900473ffffffffffffffffffffffffffffffffffffffff169050816000806101000a81548173ffffffffffffffffffffffffffffffffffffffff021916908373ffffffffffffffffffffffffffffffffffffffff1602179055508173ffffffffffffffffffffffffffffffffffffffff168173ffffffffffffffffffffffffffffffffffffffff167f8be0079c531659141344cd1fd0a4f28419497f9722a3daafe3b4186f6b6457e060405160405180910390a35050565b600033905090565b6000604051905090565b600080fd5b600080fd5b600073ffffffffffffffffffffffffffffffffffffffff82169050919050565b6000614b2882614afd565b9050919050565b614b3881614b1d565b8114614b4357600080fd5b50565b600081359050614b5581614b2f565b92915050565b6000819050919050565b614b6e81614b5b565b8114614b7957600080fd5b50565b600081359050614b8b81614b65565b92915050565b60008060408385031215614ba857614ba7614af3565b5b6000614bb685828601614b46565b9250506020614bc785828601614b7c565b9150509250929050565b614bda81614b5b565b82525050565b6000602082019050614bf56000830184614bd1565b92915050565b600060208284031215614c1157614c10614af3565b5b6000614c1f84828501614b46565b91505092915050565b6000604082019050614c3d6000830185614bd1565b614c4a6020830184614bd1565b9392505050565b60008115159050919050565b614c6681614c51565b82525050565b6000602082019050614c816000830184614c5d565b92915050565b600081519050919050565b600082825260208201905092915050565b60005b83811015614cc1578082015181840152602081019050614ca6565b60008484015250505050565b6000601f19601f8301169050919050565b6000614ce982614c87565b614cf38185614c92565b9350614d03818560208601614ca3565b614d0c81614ccd565b840191505092915050565b60006020820190508181036000830152614d318184614cde565b905092915050565b600060208284031215614d4f57614d4e614af3565b5b6000614d5d84828501614b7c565b91505092915050565b600081519050919050565b600082825260208201905092915050565b6000819050602082019050919050565b614d9b81614b5b565b82525050565b6000614dad8383614d92565b60208301905092915050565b6000602082019050919050565b6000614dd182614d66565b614ddb8185614d71565b9350614de683614d82565b8060005b83811015614e17578151614dfe8882614da1565b9750614e0983614db9565b925050600181019050614dea565b5085935050505092915050565b60006020820190508181036000830152614e3e8184614dc6565b905092915050565b600080600060608486031215614e5f57614e5e614af3565b5b6000614e6d86828701614b46565b9350506020614e7e86828701614b7c565b9250506040614e8f86828701614b7c565b9150509250925092565b600080fd5b600080fd5b7f4e487b7100000000000000000000000000000000000000000000000000000000600052604160045260246000fd5b614edb82614ccd565b810181811067ffffffffffffffff82111715614efa57614ef9614ea3565b5b80604052505050565b6000614f0d614ae9565b9050614f198282614ed2565b919050565b600067ffffffffffffffff821115614f3957614f38614ea3565b5b614f4282614ccd565b9050602081019050919050565b82818337600083830152505050565b6000614f71614f6c84614f1e565b614f03565b905082815260208101848484011115614f8d57614f8c614e9e565b5b614f98848285614f4f565b509392505050565b600082601f830112614fb557614fb4614e99565b5b8135614fc5848260208601614f5e565b91505092915050565b60008060408385031215614fe557614fe4614af3565b5b6000614ff385828601614b46565b925050602083013567ffffffffffffffff81111561501457615013614af8565b5b61502085828601614fa0565b9150509250929050565b6002811061503757600080fd5b50565b6000813590506150498161502a565b92915050565b60008060006060848603121561506857615067614af3565b5b600061507686828701614b46565b935050602061508786828701614b7c565b92505060406150988682870161503a565b9150509250925092565b6150ab81614b1d565b82525050565b60006020820190506150c660008301846150a2565b92915050565b600060c0820190506150e16000830189614bd1565b6150ee60208301886150a2565b6150fb6040830187614bd1565b6151086060830186614bd1565b61511560808301856150a2565b61512260a0830184614c5d565b979650505050505050565b7f4e487b7100000000000000000000000000000000000000000000000000000000600052602160045260246000fd5b6002811061516d5761516c61512d565b5b50565b600081905061517e8261515c565b919050565b600061518e82615170565b9050919050565b61519e81615183565b82525050565b600060a0820190506151b96000830188615195565b6151c660208301876150a2565b6151d36040830186614bd1565b6151e06060830185614bd1565b6151ed6080830184614c5d565b9695505050505050565b7f4e487b7100000000000000000000000000000000000000000000000000000000600052601160045260246000fd5b600061523182614b5b565b91507fffffffffffffffffffffffffffffffffffffffffffffffffffffffffffffffff8203615263576152626151f7565b5b600182019050919050565b7f4e487b7100000000000000000000000000000000000000000000000000000000600052603260045260246000fd5b7f4e487b7100000000000000000000000000000000000000000000000000000000600052602260045260246000fd5b600060028204905060018216806152e457607f821691505b6020821081036152f7576152f661529d565b5b50919050565b600061530882614b5b565b915061531383614b5b565b925082820261532181614b5b565b91508282048414831517615338576153376151f7565b5b5092915050565b600061534a82614b5b565b915061535583614b5b565b925082820390508181111561536d5761536c6151f7565b5b92915050565b7f4e6f7420616e2061646d696e0000000000000000000000000000000000000000600082015250565b60006153a9600c83614c92565b91506153b482615373565b602082019050919050565b600060208201905081810360008301526153d88161539c565b9050919050565b7f41646472657373206973206e6f7420616e2061646d696e000000000000000000600082015250565b6000615415601783614c92565b9150615420826153df565b602082019050919050565b6000602082019050818103600083015261544481615408565b9050919050565b600061545682614b5b565b915061546183614b5b565b9250828201905080821115615479576154786151f7565b5b92915050565b600061548a82614b5b565b91506000820361549d5761549c6151f7565b5b600182039050919050565b7f4163636f756e7420697320626c61636b6c697374656420666f7220616275736960008201527f76652073746f7261676500000000000000000000000000000000000000000000602082015250565b6000615504602a83614c92565b915061550f826154a8565b604082019050919050565b60006020820190508181036000830152615533816154f7565b9050919050565b7f496e73756666696369656e742073746f636b0000000000000000000000000000600082015250565b6000615570601283614c92565b915061557b8261553a565b602082019050919050565b6000602082019050818103600083015261559f81615563565b9050919050565b7f556e617574686f72697a6564207472616e736665720000000000000000000000600082015250565b60006155dc601583614c92565b91506155e7826155a6565b602082019050919050565b6000602082019050818103600083015261560b816155cf565b9050919050565b7f526563697069656e74206e6f7420617574686f72697a65640000000000000000600082015250565b6000615648601883614c92565b915061565382615612565b602082019050919050565b600060208201905081810360008301526156778161563b565b9050919050565b7f526563697069656e7420697320626c61636b6c697374656420666f722061627560008201527f736976652073746f726167650000000000000000000000000000000000000000602082015250565b60006156da602c83614c92565b91506156e58261567e565b604082019050919050565b60006020820190508181036000830152615709816156cd565b9050919050565b7f596f7520646f6e2774206f776e20746869732062617463680000000000000000600082015250565b6000615746601883614c92565b915061575182615710565b602082019050919050565b6000602082019050818103600083015261577581615739565b9050919050565b7f496e73756666696369656e74207175616e7469747920696e2062617463680000600082015250565b60006157b2601e83614c92565b91506157bd8261577c565b602082019050919050565b600060208201905081810360008301526157e1816157a5565b9050919050565b7f4164647265737320697320616c726561647920612070726f6475636572000000600082015250565b600061581e601d83614c92565b9150615829826157e8565b602082019050919050565b6000602082019050818103600083015261584d81615811565b9050919050565b7f4164647265737320697320626c61636b6c697374656420666f7220616275736960008201527f76652073746f7261676500000000000000000000000000000000000000000000602082015250565b60006158b0602a83614c92565b91506158bb82615854565b604082019050919050565b600060208201905081810360008301526158df816158a3565b9050919050565b60008190508160005260206000209050919050565b60006020601f8301049050919050565b600082821b905092915050565b6000600883026159487fffffffffffffffffffffffffffffffffffffffffffffffffffffffffffffffff8261590b565b615952868361590b565b95508019841693508086168417925050509392505050565b6000819050919050565b600061598f61598a61598584614b5b565b61596a565b614b5b565b9050919050565b6000819050919050565b6159a983615974565b6159bd6159b582615996565b848454615918565b825550505050565b600090565b6159d26159c5565b6159dd8184846159a0565b505050565b5b81811015615a01576159f66000826159ca565b6001810190506159e3565b5050565b601f821115615a4657615a17816158e6565b615a20846158fb565b81016020851015615a2f578190505b615a43615a3b856158fb565b8301826159e2565b50505b505050565b600082821c905092915050565b6000615a6960001984600802615a4b565b1980831691505092915050565b6000615a828383615a58565b9150826002028217905092915050565b615a9b82614c87565b67ffffffffffffffff811115615ab457615ab3614ea3565b5b615abe82546152cc565b615ac9828285615a05565b600060209050601f831160018114615afc5760008415615aea578287015190505b615af48582615a76565b865550615b5c565b601f198416615b0a866158e6565b60005b82811015615b3257848901518255600182019150602085019450602081019050615b0d565b86831015615b4f5784890151615b4b601f891682615a58565b8355505b6001600288020188555050505b505050505050565b7f41646472657373206973206e6f7420612070726f647563657200000000000000600082015250565b6000615b9a601983614c92565b9150615ba582615b64565b602082019050919050565b60006020820190508181036000830152615bc981615b8d565b9050919050565b7f5468726573686f6c64206d7573742062652067726561746572207468616e207a60008201527f65726f0000000000000000000000000000000000000000000000000000000000602082015250565b6000615c2c602383614c92565b9150615c3782615bd0565b604082019050919050565b60006020820190508181036000830152615c5b81615c1f565b9050919050565b7f526563697069656e742065786365656473206d6178696d756d20616c6c6f776560008201527f642073746f636b00000000000000000000000000000000000000000000000000602082015250565b6000615cbe602783614c92565b9150615cc982615c62565b604082019050919050565b60006020820190508181036000830152615ced81615cb1565b9050919050565b7f41646472657373206973206e6f7420626c61636b6c6973746564000000000000600082015250565b6000615d2a601a83614c92565b9150615d3582615cf4565b602082019050919050565b60006020820190508181036000830152615d5981615d1d565b9050919050565b7f4e6f7420616e20617574686f72697a65642070726f6475636572000000000000600082015250565b6000615d96601a83614c92565b9150615da182615d60565b602082019050919050565b60006020820190508181036000830152615dc581615d89565b9050919050565b6000606082019050615de16000830186614bd1565b615dee6020830185614bd1565b615dfb6040830184614bd1565b949350505050565b7f4164647265737320697320616c726561647920616e2061646d696e0000000000600082015250565b6000615e39601b83614c92565b9150615e4482615e03565b602082019050919050565b60006020820190508181036000830152615e6881615e2c565b9050919050565b7f41646472657373206973206e6f74206120726573656c6c657200000000000000600082015250565b6000615ea5601983614c92565b9150615eb082615e6f565b602082019050919050565b60006020820190508181036000830152615ed481615e98565b9050919050565b7f56696f6c6174696f6e20646f6573206e6f742065786973740000000000000000600082015250565b6000615f11601883614c92565b9150615f1c82615edb565b602082019050919050565b60006020820190508181036000830152615f4081615f04565b9050919050565b7f56696f6c6174696f6e20616c7265616479207265736f6c766564000000000000600082015250565b6000615f7d601a83614c92565b9150615f8882615f47565b602082019050919050565b60006020820190508181036000830152615fac81615f70565b9050919050565b7f416c726561647920626c61636b6c697374656400000000000000000000000000600082015250565b6000615fe9601383614c92565b9150615ff482615fb3565b602082019050919050565b6000602082019050818103600083015261601881615fdc565b9050919050565b7f4164647265737320697320616c7265616479206120726573656c6c6572000000600082015250565b6000616055601d83614c92565b91506160608261601f565b602082019050919050565b6000602082019050818103600083015261608481616048565b9050919050565b7f4f776e61626c653a206e6577206f776e657220697320746865207a65726f206160008201527f6464726573730000000000000000000000000000000000000000000000000000602082015250565b60006160e7602683614c92565b91506160f28261608b565b604082019050919050565b60006020820190508181036000830152616116816160da565b9050919050565b7f4e487b7100000000000000000000000000000000000000000000000000000000600052603160045260246000fd5b7f4f776e61626c653a2063616c6c6572206973206e6f7420746865206f776e6572600082015250565b6000616182602083614c92565b915061618d8261614c565b602082019050919050565b600060208201905081810360008301526161b181616175565b905091905056fea2646970667358221220fd286f4c058cb77278b50d9cb732da28b4fdf16330c85b46b78f2ca9e86c9bb864736f6c63430008130033",
  "immutableReferences": {},
  "source": "// SPDX-License-Identifier: MIT\r\npragma solidity ^0.8.19;\r\n\r\nimport \"@openzeppelin/contracts/access/Ownable.sol\";\r\n\r\n\r\ncontract MilkSupplyChain is Ownable {\r\n    struct Batch {\r\n        uint256 id;\r\n        address producer;\r\n        uint256 quantity;\r\n        uint256 timestamp;\r\n        address currentOwner;\r\n        bool expired;\r\n    }\r\n    enum ViolationType {\r\n    ExcessiveStorage,\r\n    QuantityOverflow\r\n}\r\n\r\n    struct StorageViolation {\r\n        ViolationType violationType;\r\n        address holder;\r\n        uint256 batchId;\r\n        uint256 detectionTime;\r\n        bool resolved;\r\n    }\r\n    struct Position{\r\n        uint256 latitude;\r\n        uint256 longitude;\r\n    }\r\n\r\n    uint256 public totalResellers=0;\r\n    uint256 public totalProducers=0;\r\n    uint256 public totalViolations=0;\r\n    uint256 public maxStorageDuration = 30 days;\r\n    uint256 public nextBatchId;\r\n    uint256 public nextViolationId;\r\n    \r\n    mapping(uint256 => Batch) public batches;\r\n    mapping(address => uint256) public stockBalance;\r\n    mapping(address => uint256[]) public batchesByOwner;\r\n    \r\n    // Role management\r\n    mapping(address => bool) public isAdmin;\r\n    mapping(address => bool) public isReseller;\r\n    mapping(address => uint256) public maxQuantityPerReseller;\r\n    mapping(address => bool) public isProducer;\r\n    mapping(address => string) public addressName;\r\n    mapping(address=> Position) public addressPosition;\r\n    // mappings mtaa violations\r\n    mapping(uint256 => StorageViolation) public violations;\r\n    mapping(address => uint256[]) public violationsByHolder;\r\n    mapping(address => bool) public blacklistedHolders;\r\n    uint256 public violationThreshold = 3; // 9d'h men violation 9bal me yetbanna\r\n    \r\n    // Events\r\n    event Produced(uint256 batchId, address indexed producer, uint256 quantity, uint256 timestamp);\r\n    event ResellerChanged(address indexed reseller, address indexed admin, uint256 maxQuantity, uint256 timestamp);\r\n    event Transferred(address indexed from, address indexed to, uint256 quantity, uint256 batchId);\r\n    event AdminAdded(address indexed admin);\r\n    event AdminRemoved(address indexed admin);\r\n    event ResellerAdded(address indexed reseller);\r\n    event ProducerAdded(address indexed producer);\r\n    event ResellerRemoved(address indexed reseller);\r\n    event ProducerRemoved(address indexed producer);\r\n    event BatchExpired(uint256 indexed batchId, address indexed owner, uint256 expiryTime);\r\n    event MaxStorageDurationChanged(uint256 oldDuration, uint256 newDuration);\r\n    event AbusiveStorageDetected(uint256 indexed violationId, address indexed holder, uint256 indexed batchId, uint256 detectionTime);\r\n    event ViolationResolved(uint256 indexed violationId, address indexed resolver);\r\n    event HolderBlacklisted(address indexed holder, uint256 violationCount);\r\n    event HolderRemovedFromBlacklist(address indexed holder);\r\n    event ViolationThresholdChanged(uint256 oldThreshold, uint256 newThreshold);\r\n    \r\n    modifier onlyAdmin() {\r\n        require(isAdmin[msg.sender] || owner() == msg.sender, \"Not an admin\");\r\n        _;\r\n    }\r\n    \r\n    modifier onlyProducer() {\r\n        require(isProducer[msg.sender], \"Not an authorized producer\");\r\n        _;\r\n    }\r\n    \r\n    modifier onlyReseller() {\r\n        require(isReseller[msg.sender], \"Not an authorized reseller\");\r\n        _;\r\n    }\r\n    \r\n    modifier notBlacklisted() {\r\n        require(!blacklistedHolders[msg.sender], \"Account is blacklisted for abusive storage\");\r\n        _;\r\n\r\n    }\r\n    constructor() {\r\n    _transferOwnership(msg.sender);\r\n    isAdmin[msg.sender] = true;\r\n    emit AdminAdded(msg.sender);\r\n}\r\n\r\n    \r\n    function addAdmin(address account) external onlyAdmin {\r\n        require(!isAdmin[account], \"Address is already an admin\");\r\n        isAdmin[account] = true;\r\n        emit AdminAdded(account);\r\n    }\r\n    \r\n    function removeAdmin(address account) external onlyAdmin {\r\n        require(isAdmin[account], \"Address is not an admin\");\r\n        isAdmin[account] = false;\r\n        emit AdminRemoved(account);\r\n    }\r\n    \r\n    function setReseller(address account, uint256 maxQuantity) external onlyAdmin {\r\n        require(!isReseller[account], \"Address is already a reseller\");\r\n        require(!blacklistedHolders[account], \"Address is blacklisted for abusive storage\");\r\n        totalResellers++;\r\n        isReseller[account] = true;\r\n        maxQuantityPerReseller[account] = maxQuantity;\r\n        emit ResellerAdded(account);\r\n    }\r\n    \r\n    function changeMaxQuantityReseller(address account, uint256 maxQuantity) external onlyAdmin {\r\n        require(isReseller[account], \"Address is not a reseller\");\r\n        maxQuantityPerReseller[account] = maxQuantity;\r\n        emit ResellerChanged(account, msg.sender, maxQuantity, block.timestamp);\r\n    }\r\n    \r\n    function removeReseller(address account) external onlyAdmin {\r\n        require(isReseller[account], \"Address is not a reseller\");\r\n        isReseller[account] = false;\r\n        totalResellers--;\r\n        emit ResellerRemoved(account);\r\n    }\r\n    \r\n    function setProducer(address account) external onlyAdmin {\r\n        require(!isProducer[account], \"Address is already a producer\");\r\n        require(!blacklistedHolders[account], \"Address is blacklisted for abusive storage\");\r\n        isProducer[account] = true;\r\n        totalProducers++;\r\n        emit ProducerAdded(account);\r\n    }\r\n    \r\n    function removeProducer(address account) external onlyAdmin {\r\n        require(isProducer[account], \"Address is not a producer\");\r\n        isProducer[account] = false;\r\n        totalProducers--;\r\n        emit ProducerRemoved(account);\r\n    }\r\n    \r\n    function setMaxStorageDuration(uint256 newDuration) external onlyAdmin {\r\n        uint256 oldDuration = maxStorageDuration;\r\n        maxStorageDuration = newDuration;\r\n        emit MaxStorageDurationChanged(oldDuration, newDuration);\r\n    }\r\n    \r\n    function setViolationThreshold(uint256 newThreshold) external onlyAdmin {\r\n        require(newThreshold > 0, \"Threshold must be greater than zero\");\r\n        uint256 oldThreshold = violationThreshold;\r\n        violationThreshold = newThreshold;\r\n        emit ViolationThresholdChanged(oldThreshold, newThreshold);\r\n    }\r\n    \r\n    function produce(uint256 quantity) external onlyProducer notBlacklisted {\r\n        uint256 batchId = nextBatchId++;\r\n        batches[batchId] = Batch({\r\n            id: batchId,\r\n            producer: msg.sender,\r\n            quantity: quantity,\r\n            timestamp: block.timestamp,\r\n            currentOwner: msg.sender,\r\n            expired: false\r\n        });\r\n        \r\n        stockBalance[msg.sender] += quantity;\r\n        batchesByOwner[msg.sender].push(batchId);\r\n        \r\n        emit Produced(batchId, msg.sender, quantity, block.timestamp);\r\n    }\r\n    \r\n    function transferStock(address to, uint256 amount, uint256 batchId) external notBlacklisted {\r\n        require(stockBalance[msg.sender] >= amount, \"Insufficient stock\");\r\n        require(isProducer[msg.sender] || isReseller[msg.sender], \"Unauthorized transfer\");\r\n        require(isReseller[to], \"Recipient not authorized\");\r\n        require(!blacklistedHolders[to], \"Recipient is blacklisted for abusive storage\");\r\n        require(batches[batchId].currentOwner == msg.sender, \"You don't own this batch\");\r\n        require(batches[batchId].quantity >= amount, \"Insufficient quantity in batch\");\r\n        //check for quantity\r\n        checkForQuantity(to,amount,batchId);\r\n        \r\n        // Check for abusive storage\r\n        checkForAbusiveStorage(batchId);\r\n        \r\n        if (amount == batches[batchId].quantity) {\r\n            // ken kad eli talbou kad fil batch aatih elbatch\r\n            batches[batchId].currentOwner = to;\r\n            removeBatchFromOwner(msg.sender, batchId);\r\n            batchesByOwner[to].push(batchId);\r\n        } else {\r\n            // snn aamel batch jdid nafs eldonnee\r\n            //quantite kad eli tablou\r\n            uint256 newBatchId = nextBatchId++;\r\n            batches[newBatchId] = Batch({\r\n                id: newBatchId,\r\n                producer: batches[batchId].producer,\r\n                quantity: amount,\r\n                timestamp: batches[batchId].timestamp, \r\n                currentOwner: to,\r\n                expired: false\r\n            });\r\n            \r\n            // mise ajour batch original\r\n            batches[batchId].quantity -= amount;\r\n            \r\n            // aatih lil jdid\r\n            batchesByOwner[to].push(newBatchId);\r\n        }\r\n        \r\n        stockBalance[msg.sender] -= amount;\r\n        stockBalance[to] += amount;\r\n        \r\n        emit Transferred(msg.sender, to, amount, batchId);\r\n    }\r\n\r\n    \r\n    function checkForAbusiveStorage(uint256 batchId) public returns (bool) {\r\n        Batch storage batch = batches[batchId];\r\n        \r\n        if (block.timestamp > batch.timestamp + maxStorageDuration) {\r\n            // Report violation\r\n            uint256 violationId = nextViolationId++;\r\n            violations[violationId] = StorageViolation({\r\n                violationType:ViolationType.ExcessiveStorage,\r\n                holder: batch.currentOwner,\r\n                batchId: batchId,\r\n                detectionTime: block.timestamp,\r\n                resolved: false\r\n            });\r\n            if(isProducer[batch.currentOwner]){\r\n                totalProducers--;\r\n            }\r\n            if(isReseller[batch.currentOwner]){\r\n                totalResellers--;\r\n            }\r\n            violationsByHolder[batch.currentOwner].push(violationId);\r\n            \r\n            emit AbusiveStorageDetected(violationId, batch.currentOwner, batchId, block.timestamp);\r\n            \r\n            // holder  blacklisted??\r\n            if (violationsByHolder[batch.currentOwner].length >= violationThreshold) {\r\n                blacklistedHolders[batch.currentOwner] = true;\r\n                emit HolderBlacklisted(batch.currentOwner, violationsByHolder[batch.currentOwner].length);\r\n            }\r\n            \r\n            return true;\r\n        }\r\n        \r\n        return false;\r\n    }\r\n    \r\n    function resolveViolation(uint256 violationId) external onlyAdmin {\r\n        require(violationId < nextViolationId, \"Violation does not exist\");\r\n        require(!violations[violationId].resolved, \"Violation already resolved\");\r\n        \r\n        violations[violationId].resolved = true;\r\n        emit ViolationResolved(violationId, msg.sender);\r\n    }\r\n    \r\n    function removeFromBlacklist(address holder) external onlyAdmin {\r\n        require(blacklistedHolders[holder], \"Address is not blacklisted\");\r\n        blacklistedHolders[holder] = false;\r\n        emit HolderRemovedFromBlacklist(holder);\r\n    }\r\n    \r\n    function checkAllBatchesForAbusiveStorage() external {\r\n        uint256 violationCount = 0;\r\n        \r\n        for (uint256 i = 0; i < nextBatchId; i++) {\r\n            if (batches[i].quantity > 0) {\r\n                if (checkForAbusiveStorage(i)) {\r\n                    violationCount++;\r\n                }\r\n            }\r\n        }\r\n        \r\n        totalViolations=violationCount;\r\n    }\r\n    \r\n    function getActiveViolationsByHolder(address holder) external view returns (uint256[] memory) {\r\n        uint256[] storage allViolations = violationsByHolder[holder];\r\n        uint256 activeCount = 0;\r\n        \r\n        // Count active violations\r\n        for (uint256 i = 0; i < allViolations.length; i++) {\r\n            if (!violations[allViolations[i]].resolved) {\r\n                activeCount++;\r\n            }\r\n        }\r\n        \r\n        // Create result array\r\n        uint256[] memory activeViolations = new uint256[](activeCount);\r\n        uint256 index = 0;\r\n        \r\n        // Populate result array\r\n        for (uint256 i = 0; i < allViolations.length; i++) {\r\n            if (!violations[allViolations[i]].resolved) {\r\n                activeViolations[index] = allViolations[i];\r\n                index++;\r\n            }\r\n        }\r\n        \r\n        return activeViolations;\r\n    }\r\n    \r\n    function getBatchesNearingViolation(uint256 daysThreshold) external view returns (uint256[] memory) {\r\n        uint256 warningTime = maxStorageDuration - (daysThreshold * 1 days);\r\n        uint256 count = 0;\r\n        \r\n        // Count qualifying batches\r\n        for (uint256 i = 0; i < nextBatchId; i++) {\r\n            if (batches[i].quantity > 0) {\r\n                uint256 batchAge = block.timestamp - batches[i].timestamp;\r\n                if (batchAge > warningTime && batchAge <= maxStorageDuration) {\r\n                    count++;\r\n                }\r\n            }\r\n        }\r\n        \r\n        // Create result array\r\n        uint256[] memory warningBatches = new uint256[](count);\r\n        uint256 index = 0;\r\n        \r\n        // Populate result array\r\n        for (uint256 i = 0; i < nextBatchId; i++) {\r\n            if (batches[i].quantity > 0) {\r\n                uint256 batchAge = block.timestamp - batches[i].timestamp;\r\n                if (batchAge > warningTime && batchAge <= maxStorageDuration) {\r\n                    warningBatches[index] = i;\r\n                    index++;\r\n                }\r\n            }\r\n        }\r\n        \r\n        return warningBatches;\r\n    }\r\n    \r\n    function getBatchesByOwner(address owner) external view returns (uint256[] memory) {\r\n        return batchesByOwner[owner];\r\n    }\r\n    \r\n    function removeBatchFromOwner(address owner, uint256 batchId) private {\r\n        uint256[] storage ownerBatches = batchesByOwner[owner];\r\n        for (uint256 i = 0; i < ownerBatches.length; i++) {\r\n            if (ownerBatches[i] == batchId) {\r\n                // Replace with last element and pop\r\n                ownerBatches[i] = ownerBatches[ownerBatches.length - 1];\r\n                ownerBatches.pop();\r\n                break;\r\n            }\r\n        }\r\n    }\r\n    \r\n    function isHolderViolatingStorageRules(address holder) external view returns (bool) {\r\n        uint256[] storage holderViolations = violationsByHolder[holder];\r\n        uint256 activeViolations = 0;\r\n        \r\n        for (uint256 i = 0; i < holderViolations.length; i++) {\r\n            if (!violations[holderViolations[i]].resolved) {\r\n                activeViolations++;\r\n            }\r\n        }\r\n        \r\n        return activeViolations > 0;\r\n    }\r\n\r\n    function getRole(address account) external view returns (string memory) {\r\n        if (isAdmin[account]) return \"admin\";\r\n        if (isProducer[account]) return \"producer\";\r\n        if (isReseller[account]) return \"reseller\";\r\n        return \"unknown\";\r\n    }\r\n    function setPosition(address account,uint256 latitude,uint256 longitude) external {\r\n        require(isAdmin[msg.sender], \"Address is not an admin\");\r\n        addressPosition[account].latitude=latitude;\r\n        addressPosition[account].longitude=longitude;\r\n    }\r\n    function setName(address account, string memory name)public {\r\n        require(isAdmin[msg.sender], \"Address is not an admin\");\r\n        addressName[account]=name;\r\n    }\r\n    function triggerFakeViolation(address holder, uint256 batchId, ViolationType vType) external onlyAdmin {\r\n    uint256 violationId = nextViolationId++;\r\n    violations[violationId] = StorageViolation({\r\n        violationType: vType,\r\n        holder: holder,\r\n        batchId: batchId,\r\n        detectionTime: block.timestamp,\r\n        resolved: false\r\n    });\r\n\r\n    violationsByHolder[holder].push(violationId);\r\n\r\n    emit AbusiveStorageDetected(violationId, holder, batchId, block.timestamp);\r\n\r\n    if (violationsByHolder[holder].length >= violationThreshold && !blacklistedHolders[holder]) {\r\n        blacklistedHolders[holder] = true;\r\n        emit HolderBlacklisted(holder, violationsByHolder[holder].length);\r\n    }\r\n}\r\nfunction checkForQuantity(address to,uint256 amount,uint256 batchId) public{\r\n        Batch storage batch = batches[batchId];\r\n        if (stockBalance[to]+amount>maxQuantityPerReseller[to]){\r\n            uint256 violationId = nextViolationId++;\r\n            violations[violationId] = StorageViolation({\r\n                violationType: ViolationType.QuantityOverflow,\r\n                holder: batch.currentOwner,\r\n                batchId: batchId,\r\n                detectionTime: block.timestamp,\r\n                resolved: false\r\n            });\r\n            \r\n            violationsByHolder[batch.currentOwner].push(violationId);\r\n            \r\n            emit AbusiveStorageDetected(violationId, batch.currentOwner, batchId, block.timestamp);\r\n            \r\n            // holder  blacklisted??\r\n            if (violationsByHolder[batch.currentOwner].length >= violationThreshold) {\r\n                blacklistedHolders[batch.currentOwner] = true;\r\n                emit HolderBlacklisted(batch.currentOwner, violationsByHolder[batch.currentOwner].length);\r\n                revert(\"Recipient exceeds maximum allowed stock\");\r\n        }\r\n        }}\r\n\r\n function blacklistManually(address holder) external onlyAdmin {\r\n    require(!blacklistedHolders[holder], \"Already blacklisted\");\r\n    blacklistedHolders[holder] = true;\r\n    emit HolderBlacklisted(holder, violationsByHolder[holder].length);\r\n}\r\n\r\n}",
  "sourcePath": "D:\\vsc\\.vscode\\rn\\abusive-storage-detection\\contracts\\MilkSupplyChain.sol",
  "compiler": {
    "name": "solc",
    "version": "0.8.19+commit.7dd6d404.Emscripten.clang"
  },
  "schemaVersion": "3.4.16",
  "updatedAt": "2025-05-03T12:50:17.340Z",
  "devdoc": {
    "kind": "dev",
    "methods": {
      "owner()": {
        "details": "Returns the address of the current owner."
      },
      "renounceOwnership()": {
        "details": "Leaves the contract without owner. It will not be possible to call `onlyOwner` functions. Can only be called by the current owner. NOTE: Renouncing ownership will leave the contract without an owner, thereby disabling any functionality that is only available to the owner."
      },
      "transferOwnership(address)": {
        "details": "Transfers ownership of the contract to a new account (`newOwner`). Can only be called by the current owner."
      }
    },
    "version": 1
  },
  "userdoc": {
    "kind": "user",
    "methods": {},
    "version": 1
  }
}