{
  "contractName": "MilkSupplyChain",
  "abi": [
    {
      "inputs": [],
      "stateMutability": "nonpayable",
      "type": "constructor"
    },
    {
      "anonymous": false,
      "inputs": [
        {
          "indexed": true,
          "internalType": "uint256",
          "name": "violationId",
          "type": "uint256"
        },
        {
          "indexed": true,
          "internalType": "address",
          "name": "holder",
          "type": "address"
        },
        {
          "indexed": true,
          "internalType": "uint256",
          "name": "batchId",
          "type": "uint256"
        },
        {
          "indexed": false,
          "internalType": "uint256",
          "name": "detectionTime",
          "type": "uint256"
        }
      ],
      "name": "AbusiveStorageDetected",
      "type": "event"
    },
    {
      "anonymous": false,
      "inputs": [
        {
          "indexed": true,
          "internalType": "address",
          "name": "admin",
          "type": "address"
        }
      ],
      "name": "AdminAdded",
      "type": "event"
    },
    {
      "anonymous": false,
      "inputs": [
        {
          "indexed": true,
          "internalType": "address",
          "name": "admin",
          "type": "address"
        }
      ],
      "name": "AdminRemoved",
      "type": "event"
    },
    {
      "anonymous": false,
      "inputs": [
        {
          "indexed": true,
          "internalType": "uint256",
          "name": "batchId",
          "type": "uint256"
        },
        {
          "indexed": true,
          "internalType": "address",
          "name": "owner",
          "type": "address"
        },
        {
          "indexed": false,
          "internalType": "uint256",
          "name": "expiryTime",
          "type": "uint256"
        }
      ],
      "name": "BatchExpired",
      "type": "event"
    },
    {
      "anonymous": false,
      "inputs": [
        {
          "indexed": true,
          "internalType": "address",
          "name": "holder",
          "type": "address"
        },
        {
          "indexed": false,
          "internalType": "uint256",
          "name": "violationCount",
          "type": "uint256"
        }
      ],
      "name": "HolderBlacklisted",
      "type": "event"
    },
    {
      "anonymous": false,
      "inputs": [
        {
          "indexed": true,
          "internalType": "address",
          "name": "holder",
          "type": "address"
        }
      ],
      "name": "HolderRemovedFromBlacklist",
      "type": "event"
    },
    {
      "anonymous": false,
      "inputs": [
        {
          "indexed": false,
          "internalType": "uint256",
          "name": "oldDuration",
          "type": "uint256"
        },
        {
          "indexed": false,
          "internalType": "uint256",
          "name": "newDuration",
          "type": "uint256"
        }
      ],
      "name": "MaxStorageDurationChanged",
      "type": "event"
    },
    {
      "anonymous": false,
      "inputs": [
        {
          "indexed": true,
          "internalType": "address",
          "name": "previousOwner",
          "type": "address"
        },
        {
          "indexed": true,
          "internalType": "address",
          "name": "newOwner",
          "type": "address"
        }
      ],
      "name": "OwnershipTransferred",
      "type": "event"
    },
    {
      "anonymous": false,
      "inputs": [
        {
          "indexed": false,
          "internalType": "uint256",
          "name": "batchId",
          "type": "uint256"
        },
        {
          "indexed": true,
          "internalType": "address",
          "name": "producer",
          "type": "address"
        },
        {
          "indexed": false,
          "internalType": "uint256",
          "name": "quantity",
          "type": "uint256"
        },
        {
          "indexed": false,
          "internalType": "uint256",
          "name": "timestamp",
          "type": "uint256"
        }
      ],
      "name": "Produced",
      "type": "event"
    },
    {
      "anonymous": false,
      "inputs": [
        {
          "indexed": true,
          "internalType": "address",
          "name": "producer",
          "type": "address"
        }
      ],
      "name": "ProducerAdded",
      "type": "event"
    },
    {
      "anonymous": false,
      "inputs": [
        {
          "indexed": true,
          "internalType": "address",
          "name": "producer",
          "type": "address"
        }
      ],
      "name": "ProducerRemoved",
      "type": "event"
    },
    {
      "anonymous": false,
      "inputs": [
        {
          "indexed": true,
          "internalType": "address",
          "name": "reseller",
          "type": "address"
        }
      ],
      "name": "ResellerAdded",
      "type": "event"
    },
    {
      "anonymous": false,
      "inputs": [
        {
          "indexed": true,
          "internalType": "address",
          "name": "reseller",
          "type": "address"
        },
        {
          "indexed": true,
          "internalType": "address",
          "name": "admin",
          "type": "address"
        },
        {
          "indexed": false,
          "internalType": "uint256",
          "name": "maxQuantity",
          "type": "uint256"
        },
        {
          "indexed": false,
          "internalType": "uint256",
          "name": "timestamp",
          "type": "uint256"
        }
      ],
      "name": "ResellerChanged",
      "type": "event"
    },
    {
      "anonymous": false,
      "inputs": [
        {
          "indexed": true,
          "internalType": "address",
          "name": "reseller",
          "type": "address"
        }
      ],
      "name": "ResellerRemoved",
      "type": "event"
    },
    {
      "anonymous": false,
      "inputs": [
        {
          "indexed": true,
          "internalType": "address",
          "name": "from",
          "type": "address"
        },
        {
          "indexed": true,
          "internalType": "address",
          "name": "to",
          "type": "address"
        },
        {
          "indexed": false,
          "internalType": "uint256",
          "name": "quantity",
          "type": "uint256"
        },
        {
          "indexed": false,
          "internalType": "uint256",
          "name": "batchId",
          "type": "uint256"
        }
      ],
      "name": "Transferred",
      "type": "event"
    },
    {
      "anonymous": false,
      "inputs": [
        {
          "indexed": true,
          "internalType": "uint256",
          "name": "violationId",
          "type": "uint256"
        },
        {
          "indexed": true,
          "internalType": "address",
          "name": "resolver",
          "type": "address"
        }
      ],
      "name": "ViolationResolved",
      "type": "event"
    },
    {
      "anonymous": false,
      "inputs": [
        {
          "indexed": false,
          "internalType": "uint256",
          "name": "oldThreshold",
          "type": "uint256"
        },
        {
          "indexed": false,
          "internalType": "uint256",
          "name": "newThreshold",
          "type": "uint256"
        }
      ],
      "name": "ViolationThresholdChanged",
      "type": "event"
    },
    {
      "inputs": [
        {
          "internalType": "uint256",
          "name": "",
          "type": "uint256"
        }
      ],
      "name": "batches",
      "outputs": [
        {
          "internalType": "uint256",
          "name": "id",
          "type": "uint256"
        },
        {
          "internalType": "address",
          "name": "producer",
          "type": "address"
        },
        {
          "internalType": "uint256",
          "name": "quantity",
          "type": "uint256"
        },
        {
          "internalType": "uint256",
          "name": "timestamp",
          "type": "uint256"
        },
        {
          "internalType": "address",
          "name": "currentOwner",
          "type": "address"
        },
        {
          "internalType": "bool",
          "name": "expired",
          "type": "bool"
        }
      ],
      "stateMutability": "view",
      "type": "function",
      "constant": true
    },
    {
      "inputs": [
        {
          "internalType": "address",
          "name": "",
          "type": "address"
        },
        {
          "internalType": "uint256",
          "name": "",
          "type": "uint256"
        }
      ],
      "name": "batchesByOwner",
      "outputs": [
        {
          "internalType": "uint256",
          "name": "",
          "type": "uint256"
        }
      ],
      "stateMutability": "view",
      "type": "function",
      "constant": true
    },
    {
      "inputs": [
        {
          "internalType": "address",
          "name": "",
          "type": "address"
        }
      ],
      "name": "blacklistedHolders",
      "outputs": [
        {
          "internalType": "bool",
          "name": "",
          "type": "bool"
        }
      ],
      "stateMutability": "view",
      "type": "function",
      "constant": true
    },
    {
      "inputs": [
        {
          "internalType": "address",
          "name": "",
          "type": "address"
        }
      ],
      "name": "isAdmin",
      "outputs": [
        {
          "internalType": "bool",
          "name": "",
          "type": "bool"
        }
      ],
      "stateMutability": "view",
      "type": "function",
      "constant": true
    },
    {
      "inputs": [
        {
          "internalType": "address",
          "name": "",
          "type": "address"
        }
      ],
      "name": "isProducer",
      "outputs": [
        {
          "internalType": "bool",
          "name": "",
          "type": "bool"
        }
      ],
      "stateMutability": "view",
      "type": "function",
      "constant": true
    },
    {
      "inputs": [
        {
          "internalType": "address",
          "name": "",
          "type": "address"
        }
      ],
      "name": "isReseller",
      "outputs": [
        {
          "internalType": "bool",
          "name": "",
          "type": "bool"
        }
      ],
      "stateMutability": "view",
      "type": "function",
      "constant": true
    },
    {
      "inputs": [
        {
          "internalType": "address",
          "name": "",
          "type": "address"
        }
      ],
      "name": "maxQuantityPerReseller",
      "outputs": [
        {
          "internalType": "uint256",
          "name": "",
          "type": "uint256"
        }
      ],
      "stateMutability": "view",
      "type": "function",
      "constant": true
    },
    {
      "inputs": [],
      "name": "maxStorageDuration",
      "outputs": [
        {
          "internalType": "uint256",
          "name": "",
          "type": "uint256"
        }
      ],
      "stateMutability": "view",
      "type": "function",
      "constant": true
    },
    {
      "inputs": [],
      "name": "nextBatchId",
      "outputs": [
        {
          "internalType": "uint256",
          "name": "",
          "type": "uint256"
        }
      ],
      "stateMutability": "view",
      "type": "function",
      "constant": true
    },
    {
      "inputs": [],
      "name": "nextViolationId",
      "outputs": [
        {
          "internalType": "uint256",
          "name": "",
          "type": "uint256"
        }
      ],
      "stateMutability": "view",
      "type": "function",
      "constant": true
    },
    {
      "inputs": [],
      "name": "owner",
      "outputs": [
        {
          "internalType": "address",
          "name": "",
          "type": "address"
        }
      ],
      "stateMutability": "view",
      "type": "function",
      "constant": true
    },
    {
      "inputs": [],
      "name": "renounceOwnership",
      "outputs": [],
      "stateMutability": "nonpayable",
      "type": "function"
    },
    {
      "inputs": [
        {
          "internalType": "address",
          "name": "",
          "type": "address"
        }
      ],
      "name": "stockBalance",
      "outputs": [
        {
          "internalType": "uint256",
          "name": "",
          "type": "uint256"
        }
      ],
      "stateMutability": "view",
      "type": "function",
      "constant": true
    },
    {
      "inputs": [
        {
          "internalType": "address",
          "name": "newOwner",
          "type": "address"
        }
      ],
      "name": "transferOwnership",
      "outputs": [],
      "stateMutability": "nonpayable",
      "type": "function"
    },
    {
      "inputs": [],
      "name": "violationThreshold",
      "outputs": [
        {
          "internalType": "uint256",
          "name": "",
          "type": "uint256"
        }
      ],
      "stateMutability": "view",
      "type": "function",
      "constant": true
    },
    {
      "inputs": [
        {
          "internalType": "uint256",
          "name": "",
          "type": "uint256"
        }
      ],
      "name": "violations",
      "outputs": [
        {
          "internalType": "address",
          "name": "holder",
          "type": "address"
        },
        {
          "internalType": "uint256",
          "name": "batchId",
          "type": "uint256"
        },
        {
          "internalType": "uint256",
          "name": "detectionTime",
          "type": "uint256"
        },
        {
          "internalType": "bool",
          "name": "resolved",
          "type": "bool"
        }
      ],
      "stateMutability": "view",
      "type": "function",
      "constant": true
    },
    {
      "inputs": [
        {
          "internalType": "address",
          "name": "",
          "type": "address"
        },
        {
          "internalType": "uint256",
          "name": "",
          "type": "uint256"
        }
      ],
      "name": "violationsByHolder",
      "outputs": [
        {
          "internalType": "uint256",
          "name": "",
          "type": "uint256"
        }
      ],
      "stateMutability": "view",
      "type": "function",
      "constant": true
    },
    {
      "inputs": [
        {
          "internalType": "address",
          "name": "account",
          "type": "address"
        }
      ],
      "name": "addAdmin",
      "outputs": [],
      "stateMutability": "nonpayable",
      "type": "function"
    },
    {
      "inputs": [
        {
          "internalType": "address",
          "name": "account",
          "type": "address"
        }
      ],
      "name": "removeAdmin",
      "outputs": [],
      "stateMutability": "nonpayable",
      "type": "function"
    },
    {
      "inputs": [
        {
          "internalType": "address",
          "name": "account",
          "type": "address"
        },
        {
          "internalType": "uint256",
          "name": "maxQuantity",
          "type": "uint256"
        }
      ],
      "name": "setReseller",
      "outputs": [],
      "stateMutability": "nonpayable",
      "type": "function"
    },
    {
      "inputs": [
        {
          "internalType": "address",
          "name": "account",
          "type": "address"
        },
        {
          "internalType": "uint256",
          "name": "maxQuantity",
          "type": "uint256"
        }
      ],
      "name": "changeMaxQuantityReseller",
      "outputs": [],
      "stateMutability": "nonpayable",
      "type": "function"
    },
    {
      "inputs": [
        {
          "internalType": "address",
          "name": "account",
          "type": "address"
        }
      ],
      "name": "removeReseller",
      "outputs": [],
      "stateMutability": "nonpayable",
      "type": "function"
    },
    {
      "inputs": [
        {
          "internalType": "address",
          "name": "account",
          "type": "address"
        }
      ],
      "name": "setProducer",
      "outputs": [],
      "stateMutability": "nonpayable",
      "type": "function"
    },
    {
      "inputs": [
        {
          "internalType": "address",
          "name": "account",
          "type": "address"
        }
      ],
      "name": "removeProducer",
      "outputs": [],
      "stateMutability": "nonpayable",
      "type": "function"
    },
    {
      "inputs": [
        {
          "internalType": "uint256",
          "name": "newDuration",
          "type": "uint256"
        }
      ],
      "name": "setMaxStorageDuration",
      "outputs": [],
      "stateMutability": "nonpayable",
      "type": "function"
    },
    {
      "inputs": [
        {
          "internalType": "uint256",
          "name": "newThreshold",
          "type": "uint256"
        }
      ],
      "name": "setViolationThreshold",
      "outputs": [],
      "stateMutability": "nonpayable",
      "type": "function"
    },
    {
      "inputs": [
        {
          "internalType": "uint256",
          "name": "quantity",
          "type": "uint256"
        }
      ],
      "name": "produce",
      "outputs": [],
      "stateMutability": "nonpayable",
      "type": "function"
    },
    {
      "inputs": [
        {
          "internalType": "address",
          "name": "to",
          "type": "address"
        },
        {
          "internalType": "uint256",
          "name": "amount",
          "type": "uint256"
        },
        {
          "internalType": "uint256",
          "name": "batchId",
          "type": "uint256"
        }
      ],
      "name": "transferStock",
      "outputs": [],
      "stateMutability": "nonpayable",
      "type": "function"
    },
    {
      "inputs": [
        {
          "internalType": "uint256",
          "name": "batchId",
          "type": "uint256"
        }
      ],
      "name": "checkForAbusiveStorage",
      "outputs": [
        {
          "internalType": "bool",
          "name": "",
          "type": "bool"
        }
      ],
      "stateMutability": "nonpayable",
      "type": "function"
    },
    {
      "inputs": [
        {
          "internalType": "uint256",
          "name": "violationId",
          "type": "uint256"
        }
      ],
      "name": "resolveViolation",
      "outputs": [],
      "stateMutability": "nonpayable",
      "type": "function"
    },
    {
      "inputs": [
        {
          "internalType": "address",
          "name": "holder",
          "type": "address"
        }
      ],
      "name": "removeFromBlacklist",
      "outputs": [],
      "stateMutability": "nonpayable",
      "type": "function"
    },
    {
      "inputs": [],
      "name": "checkAllBatchesForAbusiveStorage",
      "outputs": [
        {
          "internalType": "uint256",
          "name": "",
          "type": "uint256"
        }
      ],
      "stateMutability": "nonpayable",
      "type": "function"
    },
    {
      "inputs": [
        {
          "internalType": "address",
          "name": "holder",
          "type": "address"
        }
      ],
      "name": "getActiveViolationsByHolder",
      "outputs": [
        {
          "internalType": "uint256[]",
          "name": "",
          "type": "uint256[]"
        }
      ],
      "stateMutability": "view",
      "type": "function",
      "constant": true
    },
    {
      "inputs": [
        {
          "internalType": "uint256",
          "name": "daysThreshold",
          "type": "uint256"
        }
      ],
      "name": "getBatchesNearingViolation",
      "outputs": [
        {
          "internalType": "uint256[]",
          "name": "",
          "type": "uint256[]"
        }
      ],
      "stateMutability": "view",
      "type": "function",
      "constant": true
    },
    {
      "inputs": [
        {
          "internalType": "address",
          "name": "owner",
          "type": "address"
        }
      ],
      "name": "getBatchesByOwner",
      "outputs": [
        {
          "internalType": "uint256[]",
          "name": "",
          "type": "uint256[]"
        }
      ],
      "stateMutability": "view",
      "type": "function",
      "constant": true
    },
    {
      "inputs": [
        {
          "internalType": "address",
          "name": "holder",
          "type": "address"
        }
      ],
      "name": "isHolderViolatingStorageRules",
      "outputs": [
        {
          "internalType": "bool",
          "name": "",
          "type": "bool"
        }
      ],
      "stateMutability": "view",
      "type": "function",
      "constant": true
    }
  ],
  "bytecode": "0x608060405262278d006001556003600e553480156200001d57600080fd5b506200003e62000032620000f060201b60201c565b620000f860201b60201c565b6200004f33620000f860201b60201c565b6001600760003373ffffffffffffffffffffffffffffffffffffffff1673ffffffffffffffffffffffffffffffffffffffff16815260200190815260200160002060006101000a81548160ff0219169083151502179055503373ffffffffffffffffffffffffffffffffffffffff167f44d6d25963f097ad14f29f06854a01f575648a1ef82f30e562ccd3889717e33960405160405180910390a2620001bc565b600033905090565b60008060009054906101000a900473ffffffffffffffffffffffffffffffffffffffff169050816000806101000a81548173ffffffffffffffffffffffffffffffffffffffff021916908373ffffffffffffffffffffffffffffffffffffffff1602179055508173ffffffffffffffffffffffffffffffffffffffff168173ffffffffffffffffffffffffffffffffffffffff167f8be0079c531659141344cd1fd0a4f28419497f9722a3daafe3b4186f6b6457e060405160405180910390a35050565b6146de80620001cc6000396000f3fe608060405234801561001057600080fd5b506004361061021c5760003560e01c8063715018a611610125578063a20a2c00116100ad578063b515eab31161007c578063b515eab314610688578063b995bb95146106a4578063ee76d5b0146106d7578063f2fde38b146106f3578063f55210221461070f5761021c565b8063a20a2c00146105eb578063a7223e3d14610607578063ad87dd2614610637578063b32c4d8d146106535761021c565b80638d8657cf116100f45780638d8657cf146105335780638da5cb5b146105515780639af7825b1461056f5780639d0640201461059f578063a10d9c9e146105bb5761021c565b8063715018a6146104bd57806379c21def146104c75780637d3d75f0146104e55780638462a7f8146105155761021c565b80632b38bafc116101a857806342ae291b1161017757806342ae291b1461041d578063493cccde1461044d578063537df3b61461046957806365da56031461048557806370480275146104a15761021c565b80632b38bafc1461038557806338cf8821146103a15780633f185b6c146103d1578063416dd31a146103ed5761021c565b80631785f53c116101ef5780631785f53c146102cf5780631de0e480146102eb5780632221e6671461031b57806324d7806c146103375780632a7afa0d146103675761021c565b806301e820a91461022157806305f81763146102515780630ad6c4691461026f57806310c4d2d41461029f575b600080fd5b61023b60048036038101906102369190613786565b61073f565b60405161024891906137d5565b60405180910390f35b610259610770565b60405161026691906137d5565b60405180910390f35b610289600480360381019061028491906137f0565b6107dc565b6040516102969190613838565b60405180910390f35b6102b960048036038101906102b49190613853565b6108a5565b6040516102c6919061393e565b60405180910390f35b6102e960048036038101906102e491906137f0565b610a5c565b005b61030560048036038101906103009190613853565b610c4f565b6040516103129190613838565b60405180910390f35b61033560048036038101906103309190613960565b611062565b005b610351600480360381019061034c91906137f0565b6118aa565b60405161035e9190613838565b60405180910390f35b61036f6118ca565b60405161037c91906137d5565b60405180910390f35b61039f600480360381019061039a91906137f0565b6118d0565b005b6103bb60048036038101906103b691906137f0565b611b51565b6040516103c891906137d5565b60405180910390f35b6103eb60048036038101906103e691906137f0565b611b69565b005b610407600480360381019061040291906137f0565b611d5c565b604051610414919061393e565b60405180910390f35b61043760048036038101906104329190613786565b611df3565b60405161044491906137d5565b60405180910390f35b61046760048036038101906104629190613853565b611e24565b005b610483600480360381019061047e91906137f0565b611f7b565b005b61049f600480360381019061049a9190613853565b61216e565b005b6104bb60048036038101906104b691906137f0565b6124f2565b005b6104c56126e6565b005b6104cf6126fa565b6040516104dc91906137d5565b60405180910390f35b6104ff60048036038101906104fa91906137f0565b612700565b60405161050c91906137d5565b60405180910390f35b61051d612718565b60405161052a91906137d5565b60405180910390f35b61053b61271e565b60405161054891906137d5565b60405180910390f35b610559612724565b60405161056691906139c2565b60405180910390f35b610589600480360381019061058491906137f0565b61274d565b604051610596919061393e565b60405180910390f35b6105b960048036038101906105b491906137f0565b612918565b005b6105d560048036038101906105d091906137f0565b612b0b565b6040516105e29190613838565b60405180910390f35b61060560048036038101906106009190613853565b612b2b565b005b610621600480360381019061061c91906137f0565b612d12565b60405161062e9190613838565b60405180910390f35b610651600480360381019061064c9190613853565b612d32565b005b61066d60048036038101906106689190613853565b612e46565b60405161067f969594939291906139dd565b60405180910390f35b6106a2600480360381019061069d9190613786565b612ecf565b005b6106be60048036038101906106b99190613853565b6130d3565b6040516106ce9493929190613a3e565b60405180910390f35b6106f160048036038101906106ec9190613786565b613130565b005b61070d600480360381019061070891906137f0565b6133f6565b005b610729600480360381019061072491906137f0565b613479565b6040516107369190613838565b60405180910390f35b600c602052816000526040600020818154811061075b57600080fd5b90600052602060002001600091509150505481565b6000806000905060005b6002548110156107d4576000600460008381526020019081526020016000206002015411156107c1576107ac81610c4f565b156107c05781806107bc90613ab2565b9250505b5b80806107cc90613ab2565b91505061077a565b508091505090565b600080600c60008473ffffffffffffffffffffffffffffffffffffffff1673ffffffffffffffffffffffffffffffffffffffff16815260200190815260200160002090506000805b828054905081101561089757600b600084838154811061084757610846613afa565b5b9060005260206000200154815260200190815260200160002060030160009054906101000a900460ff1661088457818061088090613ab2565b9250505b808061088f90613ab2565b915050610824565b506000811192505050919050565b6060600062015180836108b89190613b29565b6001546108c59190613b6b565b90506000805b600254811015610954576000600460008381526020019081526020016000206002015411156109415760006004600083815260200190815260200160002060030154426109189190613b6b565b9050838111801561092b57506001548111155b1561093f57828061093b90613ab2565b9350505b505b808061094c90613ab2565b9150506108cb565b5060008167ffffffffffffffff81111561097157610970613b9f565b5b60405190808252806020026020018201604052801561099f5781602001602082028036833780820191505090505b5090506000805b600254811015610a4f57600060046000838152602001908152602001600020600201541115610a3c5760006004600083815260200190815260200160002060030154426109f39190613b6b565b90508581118015610a0657506001548111155b15610a3a5781848481518110610a1f57610a1e613afa565b5b6020026020010181815250508280610a3690613ab2565b9350505b505b8080610a4790613ab2565b9150506109a6565b5081945050505050919050565b600760003373ffffffffffffffffffffffffffffffffffffffff1673ffffffffffffffffffffffffffffffffffffffff16815260200190815260200160002060009054906101000a900460ff1680610ae657503373ffffffffffffffffffffffffffffffffffffffff16610ace612724565b73ffffffffffffffffffffffffffffffffffffffff16145b610b25576040517f08c379a0000000000000000000000000000000000000000000000000000000008152600401610b1c90613c2b565b60405180910390fd5b600760008273ffffffffffffffffffffffffffffffffffffffff1673ffffffffffffffffffffffffffffffffffffffff16815260200190815260200160002060009054906101000a900460ff16610bb1576040517f08c379a0000000000000000000000000000000000000000000000000000000008152600401610ba890613c97565b60405180910390fd5b6000600760008373ffffffffffffffffffffffffffffffffffffffff1673ffffffffffffffffffffffffffffffffffffffff16815260200190815260200160002060006101000a81548160ff0219169083151502179055508073ffffffffffffffffffffffffffffffffffffffff167fa3b62bc36326052d97ea62d63c3d60308ed4c3ea8ac079dd8499f1e9c4f80c0f60405160405180910390a250565b6000806004600084815260200190815260200160002090506001548160030154610c799190613cb7565b42111561105757600060036000815480929190610c9590613ab2565b91905055905060405180608001604052808360040160009054906101000a900473ffffffffffffffffffffffffffffffffffffffff1673ffffffffffffffffffffffffffffffffffffffff16815260200185815260200142815260200160001515815250600b600083815260200190815260200160002060008201518160000160006101000a81548173ffffffffffffffffffffffffffffffffffffffff021916908373ffffffffffffffffffffffffffffffffffffffff160217905550602082015181600101556040820151816002015560608201518160030160006101000a81548160ff021916908315150217905550905050600c60008360040160009054906101000a900473ffffffffffffffffffffffffffffffffffffffff1673ffffffffffffffffffffffffffffffffffffffff1673ffffffffffffffffffffffffffffffffffffffff168152602001908152602001600020819080600181540180825580915050600190039060005260206000200160009091909190915055838260040160009054906101000a900473ffffffffffffffffffffffffffffffffffffffff1673ffffffffffffffffffffffffffffffffffffffff16827f5938baf0e87bb258c8f84cdfedaf69616db7fb30d86f1dd3b61aea99d773cf8f42604051610e8091906137d5565b60405180910390a4600e54600c60008460040160009054906101000a900473ffffffffffffffffffffffffffffffffffffffff1673ffffffffffffffffffffffffffffffffffffffff1673ffffffffffffffffffffffffffffffffffffffff168152602001908152602001600020805490501061104c576001600d60008460040160009054906101000a900473ffffffffffffffffffffffffffffffffffffffff1673ffffffffffffffffffffffffffffffffffffffff1673ffffffffffffffffffffffffffffffffffffffff16815260200190815260200160002060006101000a81548160ff0219169083151502179055508160040160009054906101000a900473ffffffffffffffffffffffffffffffffffffffff1673ffffffffffffffffffffffffffffffffffffffff167fab696c3448aca400f4d94156b35a98ac357eab949326d87e98ae9fa2b8e1a714600c60008560040160009054906101000a900473ffffffffffffffffffffffffffffffffffffffff1673ffffffffffffffffffffffffffffffffffffffff1673ffffffffffffffffffffffffffffffffffffffff1681526020019081526020016000208054905060405161104391906137d5565b60405180910390a25b60019250505061105d565b60009150505b919050565b600d60003373ffffffffffffffffffffffffffffffffffffffff1673ffffffffffffffffffffffffffffffffffffffff16815260200190815260200160002060009054906101000a900460ff16156110ef576040517f08c379a00000000000000000000000000000000000000000000000000000000081526004016110e690613d5d565b60405180910390fd5b81600560003373ffffffffffffffffffffffffffffffffffffffff1673ffffffffffffffffffffffffffffffffffffffff168152602001908152602001600020541015611171576040517f08c379a000000000000000000000000000000000000000000000000000000000815260040161116890613dc9565b60405180910390fd5b600a60003373ffffffffffffffffffffffffffffffffffffffff1673ffffffffffffffffffffffffffffffffffffffff16815260200190815260200160002060009054906101000a900460ff16806112125750600860003373ffffffffffffffffffffffffffffffffffffffff1673ffffffffffffffffffffffffffffffffffffffff16815260200190815260200160002060009054906101000a900460ff165b611251576040517f08c379a000000000000000000000000000000000000000000000000000000000815260040161124890613e35565b60405180910390fd5b600860008473ffffffffffffffffffffffffffffffffffffffff1673ffffffffffffffffffffffffffffffffffffffff16815260200190815260200160002060009054906101000a900460ff166112dd576040517f08c379a00000000000000000000000000000000000000000000000000000000081526004016112d490613ea1565b60405180910390fd5b600d60008473ffffffffffffffffffffffffffffffffffffffff1673ffffffffffffffffffffffffffffffffffffffff16815260200190815260200160002060009054906101000a900460ff161561136a576040517f08c379a000000000000000000000000000000000000000000000000000000000815260040161136190613f33565b60405180910390fd5b3373ffffffffffffffffffffffffffffffffffffffff166004600083815260200190815260200160002060040160009054906101000a900473ffffffffffffffffffffffffffffffffffffffff1673ffffffffffffffffffffffffffffffffffffffff161461140e576040517f08c379a000000000000000000000000000000000000000000000000000000000815260040161140590613f9f565b60405180910390fd5b8160046000838152602001908152602001600020600201541015611467576040517f08c379a000000000000000000000000000000000000000000000000000000000815260040161145e9061400b565b60405180910390fd5b61147081610c4f565b506004600082815260200190815260200160002060020154820361155857826004600083815260200190815260200160002060040160006101000a81548173ffffffffffffffffffffffffffffffffffffffff021916908373ffffffffffffffffffffffffffffffffffffffff1602179055506114ed3382613499565b600660008473ffffffffffffffffffffffffffffffffffffffff1673ffffffffffffffffffffffffffffffffffffffff168152602001908152602001600020819080600181540180825580915050600190039060005260206000200160009091909190915055611792565b60006002600081548092919061156d90613ab2565b9190505590506040518060c001604052808281526020016004600085815260200190815260200160002060010160009054906101000a900473ffffffffffffffffffffffffffffffffffffffff1673ffffffffffffffffffffffffffffffffffffffff168152602001848152602001600460008581526020019081526020016000206003015481526020018573ffffffffffffffffffffffffffffffffffffffff16815260200160001515815250600460008381526020019081526020016000206000820151816000015560208201518160010160006101000a81548173ffffffffffffffffffffffffffffffffffffffff021916908373ffffffffffffffffffffffffffffffffffffffff160217905550604082015181600201556060820151816003015560808201518160040160006101000a81548173ffffffffffffffffffffffffffffffffffffffff021916908373ffffffffffffffffffffffffffffffffffffffff16021790555060a08201518160040160146101000a81548160ff021916908315150217905550905050826004600084815260200190815260200160002060020160008282546117239190613b6b565b92505081905550600660008573ffffffffffffffffffffffffffffffffffffffff1673ffffffffffffffffffffffffffffffffffffffff168152602001908152602001600020819080600181540180825580915050600190039060005260206000200160009091909190915055505b81600560003373ffffffffffffffffffffffffffffffffffffffff1673ffffffffffffffffffffffffffffffffffffffff16815260200190815260200160002060008282546117e19190613b6b565b9250508190555081600560008573ffffffffffffffffffffffffffffffffffffffff1673ffffffffffffffffffffffffffffffffffffffff16815260200190815260200160002060008282546118379190613cb7565b925050819055508273ffffffffffffffffffffffffffffffffffffffff163373ffffffffffffffffffffffffffffffffffffffff167f18d62fb566bbc5565888ee7f280d21e62d398373f26d05401c3d6587fcc95c5c848460405161189d92919061402b565b60405180910390a3505050565b60076020528060005260406000206000915054906101000a900460ff1681565b600e5481565b600760003373ffffffffffffffffffffffffffffffffffffffff1673ffffffffffffffffffffffffffffffffffffffff16815260200190815260200160002060009054906101000a900460ff168061195a57503373ffffffffffffffffffffffffffffffffffffffff16611942612724565b73ffffffffffffffffffffffffffffffffffffffff16145b611999576040517f08c379a000000000000000000000000000000000000000000000000000000000815260040161199090613c2b565b60405180910390fd5b600a60008273ffffffffffffffffffffffffffffffffffffffff1673ffffffffffffffffffffffffffffffffffffffff16815260200190815260200160002060009054906101000a900460ff1615611a26576040517f08c379a0000000000000000000000000000000000000000000000000000000008152600401611a1d906140a0565b60405180910390fd5b600d60008273ffffffffffffffffffffffffffffffffffffffff1673ffffffffffffffffffffffffffffffffffffffff16815260200190815260200160002060009054906101000a900460ff1615611ab3576040517f08c379a0000000000000000000000000000000000000000000000000000000008152600401611aaa90614132565b60405180910390fd5b6001600a60008373ffffffffffffffffffffffffffffffffffffffff1673ffffffffffffffffffffffffffffffffffffffff16815260200190815260200160002060006101000a81548160ff0219169083151502179055508073ffffffffffffffffffffffffffffffffffffffff167f2977383b0207d39ef14220620b6cf3e6c9b6e78592af90baeef6614ed2fcd2c660405160405180910390a250565b60056020528060005260406000206000915090505481565b600760003373ffffffffffffffffffffffffffffffffffffffff1673ffffffffffffffffffffffffffffffffffffffff16815260200190815260200160002060009054906101000a900460ff1680611bf357503373ffffffffffffffffffffffffffffffffffffffff16611bdb612724565b73ffffffffffffffffffffffffffffffffffffffff16145b611c32576040517f08c379a0000000000000000000000000000000000000000000000000000000008152600401611c2990613c2b565b60405180910390fd5b600a60008273ffffffffffffffffffffffffffffffffffffffff1673ffffffffffffffffffffffffffffffffffffffff16815260200190815260200160002060009054906101000a900460ff16611cbe576040517f08c379a0000000000000000000000000000000000000000000000000000000008152600401611cb59061419e565b60405180910390fd5b6000600a60008373ffffffffffffffffffffffffffffffffffffffff1673ffffffffffffffffffffffffffffffffffffffff16815260200190815260200160002060006101000a81548160ff0219169083151502179055508073ffffffffffffffffffffffffffffffffffffffff167fb78e9906c5bae930ccf756a5214c9855b1782f0eb30f9566de2384f034af48f360405160405180910390a250565b6060600660008373ffffffffffffffffffffffffffffffffffffffff1673ffffffffffffffffffffffffffffffffffffffff168152602001908152602001600020805480602002602001604051908101604052809291908181526020018280548015611de757602002820191906000526020600020905b815481526020019060010190808311611dd3575b50505050509050919050565b60066020528160005260406000208181548110611e0f57600080fd5b90600052602060002001600091509150505481565b600760003373ffffffffffffffffffffffffffffffffffffffff1673ffffffffffffffffffffffffffffffffffffffff16815260200190815260200160002060009054906101000a900460ff1680611eae57503373ffffffffffffffffffffffffffffffffffffffff16611e96612724565b73ffffffffffffffffffffffffffffffffffffffff16145b611eed576040517f08c379a0000000000000000000000000000000000000000000000000000000008152600401611ee490613c2b565b60405180910390fd5b60008111611f30576040517f08c379a0000000000000000000000000000000000000000000000000000000008152600401611f2790614230565b60405180910390fd5b6000600e54905081600e819055507f640cb28dc00b63a4925f69fcfaa2182169d71f10d3adfef82155d9f711025ac18183604051611f6f92919061402b565b60405180910390a15050565b600760003373ffffffffffffffffffffffffffffffffffffffff1673ffffffffffffffffffffffffffffffffffffffff16815260200190815260200160002060009054906101000a900460ff168061200557503373ffffffffffffffffffffffffffffffffffffffff16611fed612724565b73ffffffffffffffffffffffffffffffffffffffff16145b612044576040517f08c379a000000000000000000000000000000000000000000000000000000000815260040161203b90613c2b565b60405180910390fd5b600d60008273ffffffffffffffffffffffffffffffffffffffff1673ffffffffffffffffffffffffffffffffffffffff16815260200190815260200160002060009054906101000a900460ff166120d0576040517f08c379a00000000000000000000000000000000000000000000000000000000081526004016120c79061429c565b60405180910390fd5b6000600d60008373ffffffffffffffffffffffffffffffffffffffff1673ffffffffffffffffffffffffffffffffffffffff16815260200190815260200160002060006101000a81548160ff0219169083151502179055508073ffffffffffffffffffffffffffffffffffffffff167f39ad9dd6d571557e581ef3c963032dba2db232f21ebe529f1331d2d66c2d797c60405160405180910390a250565b600a60003373ffffffffffffffffffffffffffffffffffffffff1673ffffffffffffffffffffffffffffffffffffffff16815260200190815260200160002060009054906101000a900460ff166121fa576040517f08c379a00000000000000000000000000000000000000000000000000000000081526004016121f190614308565b60405180910390fd5b600d60003373ffffffffffffffffffffffffffffffffffffffff1673ffffffffffffffffffffffffffffffffffffffff16815260200190815260200160002060009054906101000a900460ff1615612287576040517f08c379a000000000000000000000000000000000000000000000000000000000815260040161227e90613d5d565b60405180910390fd5b60006002600081548092919061229c90613ab2565b9190505590506040518060c001604052808281526020013373ffffffffffffffffffffffffffffffffffffffff1681526020018381526020014281526020013373ffffffffffffffffffffffffffffffffffffffff16815260200160001515815250600460008381526020019081526020016000206000820151816000015560208201518160010160006101000a81548173ffffffffffffffffffffffffffffffffffffffff021916908373ffffffffffffffffffffffffffffffffffffffff160217905550604082015181600201556060820151816003015560808201518160040160006101000a81548173ffffffffffffffffffffffffffffffffffffffff021916908373ffffffffffffffffffffffffffffffffffffffff16021790555060a08201518160040160146101000a81548160ff02191690831515021790555090505081600560003373ffffffffffffffffffffffffffffffffffffffff1673ffffffffffffffffffffffffffffffffffffffff168152602001908152602001600020600082825461242f9190613cb7565b92505081905550600660003373ffffffffffffffffffffffffffffffffffffffff1673ffffffffffffffffffffffffffffffffffffffff1681526020019081526020016000208190806001815401808255809150506001900390600052602060002001600090919091909150553373ffffffffffffffffffffffffffffffffffffffff167fd09d9a38e02ab127d6f42579d59f78264b59ad00e810b512d320c788a64b2f0d8284426040516124e693929190614328565b60405180910390a25050565b600760003373ffffffffffffffffffffffffffffffffffffffff1673ffffffffffffffffffffffffffffffffffffffff16815260200190815260200160002060009054906101000a900460ff168061257c57503373ffffffffffffffffffffffffffffffffffffffff16612564612724565b73ffffffffffffffffffffffffffffffffffffffff16145b6125bb576040517f08c379a00000000000000000000000000000000000000000000000000000000081526004016125b290613c2b565b60405180910390fd5b600760008273ffffffffffffffffffffffffffffffffffffffff1673ffffffffffffffffffffffffffffffffffffffff16815260200190815260200160002060009054906101000a900460ff1615612648576040517f08c379a000000000000000000000000000000000000000000000000000000000815260040161263f906143ab565b60405180910390fd5b6001600760008373ffffffffffffffffffffffffffffffffffffffff1673ffffffffffffffffffffffffffffffffffffffff16815260200190815260200160002060006101000a81548160ff0219169083151502179055508073ffffffffffffffffffffffffffffffffffffffff167f44d6d25963f097ad14f29f06854a01f575648a1ef82f30e562ccd3889717e33960405160405180910390a250565b6126ee6135a3565b6126f86000613621565b565b60015481565b60096020528060005260406000206000915090505481565b60025481565b60035481565b60008060009054906101000a900473ffffffffffffffffffffffffffffffffffffffff16905090565b60606000600c60008473ffffffffffffffffffffffffffffffffffffffff1673ffffffffffffffffffffffffffffffffffffffff16815260200190815260200160002090506000805b828054905081101561280957600b60008483815481106127b9576127b8613afa565b5b9060005260206000200154815260200190815260200160002060030160009054906101000a900460ff166127f65781806127f290613ab2565b9250505b808061280190613ab2565b915050612796565b5060008167ffffffffffffffff81111561282657612825613b9f565b5b6040519080825280602002602001820160405280156128545781602001602082028036833780820191505090505b5090506000805b848054905081101561290b57600b600086838154811061287e5761287d613afa565b5b9060005260206000200154815260200190815260200160002060030160009054906101000a900460ff166128f8578481815481106128bf576128be613afa565b5b90600052602060002001548383815181106128dd576128dc613afa565b5b60200260200101818152505081806128f490613ab2565b9250505b808061290390613ab2565b91505061285b565b5081945050505050919050565b600760003373ffffffffffffffffffffffffffffffffffffffff1673ffffffffffffffffffffffffffffffffffffffff16815260200190815260200160002060009054906101000a900460ff16806129a257503373ffffffffffffffffffffffffffffffffffffffff1661298a612724565b73ffffffffffffffffffffffffffffffffffffffff16145b6129e1576040517f08c379a00000000000000000000000000000000000000000000000000000000081526004016129d890613c2b565b60405180910390fd5b600860008273ffffffffffffffffffffffffffffffffffffffff1673ffffffffffffffffffffffffffffffffffffffff16815260200190815260200160002060009054906101000a900460ff16612a6d576040517f08c379a0000000000000000000000000000000000000000000000000000000008152600401612a6490614417565b60405180910390fd5b6000600860008373ffffffffffffffffffffffffffffffffffffffff1673ffffffffffffffffffffffffffffffffffffffff16815260200190815260200160002060006101000a81548160ff0219169083151502179055508073ffffffffffffffffffffffffffffffffffffffff167f74317ab44bd96a4b18c5f1eee4104ecd55c3eb0a69795f59fb4b3ebe550a860060405160405180910390a250565b60086020528060005260406000206000915054906101000a900460ff1681565b600760003373ffffffffffffffffffffffffffffffffffffffff1673ffffffffffffffffffffffffffffffffffffffff16815260200190815260200160002060009054906101000a900460ff1680612bb557503373ffffffffffffffffffffffffffffffffffffffff16612b9d612724565b73ffffffffffffffffffffffffffffffffffffffff16145b612bf4576040517f08c379a0000000000000000000000000000000000000000000000000000000008152600401612beb90613c2b565b60405180910390fd5b6003548110612c38576040517f08c379a0000000000000000000000000000000000000000000000000000000008152600401612c2f90614483565b60405180910390fd5b600b600082815260200190815260200160002060030160009054906101000a900460ff1615612c9c576040517f08c379a0000000000000000000000000000000000000000000000000000000008152600401612c93906144ef565b60405180910390fd5b6001600b600083815260200190815260200160002060030160006101000a81548160ff0219169083151502179055503373ffffffffffffffffffffffffffffffffffffffff16817fd00492650098d7f8856b4cfd50132f3c69ef3d6463f1869cfbd0ccfabf64ea9d60405160405180910390a350565b600d6020528060005260406000206000915054906101000a900460ff1681565b600760003373ffffffffffffffffffffffffffffffffffffffff1673ffffffffffffffffffffffffffffffffffffffff16815260200190815260200160002060009054906101000a900460ff1680612dbc57503373ffffffffffffffffffffffffffffffffffffffff16612da4612724565b73ffffffffffffffffffffffffffffffffffffffff16145b612dfb576040517f08c379a0000000000000000000000000000000000000000000000000000000008152600401612df290613c2b565b60405180910390fd5b60006001549050816001819055507f3f48365421b6fd89f4702c341b2977602f921c96f606ab41254abab5fb79ab158183604051612e3a92919061402b565b60405180910390a15050565b60046020528060005260406000206000915090508060000154908060010160009054906101000a900473ffffffffffffffffffffffffffffffffffffffff16908060020154908060030154908060040160009054906101000a900473ffffffffffffffffffffffffffffffffffffffff16908060040160149054906101000a900460ff16905086565b600760003373ffffffffffffffffffffffffffffffffffffffff1673ffffffffffffffffffffffffffffffffffffffff16815260200190815260200160002060009054906101000a900460ff1680612f5957503373ffffffffffffffffffffffffffffffffffffffff16612f41612724565b73ffffffffffffffffffffffffffffffffffffffff16145b612f98576040517f08c379a0000000000000000000000000000000000000000000000000000000008152600401612f8f90613c2b565b60405180910390fd5b600860008373ffffffffffffffffffffffffffffffffffffffff1673ffffffffffffffffffffffffffffffffffffffff16815260200190815260200160002060009054906101000a900460ff16613024576040517f08c379a000000000000000000000000000000000000000000000000000000000815260040161301b90614417565b60405180910390fd5b80600960008473ffffffffffffffffffffffffffffffffffffffff1673ffffffffffffffffffffffffffffffffffffffff168152602001908152602001600020819055503373ffffffffffffffffffffffffffffffffffffffff168273ffffffffffffffffffffffffffffffffffffffff167f60f99d53b11182f64116ffb8b46848a60b4ba4321be11d873e8e03ea42741d6883426040516130c792919061402b565b60405180910390a35050565b600b6020528060005260406000206000915090508060000160009054906101000a900473ffffffffffffffffffffffffffffffffffffffff16908060010154908060020154908060030160009054906101000a900460ff16905084565b600760003373ffffffffffffffffffffffffffffffffffffffff1673ffffffffffffffffffffffffffffffffffffffff16815260200190815260200160002060009054906101000a900460ff16806131ba57503373ffffffffffffffffffffffffffffffffffffffff166131a2612724565b73ffffffffffffffffffffffffffffffffffffffff16145b6131f9576040517f08c379a00000000000000000000000000000000000000000000000000000000081526004016131f090613c2b565b60405180910390fd5b600860008373ffffffffffffffffffffffffffffffffffffffff1673ffffffffffffffffffffffffffffffffffffffff16815260200190815260200160002060009054906101000a900460ff1615613286576040517f08c379a000000000000000000000000000000000000000000000000000000000815260040161327d9061455b565b60405180910390fd5b600d60008373ffffffffffffffffffffffffffffffffffffffff1673ffffffffffffffffffffffffffffffffffffffff16815260200190815260200160002060009054906101000a900460ff1615613313576040517f08c379a000000000000000000000000000000000000000000000000000000000815260040161330a90614132565b60405180910390fd5b6001600860008473ffffffffffffffffffffffffffffffffffffffff1673ffffffffffffffffffffffffffffffffffffffff16815260200190815260200160002060006101000a81548160ff02191690831515021790555080600960008473ffffffffffffffffffffffffffffffffffffffff1673ffffffffffffffffffffffffffffffffffffffff168152602001908152602001600020819055508173ffffffffffffffffffffffffffffffffffffffff167ffb8f232b7a1d3d51060d32be9d6cf6808aa8f7dd043c8c20c4cfaf929ca9d48460405160405180910390a25050565b6133fe6135a3565b600073ffffffffffffffffffffffffffffffffffffffff168173ffffffffffffffffffffffffffffffffffffffff160361346d576040517f08c379a0000000000000000000000000000000000000000000000000000000008152600401613464906145ed565b60405180910390fd5b61347681613621565b50565b600a6020528060005260406000206000915054906101000a900460ff1681565b6000600660008473ffffffffffffffffffffffffffffffffffffffff1673ffffffffffffffffffffffffffffffffffffffff168152602001908152602001600020905060005b818054905081101561359d57828282815481106134ff576134fe613afa565b5b90600052602060002001540361358a5781600183805490506135219190613b6b565b8154811061353257613531613afa565b5b90600052602060002001548282815481106135505761354f613afa565b5b90600052602060002001819055508180548061356f5761356e61460d565b5b6001900381819060005260206000200160009055905561359d565b808061359590613ab2565b9150506134df565b50505050565b6135ab6136e5565b73ffffffffffffffffffffffffffffffffffffffff166135c9612724565b73ffffffffffffffffffffffffffffffffffffffff161461361f576040517f08c379a000000000000000000000000000000000000000000000000000000000815260040161361690614688565b60405180910390fd5b565b60008060009054906101000a900473ffffffffffffffffffffffffffffffffffffffff169050816000806101000a81548173ffffffffffffffffffffffffffffffffffffffff021916908373ffffffffffffffffffffffffffffffffffffffff1602179055508173ffffffffffffffffffffffffffffffffffffffff168173ffffffffffffffffffffffffffffffffffffffff167f8be0079c531659141344cd1fd0a4f28419497f9722a3daafe3b4186f6b6457e060405160405180910390a35050565b600033905090565b600080fd5b600073ffffffffffffffffffffffffffffffffffffffff82169050919050565b600061371d826136f2565b9050919050565b61372d81613712565b811461373857600080fd5b50565b60008135905061374a81613724565b92915050565b6000819050919050565b61376381613750565b811461376e57600080fd5b50565b6000813590506137808161375a565b92915050565b6000806040838503121561379d5761379c6136ed565b5b60006137ab8582860161373b565b92505060206137bc85828601613771565b9150509250929050565b6137cf81613750565b82525050565b60006020820190506137ea60008301846137c6565b92915050565b600060208284031215613806576138056136ed565b5b60006138148482850161373b565b91505092915050565b60008115159050919050565b6138328161381d565b82525050565b600060208201905061384d6000830184613829565b92915050565b600060208284031215613869576138686136ed565b5b600061387784828501613771565b91505092915050565b600081519050919050565b600082825260208201905092915050565b6000819050602082019050919050565b6138b581613750565b82525050565b60006138c783836138ac565b60208301905092915050565b6000602082019050919050565b60006138eb82613880565b6138f5818561388b565b93506139008361389c565b8060005b8381101561393157815161391888826138bb565b9750613923836138d3565b925050600181019050613904565b5085935050505092915050565b6000602082019050818103600083015261395881846138e0565b905092915050565b600080600060608486031215613979576139786136ed565b5b60006139878682870161373b565b935050602061399886828701613771565b92505060406139a986828701613771565b9150509250925092565b6139bc81613712565b82525050565b60006020820190506139d760008301846139b3565b92915050565b600060c0820190506139f260008301896137c6565b6139ff60208301886139b3565b613a0c60408301876137c6565b613a1960608301866137c6565b613a2660808301856139b3565b613a3360a0830184613829565b979650505050505050565b6000608082019050613a5360008301876139b3565b613a6060208301866137c6565b613a6d60408301856137c6565b613a7a6060830184613829565b95945050505050565b7f4e487b7100000000000000000000000000000000000000000000000000000000600052601160045260246000fd5b6000613abd82613750565b91507fffffffffffffffffffffffffffffffffffffffffffffffffffffffffffffffff8203613aef57613aee613a83565b5b600182019050919050565b7f4e487b7100000000000000000000000000000000000000000000000000000000600052603260045260246000fd5b6000613b3482613750565b9150613b3f83613750565b9250828202613b4d81613750565b91508282048414831517613b6457613b63613a83565b5b5092915050565b6000613b7682613750565b9150613b8183613750565b9250828203905081811115613b9957613b98613a83565b5b92915050565b7f4e487b7100000000000000000000000000000000000000000000000000000000600052604160045260246000fd5b600082825260208201905092915050565b7f4e6f7420616e2061646d696e0000000000000000000000000000000000000000600082015250565b6000613c15600c83613bce565b9150613c2082613bdf565b602082019050919050565b60006020820190508181036000830152613c4481613c08565b9050919050565b7f41646472657373206973206e6f7420616e2061646d696e000000000000000000600082015250565b6000613c81601783613bce565b9150613c8c82613c4b565b602082019050919050565b60006020820190508181036000830152613cb081613c74565b9050919050565b6000613cc282613750565b9150613ccd83613750565b9250828201905080821115613ce557613ce4613a83565b5b92915050565b7f4163636f756e7420697320626c61636b6c697374656420666f7220616275736960008201527f76652073746f7261676500000000000000000000000000000000000000000000602082015250565b6000613d47602a83613bce565b9150613d5282613ceb565b604082019050919050565b60006020820190508181036000830152613d7681613d3a565b9050919050565b7f496e73756666696369656e742073746f636b0000000000000000000000000000600082015250565b6000613db3601283613bce565b9150613dbe82613d7d565b602082019050919050565b60006020820190508181036000830152613de281613da6565b9050919050565b7f556e617574686f72697a6564207472616e736665720000000000000000000000600082015250565b6000613e1f601583613bce565b9150613e2a82613de9565b602082019050919050565b60006020820190508181036000830152613e4e81613e12565b9050919050565b7f526563697069656e74206e6f7420617574686f72697a65640000000000000000600082015250565b6000613e8b601883613bce565b9150613e9682613e55565b602082019050919050565b60006020820190508181036000830152613eba81613e7e565b9050919050565b7f526563697069656e7420697320626c61636b6c697374656420666f722061627560008201527f736976652073746f726167650000000000000000000000000000000000000000602082015250565b6000613f1d602c83613bce565b9150613f2882613ec1565b604082019050919050565b60006020820190508181036000830152613f4c81613f10565b9050919050565b7f596f7520646f6e2774206f776e20746869732062617463680000000000000000600082015250565b6000613f89601883613bce565b9150613f9482613f53565b602082019050919050565b60006020820190508181036000830152613fb881613f7c565b9050919050565b7f496e73756666696369656e74207175616e7469747920696e2062617463680000600082015250565b6000613ff5601e83613bce565b915061400082613fbf565b602082019050919050565b6000602082019050818103600083015261402481613fe8565b9050919050565b600060408201905061404060008301856137c6565b61404d60208301846137c6565b9392505050565b7f4164647265737320697320616c726561647920612070726f6475636572000000600082015250565b600061408a601d83613bce565b915061409582614054565b602082019050919050565b600060208201905081810360008301526140b98161407d565b9050919050565b7f4164647265737320697320626c61636b6c697374656420666f7220616275736960008201527f76652073746f7261676500000000000000000000000000000000000000000000602082015250565b600061411c602a83613bce565b9150614127826140c0565b604082019050919050565b6000602082019050818103600083015261414b8161410f565b9050919050565b7f41646472657373206973206e6f7420612070726f647563657200000000000000600082015250565b6000614188601983613bce565b915061419382614152565b602082019050919050565b600060208201905081810360008301526141b78161417b565b9050919050565b7f5468726573686f6c64206d7573742062652067726561746572207468616e207a60008201527f65726f0000000000000000000000000000000000000000000000000000000000602082015250565b600061421a602383613bce565b9150614225826141be565b604082019050919050565b600060208201905081810360008301526142498161420d565b9050919050565b7f41646472657373206973206e6f7420626c61636b6c6973746564000000000000600082015250565b6000614286601a83613bce565b915061429182614250565b602082019050919050565b600060208201905081810360008301526142b581614279565b9050919050565b7f4e6f7420616e20617574686f72697a65642070726f6475636572000000000000600082015250565b60006142f2601a83613bce565b91506142fd826142bc565b602082019050919050565b60006020820190508181036000830152614321816142e5565b9050919050565b600060608201905061433d60008301866137c6565b61434a60208301856137c6565b61435760408301846137c6565b949350505050565b7f4164647265737320697320616c726561647920616e2061646d696e0000000000600082015250565b6000614395601b83613bce565b91506143a08261435f565b602082019050919050565b600060208201905081810360008301526143c481614388565b9050919050565b7f41646472657373206973206e6f74206120726573656c6c657200000000000000600082015250565b6000614401601983613bce565b915061440c826143cb565b602082019050919050565b60006020820190508181036000830152614430816143f4565b9050919050565b7f56696f6c6174696f6e20646f6573206e6f742065786973740000000000000000600082015250565b600061446d601883613bce565b915061447882614437565b602082019050919050565b6000602082019050818103600083015261449c81614460565b9050919050565b7f56696f6c6174696f6e20616c7265616479207265736f6c766564000000000000600082015250565b60006144d9601a83613bce565b91506144e4826144a3565b602082019050919050565b60006020820190508181036000830152614508816144cc565b9050919050565b7f4164647265737320697320616c7265616479206120726573656c6c6572000000600082015250565b6000614545601d83613bce565b91506145508261450f565b602082019050919050565b6000602082019050818103600083015261457481614538565b9050919050565b7f4f776e61626c653a206e6577206f776e657220697320746865207a65726f206160008201527f6464726573730000000000000000000000000000000000000000000000000000602082015250565b60006145d7602683613bce565b91506145e28261457b565b604082019050919050565b60006020820190508181036000830152614606816145ca565b9050919050565b7f4e487b7100000000000000000000000000000000000000000000000000000000600052603160045260246000fd5b7f4f776e61626c653a2063616c6c6572206973206e6f7420746865206f776e6572600082015250565b6000614672602083613bce565b915061467d8261463c565b602082019050919050565b600060208201905081810360008301526146a181614665565b905091905056fea2646970667358221220e4e8d706a5abb06dddb1570fa8e482a8174c7848a1fd58a7904bd94cf1bb63fe64736f6c63430008130033",
  "immutableReferences": {},
  "source": "// SPDX-License-Identifier: MIT\r\npragma solidity ^0.8.19;\r\n\r\nimport \"@openzeppelin/contracts/access/Ownable.sol\";\r\n\r\n\r\ncontract MilkSupplyChain is Ownable {\r\n    struct Batch {\r\n        uint256 id;\r\n        address producer;\r\n        uint256 quantity;\r\n        uint256 timestamp;\r\n        address currentOwner;\r\n        bool expired;\r\n    }\r\n    \r\n    struct StorageViolation {\r\n        address holder;\r\n        uint256 batchId;\r\n        uint256 detectionTime;\r\n        bool resolved;\r\n    }\r\n    \r\n    uint256 public maxStorageDuration = 30 days;\r\n    uint256 public nextBatchId;\r\n    uint256 public nextViolationId;\r\n    \r\n    mapping(uint256 => Batch) public batches;\r\n    mapping(address => uint256) public stockBalance;\r\n    mapping(address => uint256[]) public batchesByOwner;\r\n    \r\n    // Role management\r\n    mapping(address => bool) public isAdmin;\r\n    mapping(address => bool) public isReseller;\r\n    mapping(address => uint256) public maxQuantityPerReseller;\r\n    mapping(address => bool) public isProducer;\r\n    \r\n    // mappings mtaa violations\r\n    mapping(uint256 => StorageViolation) public violations;\r\n    mapping(address => uint256[]) public violationsByHolder;\r\n    mapping(address => bool) public blacklistedHolders;\r\n    uint256 public violationThreshold = 3; // 9d'h men violation 9bal me yetbanna\r\n    \r\n    // Events\r\n    event Produced(uint256 batchId, address indexed producer, uint256 quantity, uint256 timestamp);\r\n    event ResellerChanged(address indexed reseller, address indexed admin, uint256 maxQuantity, uint256 timestamp);\r\n    event Transferred(address indexed from, address indexed to, uint256 quantity, uint256 batchId);\r\n    event AdminAdded(address indexed admin);\r\n    event AdminRemoved(address indexed admin);\r\n    event ResellerAdded(address indexed reseller);\r\n    event ProducerAdded(address indexed producer);\r\n    event ResellerRemoved(address indexed reseller);\r\n    event ProducerRemoved(address indexed producer);\r\n    event BatchExpired(uint256 indexed batchId, address indexed owner, uint256 expiryTime);\r\n    event MaxStorageDurationChanged(uint256 oldDuration, uint256 newDuration);\r\n    event AbusiveStorageDetected(uint256 indexed violationId, address indexed holder, uint256 indexed batchId, uint256 detectionTime);\r\n    event ViolationResolved(uint256 indexed violationId, address indexed resolver);\r\n    event HolderBlacklisted(address indexed holder, uint256 violationCount);\r\n    event HolderRemovedFromBlacklist(address indexed holder);\r\n    event ViolationThresholdChanged(uint256 oldThreshold, uint256 newThreshold);\r\n    \r\n    modifier onlyAdmin() {\r\n        require(isAdmin[msg.sender] || owner() == msg.sender, \"Not an admin\");\r\n        _;\r\n    }\r\n    \r\n    modifier onlyProducer() {\r\n        require(isProducer[msg.sender], \"Not an authorized producer\");\r\n        _;\r\n    }\r\n    \r\n    modifier onlyReseller() {\r\n        require(isReseller[msg.sender], \"Not an authorized reseller\");\r\n        _;\r\n    }\r\n    \r\n    modifier notBlacklisted() {\r\n        require(!blacklistedHolders[msg.sender], \"Account is blacklisted for abusive storage\");\r\n        _;\r\n    }\r\n    \r\n        constructor() {\r\n    _transferOwnership(msg.sender);\r\n    isAdmin[msg.sender] = true;\r\n    emit AdminAdded(msg.sender);\r\n}\r\n\r\n    \r\n    function addAdmin(address account) external onlyAdmin {\r\n        require(!isAdmin[account], \"Address is already an admin\");\r\n        isAdmin[account] = true;\r\n        emit AdminAdded(account);\r\n    }\r\n    \r\n    function removeAdmin(address account) external onlyAdmin {\r\n        require(isAdmin[account], \"Address is not an admin\");\r\n        isAdmin[account] = false;\r\n        emit AdminRemoved(account);\r\n    }\r\n    \r\n    function setReseller(address account, uint256 maxQuantity) external onlyAdmin {\r\n        require(!isReseller[account], \"Address is already a reseller\");\r\n        require(!blacklistedHolders[account], \"Address is blacklisted for abusive storage\");\r\n        isReseller[account] = true;\r\n        maxQuantityPerReseller[account] = maxQuantity;\r\n        emit ResellerAdded(account);\r\n    }\r\n    \r\n    function changeMaxQuantityReseller(address account, uint256 maxQuantity) external onlyAdmin {\r\n        require(isReseller[account], \"Address is not a reseller\");\r\n        maxQuantityPerReseller[account] = maxQuantity;\r\n        emit ResellerChanged(account, msg.sender, maxQuantity, block.timestamp);\r\n    }\r\n    \r\n    function removeReseller(address account) external onlyAdmin {\r\n        require(isReseller[account], \"Address is not a reseller\");\r\n        isReseller[account] = false;\r\n        emit ResellerRemoved(account);\r\n    }\r\n    \r\n    function setProducer(address account) external onlyAdmin {\r\n        require(!isProducer[account], \"Address is already a producer\");\r\n        require(!blacklistedHolders[account], \"Address is blacklisted for abusive storage\");\r\n        isProducer[account] = true;\r\n        emit ProducerAdded(account);\r\n    }\r\n    \r\n    function removeProducer(address account) external onlyAdmin {\r\n        require(isProducer[account], \"Address is not a producer\");\r\n        isProducer[account] = false;\r\n        emit ProducerRemoved(account);\r\n    }\r\n    \r\n    function setMaxStorageDuration(uint256 newDuration) external onlyAdmin {\r\n        uint256 oldDuration = maxStorageDuration;\r\n        maxStorageDuration = newDuration;\r\n        emit MaxStorageDurationChanged(oldDuration, newDuration);\r\n    }\r\n    \r\n    function setViolationThreshold(uint256 newThreshold) external onlyAdmin {\r\n        require(newThreshold > 0, \"Threshold must be greater than zero\");\r\n        uint256 oldThreshold = violationThreshold;\r\n        violationThreshold = newThreshold;\r\n        emit ViolationThresholdChanged(oldThreshold, newThreshold);\r\n    }\r\n    \r\n    function produce(uint256 quantity) external onlyProducer notBlacklisted {\r\n        uint256 batchId = nextBatchId++;\r\n        batches[batchId] = Batch({\r\n            id: batchId,\r\n            producer: msg.sender,\r\n            quantity: quantity,\r\n            timestamp: block.timestamp,\r\n            currentOwner: msg.sender,\r\n            expired: false\r\n        });\r\n        \r\n        stockBalance[msg.sender] += quantity;\r\n        batchesByOwner[msg.sender].push(batchId);\r\n        \r\n        emit Produced(batchId, msg.sender, quantity, block.timestamp);\r\n    }\r\n    \r\n    function transferStock(address to, uint256 amount, uint256 batchId) external notBlacklisted {\r\n        require(stockBalance[msg.sender] >= amount, \"Insufficient stock\");\r\n        require(isProducer[msg.sender] || isReseller[msg.sender], \"Unauthorized transfer\");\r\n        require(isReseller[to], \"Recipient not authorized\");\r\n        require(!blacklistedHolders[to], \"Recipient is blacklisted for abusive storage\");\r\n        require(batches[batchId].currentOwner == msg.sender, \"You don't own this batch\");\r\n        require(batches[batchId].quantity >= amount, \"Insufficient quantity in batch\");\r\n        \r\n        // Check for abusive storage\r\n        checkForAbusiveStorage(batchId);\r\n        \r\n        if (amount == batches[batchId].quantity) {\r\n            // ken kad eli talbou kad fil batch aatih elbatch\r\n            batches[batchId].currentOwner = to;\r\n            removeBatchFromOwner(msg.sender, batchId);\r\n            batchesByOwner[to].push(batchId);\r\n        } else {\r\n            // snn aamel batch jdid nafs eldonnee\r\n            //quantite kad eli tablou\r\n            uint256 newBatchId = nextBatchId++;\r\n            batches[newBatchId] = Batch({\r\n                id: newBatchId,\r\n                producer: batches[batchId].producer,\r\n                quantity: amount,\r\n                timestamp: batches[batchId].timestamp, \r\n                currentOwner: to,\r\n                expired: false\r\n            });\r\n            \r\n            // mise ajour batch original\r\n            batches[batchId].quantity -= amount;\r\n            \r\n            // aatih lil jdid\r\n            batchesByOwner[to].push(newBatchId);\r\n        }\r\n        \r\n        stockBalance[msg.sender] -= amount;\r\n        stockBalance[to] += amount;\r\n        \r\n        emit Transferred(msg.sender, to, amount, batchId);\r\n    }\r\n    \r\n    function checkForAbusiveStorage(uint256 batchId) public returns (bool) {\r\n        Batch storage batch = batches[batchId];\r\n        \r\n        if (block.timestamp > batch.timestamp + maxStorageDuration) {\r\n            // Report violation\r\n            uint256 violationId = nextViolationId++;\r\n            violations[violationId] = StorageViolation({\r\n                holder: batch.currentOwner,\r\n                batchId: batchId,\r\n                detectionTime: block.timestamp,\r\n                resolved: false\r\n            });\r\n            \r\n            violationsByHolder[batch.currentOwner].push(violationId);\r\n            \r\n            emit AbusiveStorageDetected(violationId, batch.currentOwner, batchId, block.timestamp);\r\n            \r\n            // holder  blacklisted??\r\n            if (violationsByHolder[batch.currentOwner].length >= violationThreshold) {\r\n                blacklistedHolders[batch.currentOwner] = true;\r\n                emit HolderBlacklisted(batch.currentOwner, violationsByHolder[batch.currentOwner].length);\r\n            }\r\n            \r\n            return true;\r\n        }\r\n        \r\n        return false;\r\n    }\r\n    \r\n    function resolveViolation(uint256 violationId) external onlyAdmin {\r\n        require(violationId < nextViolationId, \"Violation does not exist\");\r\n        require(!violations[violationId].resolved, \"Violation already resolved\");\r\n        \r\n        violations[violationId].resolved = true;\r\n        emit ViolationResolved(violationId, msg.sender);\r\n    }\r\n    \r\n    function removeFromBlacklist(address holder) external onlyAdmin {\r\n        require(blacklistedHolders[holder], \"Address is not blacklisted\");\r\n        blacklistedHolders[holder] = false;\r\n        emit HolderRemovedFromBlacklist(holder);\r\n    }\r\n    \r\n    function checkAllBatchesForAbusiveStorage() external returns (uint256) {\r\n        uint256 violationCount = 0;\r\n        \r\n        for (uint256 i = 0; i < nextBatchId; i++) {\r\n            if (batches[i].quantity > 0) {\r\n                if (checkForAbusiveStorage(i)) {\r\n                    violationCount++;\r\n                }\r\n            }\r\n        }\r\n        \r\n        return violationCount;\r\n    }\r\n    \r\n    function getActiveViolationsByHolder(address holder) external view returns (uint256[] memory) {\r\n        uint256[] storage allViolations = violationsByHolder[holder];\r\n        uint256 activeCount = 0;\r\n        \r\n        // Count active violations\r\n        for (uint256 i = 0; i < allViolations.length; i++) {\r\n            if (!violations[allViolations[i]].resolved) {\r\n                activeCount++;\r\n            }\r\n        }\r\n        \r\n        // Create result array\r\n        uint256[] memory activeViolations = new uint256[](activeCount);\r\n        uint256 index = 0;\r\n        \r\n        // Populate result array\r\n        for (uint256 i = 0; i < allViolations.length; i++) {\r\n            if (!violations[allViolations[i]].resolved) {\r\n                activeViolations[index] = allViolations[i];\r\n                index++;\r\n            }\r\n        }\r\n        \r\n        return activeViolations;\r\n    }\r\n    \r\n    function getBatchesNearingViolation(uint256 daysThreshold) external view returns (uint256[] memory) {\r\n        uint256 warningTime = maxStorageDuration - (daysThreshold * 1 days);\r\n        uint256 count = 0;\r\n        \r\n        // Count qualifying batches\r\n        for (uint256 i = 0; i < nextBatchId; i++) {\r\n            if (batches[i].quantity > 0) {\r\n                uint256 batchAge = block.timestamp - batches[i].timestamp;\r\n                if (batchAge > warningTime && batchAge <= maxStorageDuration) {\r\n                    count++;\r\n                }\r\n            }\r\n        }\r\n        \r\n        // Create result array\r\n        uint256[] memory warningBatches = new uint256[](count);\r\n        uint256 index = 0;\r\n        \r\n        // Populate result array\r\n        for (uint256 i = 0; i < nextBatchId; i++) {\r\n            if (batches[i].quantity > 0) {\r\n                uint256 batchAge = block.timestamp - batches[i].timestamp;\r\n                if (batchAge > warningTime && batchAge <= maxStorageDuration) {\r\n                    warningBatches[index] = i;\r\n                    index++;\r\n                }\r\n            }\r\n        }\r\n        \r\n        return warningBatches;\r\n    }\r\n    \r\n    function getBatchesByOwner(address owner) external view returns (uint256[] memory) {\r\n        return batchesByOwner[owner];\r\n    }\r\n    \r\n    function removeBatchFromOwner(address owner, uint256 batchId) private {\r\n        uint256[] storage ownerBatches = batchesByOwner[owner];\r\n        for (uint256 i = 0; i < ownerBatches.length; i++) {\r\n            if (ownerBatches[i] == batchId) {\r\n                // Replace with last element and pop\r\n                ownerBatches[i] = ownerBatches[ownerBatches.length - 1];\r\n                ownerBatches.pop();\r\n                break;\r\n            }\r\n        }\r\n    }\r\n    \r\n    function isHolderViolatingStorageRules(address holder) external view returns (bool) {\r\n        uint256[] storage holderViolations = violationsByHolder[holder];\r\n        uint256 activeViolations = 0;\r\n        \r\n        for (uint256 i = 0; i < holderViolations.length; i++) {\r\n            if (!violations[holderViolations[i]].resolved) {\r\n                activeViolations++;\r\n            }\r\n        }\r\n        \r\n        return activeViolations > 0;\r\n    }\r\n}",
  "sourcePath": "C:\\Users\\USER\\Documents\\GitHub\\abusive-storage-detection\\contracts\\MilkSupplyChain.sol",
  "compiler": {
    "name": "solc",
    "version": "0.8.19+commit.7dd6d404.Emscripten.clang"
  },
  "schemaVersion": "3.4.16",
  "updatedAt": "2025-04-11T23:12:33.867Z",
  "networkType": "ethereum",
  "devdoc": {
    "kind": "dev",
    "methods": {
      "owner()": {
        "details": "Returns the address of the current owner."
      },
      "renounceOwnership()": {
        "details": "Leaves the contract without owner. It will not be possible to call `onlyOwner` functions. Can only be called by the current owner. NOTE: Renouncing ownership will leave the contract without an owner, thereby disabling any functionality that is only available to the owner."
      },
      "transferOwnership(address)": {
        "details": "Transfers ownership of the contract to a new account (`newOwner`). Can only be called by the current owner."
      }
    },
    "version": 1
  },
  "userdoc": {
    "kind": "user",
    "methods": {},
    "version": 1
  }
}